:040000005AEF00F0C3
:10000800FACF16F0FBCF17F0E9CF18F042ED04F065
:10001800D8CF05F0E8CF06F0E0CF07F0FACF08F028
:10002800FBCF09F0E9CF0AF0EACF0BF0E1CF0CF0F3
:10003800E2CF0DF0D9CF0EF0DACF0FF0F3CF10F0FA
:10004800F4CF11F0F6CF12F0F7CF13F0F8CF14F089
:10005800F5CF15F0F2A407D0F294B10ED76EE00EEA
:10006800D66EE1EC02F015C0F5FF14C0F8FF13C01E
:10007800F7FF12C0F6FF11C0F4FF10C0F3FF0FC066
:10008800DAFF0EC0D9FF0DC0E2FF0CC0E1FF0BC0C4
:10009800EAFF0AC0E9FF09C0FBFF08C0FAFF07C072
:1000A800E0FF06C0E8FF05C0D8FF100078EF04F0B5
:1000B800000E956E010E936E030E966E000E946EF2
:1000C8000F0EC16E000E336E000E326ED08EF00E23
:1000D800F26EF194F180F294880ED56EB10ED76E5F
:1000E800E00ED66E010ED8EC04F0000160C063F09B
:1000F800000161C064F0000E0001666F050E00018A
:10010800656FFCEC04F0000163C048F0000164C0B6
:1001180049F0A00E485C0F0E4958D8B00AD08B742D
:10012800000E0001636F190E0001626F2FEC05F0DD
:1001380001D08B84000ED8EC04F0000160C063F09D
:10014800000161C064F0000E0001666F0A0E000134
:10015800656FFCEC04F0000163C034F0000164C07A
:1001680035F0110E345C270E3558D8A004D0270E70
:10017800356E100E346E34C060F035C061F0000E7C
:100188000001636F5D0E0001626F06EC04F0000170
:1001980060C067F0000161C068F025EC05F0D7EC9D
:1001A80001F000016DC036F000016EC037F0A20EFC
:1001B800365C260E3758D8A006D0270E376E0F0E9D
:1001C800366E8A9A01D08A8A84A284B030D0B80E5A
:1001D800365C070E3758D8A00AD0E90E365C070EF1
:1001E8003758D8B004D0070E376ED00E366ED00E02
:1001F800365C030E3758D8A00AD0010E365C040EC0
:100208003758D8B004D0030E376EE80E366E4D0E50
:10021800365C1D0E3758D8A00AD0340E365C210E35
:100228003758D8B004D01F0E376E400E366E84A2F1
:1002380084A042D036C060F037C061F0000E0001E3
:10024800636F050E0001626F06EC04F0000160C0E8
:1002580036F0000161C037F0BA0E365C000E375830
:10026800D8A00AD0D70E365C000E3758D8B004D0C4
:10027800000E376EC80E366E560E365C000E3758B6
:10028800D8A00AD0730E365C000E3758D8B004D008
:10029800000E376E640E366E0D0E365C030E375840
:1002A800D8A00AD0340E365C030E3758D8B004D024
:1002B800030E376E200E366E84A246D084A002D07C
:1002C80084A042D036C060F037C061F0000E000153
:1002D800636F0A0E0001626F06EC04F0000160C053
:1002E80036F0000161C037F02E0E365C000E37582C
:1002F800D8A00AD0370E365C000E3758D8B004D0D4
:10030800000E376E320E366E180E365C000E3758F9
:10031800D8A00AD01B0E365C000E3758D8B004D0CF
:10032800000E376E190E366EBF0E365C000E37584B
:10033800D8A00AD0D20E365C000E3758D8B004D0F8
:10034800000E376EC80E366E36C060F037C061F0EA
:10035800000E0001636F640E0001626F06EC04F08A
:10036800000160C071F0000161C072F036C060F039
:1003780037C061F0000E0001636F640E0001626F08
:10038800A8EC04F0000160C073F0000161C074F0D3
:1003980071C067F072C068F073C069F074C06AF029
:1003A800C9EC03F09FD6A10ECD6E000E3F6E000E75
:1003B8003E6E3EC03CF03FC03DF03CC03AF03DC010
:1003C8003BF03AC02EF03BC02FF02EC02CF02FC0CF
:1003D8002DF00F0EC16E938010D0010E2826000E4E
:1003E80029222A222B22A10E285C860E2958010ECA
:1003F8002A58000E2B58D8B002D081B0EED7000E84
:10040800286E000E296E000E2A6E000E2B6E10D07C
:10041800010E2826000E29222A222B22A10E285C52
:10042800860E2958010E2A58000E2B58D8B002D033
:1004380081A0EED7000E286E000E296E000E2A6EDF
:10044800000E2B6ECECF3AF03B6ACF503B2610D031
:10045800010E2826000E29222A222B22A10E285C12
:10046800860E2958010E2A58000E2B58D8B002D0F3
:1004780081B0EED7000E286E000E296E000E2A6E8F
:10048800000E2B6ECECF3CF03D6ACF503D2610D0EB
:10049800010E2826000E29222A222B22A10E285CD2
:1004A800860E2958010E2A58000E2B58D8B002D0B3
:1004B80081A0EED7000E286E000E296E000E2A6E5F
:1004C800000E2B6ECECF3EF03F6ACF503F263CC089
:1004D8006FF03DC070F000016F1F701F6F4B702BE5
:1004E8003E5000016F252E6E3F50000170212F6E87
:1004F8003AC06FF03BC070F000016F1F701F6F4B68
:10050800702B3C5000016F252C6E3D50000170216E
:100518002D6E2C502E262D502F222CC063F02DC06E
:1005280064F0000E0001666F640E0001656FFCEC5C
:1005380004F0000163C02CF0000164C02DF0D890D5
:100548002F300001706F2E3000016F6F00016F5166
:100558002C26000170512D22400E246E420E256E6D
:100568000F0E266E000E276E24C060F025C061F0C5
:1005780026C062F027C063F000012EC064F00001BD
:100588002FC065F00001666B0001676B5FEC03F03C
:1005980060C024F061C025F062C026F063C027F077
:1005A800000E0001636F0A0E0001626F2FEC05F068
:1005B80024C06DF025C06EF01200000E046E8A8211
:1005C8008A848A868A8842D08A924450010D000122
:1005D800750EF324D96E0001000EF420DA6EDF5098
:1005E8008C6E43A648D02FD08A944250010D00014A
:1005F800750EF324D96E0001000EF420DA6EDF5078
:100608008C6E43A438D01FD08A964550010D000146
:10061800750EF324D96E0001000EF420DA6EDF5057
:100628008C6E43A228D00FD08A984650010D000145
:10063800750EF324D96E0001000EF420DA6EDF5037
:100648008C6E43A018D0010E046E15D030C001F096
:1006580031C002F00250000AD8A40DD00150000A9F
:10066800D8B4B2D7010AD8B4BFD7030AD8B4CCD704
:10067800010AD8B4D9D70404D8B48C9E4750120ABA
:10068800D8B403D0304A312A04D0000E316E120E8D
:10069800306E4750016E026A0250800A036E305075
:1006A800015C3150800A0358D8B004D0000E316E76
:1006B800000E306E1200000E0001686F000E00017F
:1006C800696F000E00016A6F000E00016B6F000178
:1006D8006751641165116611D8B44ED0010E00013E
:1006E8006C6F0CD00001D8900001643700016537A9
:1006F800000166370001673700016C2B000167AF06
:10070800F1D70001D890000168370001693700016E
:100718006A3700016B37000164510001605D000118
:1007280065510001615900016651000162590001DB
:10073800675100016359D8A012D00001645100012B
:10074800605F000165510001615B000166510001B5
:10075800625B000167510001635B00016881000171
:10076800D89000016733000166330001653300014A
:10077800643300016C2FC5D768C060F069C061F0B0
:100788006AC062F06BC063F0120067C060F068C0B6
:1007980061F0000E0001636F0A0E0001626F06EC43
:1007A80004F000016051446E67C060F068C061F0F9
:1007B800000E0001636F0A0E0001626FA8EC04F0DE
:1007C80000016051426E69C060F06AC061F0000EBD
:1007D8000001636F0A0E0001626F06EC04F000016D
:1007E8006051456E69C060F06AC061F0000E00019A
:1007F800636F0A0E0001626FA8EC04F000016051FB
:10080800466E1200000E0001666F000E0001656F53
:10081800000163516211D8B42CD0010E0001646F3D
:1008280006D00001D890623763370001642B0001BD
:1008380063AFF7D70001D89065376637000162517A
:100848000001605D0001635100016159D8A00AD020
:10085800000162510001605F000163510001615BAA
:10086800000165810001D890633362330001642F71
:10087800E1D765C060F066C061F012000600EACFFB
:1008880019F0E1CF1AF0E2CF1BF0D9CF1CF0DACF84
:100898001DF0F3CF1EF0F4CF1FF0F6CF20F0F7CF06
:1008A80021F0F8CF22F0F5CF23F0F2B2F29223C074
:1008B800F5FF22C0F8FF21C0F7FF20C0F6FF1FC0D8
:1008C800F4FF1EC0F3FF1DC0DAFF1CC0D9FF1BC018
:1008D800E2FF1AC0E1FF19C0EAFF18C0E9FF17C01C
:1008E800FBFF16C0FAFF11000001826B816B806B61
:1008F8007F6B00EE24F0200EEE6AE806FDE16C0E38
:10090800F66E0A0EF76E000EF86E00EE75F010EE39
:100918000AF00900F5CFEEFFE550E150FAE1760E56
:10092800F66E0A0EF76E000EF86E00EE44F010EE4A
:1009380004F00900F5CFEEFFE550E150FAE1000EB2
:10094800F86E00015CEF00F0000163516211D8B449
:1009580026D0010E0001646F06D00001D8906237DE
:1009680063370001642B000163AFF7D700016251C0
:100978000001605D0001635100016159D8A008D0F1
:10098800000162510001605F000163510001615B79
:100998000001D890633362330001642FE7D760C049
:1009A80060F061C061F012000001626F0D0EC16E4F
:1009B800A50EC06E0DD00D0EC16EA50EC06E010E37
:1009C80005D00D0EC16EA50EC06E050EC26E08D004
:1009D80000016251000AD8B4EED7010AD8B4F1D7A1
:1009E800C282C2B2FED7C3CF60F0C4CF61F012009A
:1009F8000001635100016503F3CF67F0F4CF68F09D
:100A08000001635100016603F350000168270001EB
:100A1800645100016503F3500001682767C063F063
:100A280068C064F012000001616F0D0E0001606F74
:100A3800FC0EE82EFED7602FFCD70001612FF5D7FA
:100A480012009492070ECA6E0F0EBA6E67C0BBFFF3
:100A5800640ECB6E120000016251040DF35017ECC6
:100A680005F01200C0F9A4B0999282D880900103D1
:020A7800040375
:020000040020DA
:08000000FFFFFFFFFFFFFFFF00
:020000040030CA
:0E000000000C1F1EFF8181FF0FC00FE00F409C
:00000001FF
