:020000040000FA
:060000004DEF31F012008B
:020006001200E6
:0600080093EF16F0120058
:02000E001200DE
:02001000FEFFF1
:06001800E0EF16F01200FB
:02001E000300DD
:1000200028630000600000003D0000001563000030
:10003000D50000001300000010000000F2000000D6
:0400400002000000BA
:0C004400D9CFE6FFE1CFD9FF020EE12684
:10005000DF6A010EDB6ADF6A080EDF5C2CE28D903E
:10006000180EE66E77EC31F0E552FE0EDB50800B99
:1000700002E0010E01D0000EE8B08D82E8A08D9262
:10008000FE0EDB50020DFE0EF3CFDBFF8D80180E4F
:10009000E66E77EC31F0E5528450040B01E0010E7E
:1000A000146E010EDB50E8241424E76E010EE7CF36
:1000B000DBFFDF2AD1D7010EDB50146E020EE15CAC
:1000C00002E2E16AE552E16E1450E552E7CFD9FF52
:1000D0001200D9CFE6FFE1CFD9FF899AFE0EDB509F
:1000E0007F0BE66EAFDFE552FD0EDBCFE6FFAADF4A
:1000F000E552898AE552E7CFD9FF1200D9CFE6FF52
:10010000E1CFD9FFE652899AFE0EDB507F0BE66EF7
:1001100099DFE552DF6AFD0EDB50DF5C12E2DF5053
:10012000E76EFB0EDBCFE9FFFC0EDBCFEAFFE7500B
:10013000E926000EEA22EF50E66E84DFE552DF2A60
:10014000EAD7898AE552E552E7CFD9FF1200D9CF25
:10015000E6FFE1CFD9FFE652899AFE0EDB50800917
:10016000E66E70DFE552E66A6DDFE552DF6E898A82
:10017000DF50E552E552E7CFD9FF1200D9CFE6FFB5
:10018000E1CFD9FFE652FD0EDB5039E0DF6A899AF4
:10019000FE0EDB508009E66E55DFE552DF6AFD0E8C
:1001A000DB04DF5C18E2FE0EDB508009E66E4ADFFE
:1001B000E552E66EDF50E76EFB0EDBCFE9FFFC0E8B
:1001C000DBCFEAFFE750E926000EEA22E552E750CE
:1001D000EF6EDF2AE4D7E66A35DFE552E66EDF50E0
:1001E000E76EFB0EDBCFE9FFFC0EDBCFEAFFE7504B
:1001F000E926000EEA22E552E750EF6E898AE552C1
:10020000E552E7CFD9FF1200D9CFE6FFE1CFD9FF02
:10021000E652FE0EDBCFE6FF9ADFE552DF6EFD0E03
:10022000DB50DF10E66EFE0EDBCFE6FF52DFE5525D
:10023000E552E552E552E7CFD9FF1200D9CFE6FFEC
:10024000E1CFD9FFE652FE0EDBCFE6FF80DFE552BD
:10025000DF6EFD0EDB1CDF14E66EFE0EDBCFE6FF6D
:1002600038DFE552E552E552E552E7CFD9FF1200FB
:10027000D9CFE6FFE1CFD9FF030EE126E66A020EF1
:10028000E66E27DFE552E552040EE66E0A0EE66ED4
:1002900020DFE552E552800EE66E140EE66E19DFA1
:1002A000E552E552FD0EDBCFE6FFFE0EDBCFE6FFAB
:1002B000FC0EDBCFE6FF120EE66E20DFE552E552C4
:1002C000E552E552030EE66E020EE66E02DFE552DF
:1002D000E552880EDE6E130EDD6ED9CFE9FFDACF60
:1002E000EAFF000ED880EE54000EED5438E20A0EFC
:1002F000E66E2DDFE552E76E020EE7CFDBFFDBA4F3
:1003000029D0E66AE66EE5DEE552E552440EE66E79
:100310001EDFE552E66EFA0EDBCFE9FFFB0EDBCF08
:10032000EAFFE552E750EF6E420EE66E10DFE5524F
:10033000E66E010EE76EFA0EDBCFE9FFFB0EDBCFB8
:10034000EAFFE750E926000EEA22E552E750EF6E99
:10035000000E06D0DF06010EC0E2DB06BED7030E9C
:10036000146E030EE15C02E2E16AE552E16E1450A4
:10037000E552E7CFD9FF12008A9AF00EE66E2DEC17
:1003800031F0E552F00EE66E2DEC31F0E552780ECC
:10039000E66E2DEC31F0E5528A8A898A3FD8E66A0A
:1003A000240EE66E96DEE552E552E66A260EE66E0D
:1003B00090DEE552E552260EE66E480EE66E89DEC8
:1003C000E552E552800EE66E540EE66E82DEE55290
:1003D000E552A90EE66E560EE66E7BDEE552E5525C
:1003E000030EE66E580EE66E74DEE552E552E80E38
:1003F000E66E5A0EE66E6DDEE552E552400EE66E92
:100400002A0EE66E66DEE552E5523D0EE66E220EDF
:10041000E66E5FDEE552E5522BEF02F00F0EE66E60
:10042000020EE66E56DEE552E552F00EE66E2DEC5B
:1004300031F0E552F00EE66E2DEC31F0E552780E1B
:10044000E66E2DEC31F0E552020EE66E80DEE552EE
:10045000100BFAE11200D9CFE6FFE1CFD9FFE65247
:10046000280EE66E74DEE552DF6E030EDF1403081D
:1004700008E0030EDF10E66E280EE66E2ADEE55277
:10048000E552E552E552E7CFD9FF1200030EE66EC2
:10049000280EE66ED3DEE552E55212004C0EE66EF3
:1004A00056DEE552700B1200D9CFE6FFE1CFD9FF3F
:1004B000F5DF146EFE0EDB50145C10E0700EE66E7D
:1004C0004C0EE66EBBDEE552E552FE0EDB50700BC5
:1004D000E66E4C0EE66E98DEE552E552E552E7CF49
:1004E000D9FF1200D9CFE6FFE1CFD9FFE652300E97
:1004F000DF6EF40EDBCFE6FFF50EDBCFE6FFF60E88
:10050000DBCFE6FFF70EDBCFE6FFF80EDBCFE6FF33
:10051000F90EDBCFE6FFFA0EDBCFE6FFFB0EDBCFFB
:10052000E6FFFC0EDBCFE6FFFD0EDBCFE6FFFE0EA7
:10053000DBCFE6FFDFCFE6FF0C0EE66E09D8146EC8
:100540000D0EE15E1450E552E552E7CFD9FF1200DF
:10055000D9CFE6FFE1CFD9FF0B0EE126030EDB6A10
:10056000D950F40FE96EFF0EDA20EA6EEE50ED106E
:1005700008E0F40EDBCFE9FFF50EDBCFEAFFEF502A
:1005800001D0000EE76E080EE7CFDBFFDBCFE6FF02
:10059000F30EDB38F00BE552E724E76E090EE7CFE8
:1005A000DBFFE66A020EE66E94DDE552E5527F0E51
:1005B000E66E080EE66E8DDDE552E552800EE66EC3
:1005C000140EE66E86DDE552E552FB0EDBCFE6FF4C
:1005D000FC0EDBCFE6FFFA0EDBCFE6FF120EE66E77
:1005E0008DDDE552E552E552E552090EDBCFE6FF1F
:1005F0001A0EE66E6EDDE552E552FE0EDBCFE6FF2B
:10060000020EE66E66DDE552E552FE0EDB500C088A
:1006100007E1800EE66E1A0EE66EF6DDE552E55253
:10062000D00EDE6E070EDD6ED9CFE9FFDACFEAFF1E
:10063000000ED880EE54000EED5418E2080EE66E5F
:1006400086DDE552E76E0A0EE7CFDBFFFD0EDBCF5E
:10065000E6FF0A0EDB50E552E71408E10A0EDBB0B4
:100660000CD0DF06010EE0E2DB06DED7D9CFE9FFD2
:10067000DACFEAFFEE50ED1002E1030EF8D00C0ED7
:10068000E66E65DDE552E76E020EE7CFDBFFDB507D
:10069000130B02E0010EEBD0D950F80FE96EFF0EFC
:1006A000DA20EA6EEE50ED1056E0D950F60FE96E02
:1006B000FF0EDA20EA6EEE50ED104DE0140EE66EFD
:1006C00046DDE552E76E040EE7CFDBFFDBCF14F02B
:1006D000F60EDBCFE9FFF70EDBCFEAFFEF50D88055
:1006E000145402E2040EC3D0F60EDBCFE9FFF70E7E
:1006F000DBCFEAFF040EDBCFEFFFF30EDBCFE6FF2D
:10070000F80EDBCFE6FFF90EDBCFE6FF040EDBCF02
:10071000E6FF120EE66E32DD146E050EE15E145039
:10072000180EE66E14DDE552070BE76E030EE7CFF9
:10073000DBFFD950F40FE96EFF0EDA20EA6EEE50BF
:10074000ED1009E0F40EDBCFE9FFF50EDBCFEAFF99
:10075000030EDBCFEFFF020EDBB689D0D950F80FC6
:10076000E96EFF0EDA20EA6EEE50ED1001E17ED068
:10077000D950F60FE96EFF0EDA20EA6EEE50ED105A
:1007800075E0F20EDB5072E0F60EDBCFE9FFF70EFC
:10079000DBCFEAFFEF0406E1030EDB50040802E1C1
:1007A000FF0E65D0F60EDBCFE9FFF70EDBCFEAFFD9
:1007B000EFCF14F0020E145C57E3030EDB5054E14C
:1007C000D950060FE66E000EDA20E66EF60EDBCF8D
:1007D000E9FFF70EDBCFEAFFEF50FE0FE66EF80EF3
:1007E000DBCFE6FFF90EDBCFE6FF42DD146E050E30
:1007F000E15E1450E76E050EE7CFDBFFDB5003E050
:10080000050EDB5034D0F60EDBCFE9FFF70EDBCF61
:10081000EAFFEF50FE0FE76EF80EDBCFE9FFF90EAF
:10082000DBCFEAFFE750E926000EEA22EFCF14F013
:10083000060EDB50145C18E1F60EDBCFE9FFF70E75
:10084000DBCFEAFFEF04E76EF80EDBCFE9FFF90E2E
:10085000DBCFEAFFE750E926000EEA22EFCF15F0E2
:10086000070EDB50155C02E0070E01D0000E146E7F
:100870000B0EE15C02E2E16AE552E16E1450E552D2
:10088000E7CFD9FF1200D9CFE6FFE1CFD9FFFB0EAA
:10089000DBCFE6FFFC0EDBCFE6FFFD0EDBCFE6FF96
:1008A000FE0EDBCFE6FF260EE66E23D8146E050E95
:1008B000E15E1450E552E7CFD9FF1200D9CFE6FF31
:1008C000E1CFD9FFFB0EDBCFE6FFFC0EDBCFE6FF6F
:1008D000FD0EDBCFE6FFFE0EDBCFE6FF520EE66E2F
:1008E00008D8146E050EE15E1450E552E7CFD9FF2B
:1008F0001200D9CFE6FFE1CFD9FF020EE126D95091
:10090000FC0FE96EFF0EDA20EA6EEE50ED100BE000
:10091000FA0EDBCFE9FFFB0EDBCFEAFFEFCF14F0DF
:10092000020E145C02E2040E3FD0800EE66E1C0E36
:10093000E66E84DCE552E552070EDF6EE66AE66A93
:10094000D9CFE6FFDACFE6FFFA0EDBCFE6FFFB0EEC
:10095000DBCFE6FFFC0EDBCFE6FFFD0EDBCFE6FFD5
:10096000010EE66ED950FE0FE66EFF0EDA20E66E3F
:10097000B9DD146E0B0EE15E1450E76E010EE7CF89
:10098000DBFFDB5003E0010EDB500ED0FA0EDBCFB5
:10099000E9FFFB0EDBCFEAFFEF50020802E1DF5078
:1009A00002E0010E01D0000E146E020EE15C02E2C4
:1009B000E16AE552E16E1450E552E7CFD9FF12002B
:1009C000D9CFE6FFE1CFD9FF1C0EE126010EF36E71
:1009D000030EF3CFDBFFFC0EDB50500802E2060EE5
:1009E0003DD3800EE66E1C0EE66E28DCE552E55225
:1009F000DF6ADF5001E023D3030EDB50030A38E047
:100A0000010A18E0030A01E0FFD1930EF36E090E0C
:100A1000F3CFDBFF070EDB6AFC0EDB5021E0FD0E9F
:100A2000DBCFE9FFFE0EDBCFEAFFEF50040818E250
:100A3000010E19D0950EF36E090EF3CFDBFF030EF6
:100A4000F36E070EF3CFDBFFFC0EDB5009E0FD0E6B
:100A5000DBCFE9FFFE0EDBCFEAFFEF50070802E332
:100A6000000E01D0010EE76E020EE7CFDBFF0CD0C7
:100A7000970EF36E090EF3CFDBFF060EF36E070E33
:100A8000F3CFDBFF020EDB6AFC0EDBCFE6FF070EC7
:100A9000DB50080DF350E552E75CE76E080EE7CF38
:100AA000DBFFDBCF14F0143402E3080EDB6A020E26
:100AB000F36E060EF3CFDBFF020EDB5012E0D950CF
:100AC000090F146EDACF15F0060EDBCFF3FFDB2A29
:100AD000F3500F011424E96E000EDA20EA6E880E3E
:100AE000EF6E080EDBCF16F016C009F00E6E1FEC8D
:100AF0002EF0055002E0010E01D0000E156E080E1A
:100B0000146E0E6EDBCF09F01FEC2EF00950152489
:100B1000E76E180EE7CFDBFFDB5052E0020EDB5032
:100B200002E0030E01D0040EE76E1B0EE7CFDBFFE1
:100B3000180EDBCF14F01B0EDB50D880145406E2E5
:100B40001B0EDB50E76E180EE7CFDBFF050EDB6AEE
:100B5000180EDB50F36E050EDBCFF4FFF350F45CA0
:100B60002FE2FD0EDBCFE9FFFE0EDBCFEAFFEE52F8
:100B7000E9CF16F0EACF17F0050EDBCFE6FF070E40
:100B8000DB50E552E7240F01E924E96E000EEA206C
:100B9000EA6EEF50E66ED950090F146EDACF15F0F9
:100BA000060EDBCFF3FFDB2AF3501424E96E000EB0
:100BB000DA20EA6EE552E750EF6E050EDB2AC8D761
:100BC000020EDB5009E0080E146EDBCFE7FFE850A1
:100BD000E726080EE7CFDBFF010EDB6A010EDB50D4
:100BE00001E06DD1080EDBCF14F0200EE76E141873
:100BF000E8AE02D0E73402D0E750145C4DE3700E4B
:100C0000F36E0A0EF3CFDBFF0E0EDBCFE6FF0D0E09
:100C1000DBCFE6FF0C0EDBCFE6FF0B0EDB50E55221
:100C2000E718E552E718E552E718E76E0F0EE7CF31
:100C3000DBFFD950100FE66E000EDA20E66E070ECD
:100C4000E66ED950090FE66E000EDA20E66E38EC3B
:100C500001F0146E050EE15E1450E76E040EE7CF4E
:100C6000DBFFDB5001E09ED1140EDB6A090EF36E50
:100C7000120EF3CFDBFFD9500F0F146EDACF15F041
:100C8000150E14C0DBFF160EDACFDBFF030EF36E7A
:100C9000170EF3CFDBFF55D0080EDBCF14F014C0D6
:100CA00009F00E6E1FEC2EF0140E05C0DBFF080ECF
:100CB000146E0E6EDBCF09F01FEC2EF0050E09C08E
:100CC000DBFFDB50020FE76E060EE7CFDBFF140EF3
:100CD000DBCFE6FF060EDB38F00BE552E724E76ECC
:100CE0000A0EE7CFDBFF060EDBCFE6FF140EDB506C
:100CF00002E0010E01D0000EE552E724E76E120E6D
:100D0000E7CFDBFFD950090F166EDACF17F0060ECA
:100D1000DB5000011624146E000EDA20156E150E3D
:100D200014C0DBFF160E15C0DBFF060EDB50146E81
:100D3000156A090ED8801456000E1556170E14C0E9
:100D4000DBFF140EDB50E76E130EE7CFDBFF140E54
:100D5000DBCFE6FF130EDB38F00BE552E724E66E3F
:100D60001A0EE66E69EC00F0E552E552E66A130EE3
:100D7000DBCFE6FFD950140FE66E000EDA20E66EE8
:100D8000D950170FE66E000EDA20E66E150EDBCF97
:100D9000E6FF160EDBCFE6FF120EDBCFE6FFD950E3
:100DA000090FE66E000EDA20E66E72EC02F0146EA9
:100DB0000B0EE15E1450E76E040EE7CFDBFFDB5055
:100DC000020862E11C0EE66EA7EC00F0E552E76E49
:100DD000190EE7CFDBFFDBAA02D0020E3FD1DB50BA
:100DE0001F0BE76E1A0EE7CFDBFFDB5005E1200E8D
:100DF000F36E1A0EF3CFDBFF1A0EDBCF14F0080EE2
:100E0000DB50D880145402E3050E28D11A0EDB50B3
:100E1000E76E080EE7CFDBFFDB04146E096E080EE9
:100E20000E6E1FEC2EF0050E05C0DBFFDB5002E05E
:100E3000010E01D0000E156E080E146E0E6EDBCF83
:100E400009F01FEC2EF009281524E76E060EE7CFF7
:100E5000DBFF010EF36E050EDB5004E0D890F33695
:100E6000E806FCE1F350166ED950090F146EDACF84
:100E700015F0060EDB500F011424E96E000EDA2087
:100E8000EA6EF350EF12AAD6040EDB5001E08AD0CE
:100E9000080EDBCF14F0200EE76E1418E8AE02D077
:100EA000E73402D0E750145C04E3DE52010EDD6E3D
:100EB00095D6200EF36E080EF3CFDBFF8FD60B0E08
:100EC000DB50880802E1030E01D0020EE76E060E29
:100ED000E7CFDBFF0B0EDB50880802E1030E01D0E9
:100EE000040EE76E180EE7CFDBFF050EDB6A180E67
:100EF000DB50F36E050EDBCFF4FFF350F45C2FE212
:100F0000D950090F166EDACF17F0060EDBCFF3FFBC
:100F1000DB2AF3500F011624E96E000EDA20EA6E88
:100F2000EF50E66EFD0EDBCFE9FFFE0EDBCFEAFFF2
:100F3000EE52E9CF14F0EACF15F0050EDBCFE6FF55
:100F4000070EDB50E552E724E924E96E000EEA20A3
:100F5000EA6EE552E750EF6E050EDB2AC8D7170E92
:100F6000DB50030803E1140EDB5002E0010E76D0E3
:100F7000D9500B0FE66E000EDA20E66E010EE66E1B
:100F8000150EDBCFE6FF160EDBCFE6FF38EC01F0E7
:100F9000146E050EE15E1450E76E040EE7CFDBFF22
:100FA000DB5003E0040EDB5059D0010EE76E150E46
:100FB000DBCFE9FF160EDBCFEAFFE750E926000E94
:100FC000EA22EF50F36E0B0EDB50F35C12E1020EDF
:100FD000E76E150EDBCFE9FF160EDBCFEAFFE75019
:100FE000E926000EEA22EF50F36E0C0EDB50F35CA4
:100FF00002E0070E33D0150EDBCFE9FF160EDBCF74
:10100000EAFFEF50040B03E0030EDB2AF2D4010EDB
:10101000DF6E150EDBCFE9FF160EDBCFEAFFEF50D8
:10102000E66EFD0EDBCFE9FFFE0EDBCFEAFF0B0E17
:10103000E926000EEA22E552E750EF6EDAD4030EFD
:10104000DB50030DF328E66EFD0EDBCFE9FFFE0E4D
:10105000DBCFEAFFE552E750EF6E000E146E1C0E78
:10106000E15C02E2E16AE552E16E1450E552E7CF3D
:10107000D9FF1200D9CFE6FFE1CFD9FF050EE12657
:10108000DE52500EDD6E020EDB6AD950030FE66EA3
:10109000000EDA20E66E020EE66ED950010FE66E03
:1010A000000EDA20E66E38EC01F0146E050EE15EFB
:1010B0001450DF6EDF5002E0DF5022D0E66AE66AAD
:1010C000000EE66EE66AE66EE66AE66EE66A040E14
:1010D000E66ED950010FE66E000EDA20E66E72EC75
:1010E00002F0146E0B0EE15E1450DF6E030EDF5C37
:1010F00002E1000E05D0DF5002E1010E01D0DF5009
:10110000146E050EE15C02E2E16AE552E16E1450F4
:10111000E552E7CFD9FF1200D9CFE6FFE1CFD9FFE3
:101120000E0EE126100EDF6EFE0EDB50E76E020E95
:10113000E7CFDBFFFD0EDB50E76E030EE7CFDBFFF3
:10114000010EDB6A060EF36E010EDBCFF4FFF350E7
:10115000F45C27E2FB0EDBCFE9FFFC0EDBCFEAFFFE
:10116000E9CF16F0EACF17F0010EDB500F01E924AA
:10117000E96E000EEA20EA6EEF50E66ED950020FDB
:10118000146EDACF15F0010EDB50020F1424E96E55
:10119000000EDA20EA6EE552E750EF6E010EDB2A10
:1011A000D1D7010EDB6A040EF36E010EDBCFF4FF24
:1011B000F350F45C33E2F90EDBCFE9FFFA0EDBCF3C
:1011C000EAFFEE52E9CF16F0EACF17F0010EDBCFBF
:1011D000E6FFF90EDBCFE9FFFA0EDBCFEAFFEF50B7
:1011E000E552E724FC0F0F011624E96E000E1720CC
:1011F000EA6EEF50E66ED950020F146EDACF15F09A
:10120000010EDB50080F1424E96E000EDA20EA6E9E
:10121000E552E750EF6E010EDB2AC5D7E66AE66AB3
:10122000000EE66EE66AE66EE66AE66EE66A0C0EAA
:10123000E66ED950020FE66E000EDA20E66EDFCFC2
:10124000E6FF0E0EE66EA8EC02F0146E0D0EE15EE7
:101250001450146E0E0EE15C02E2E16AE552E16E9A
:101260001450E552E7CFD9FF1200080EE66E100EBB
:10127000E66E1EEC01F0E552E5521200D9CFE6FF12
:10128000E1CFD9FFE652D950FC0FE96EFF0EDA200C
:10129000EA6EEE50ED100BE0FA0EDBCFE9FFFB0E2D
:1012A000DBCFEAFFEFCF14F0120E145C02E2040E63
:1012B0005AD0FC0EDBCFE9FFFD0EDBCFEAFF300E8C
:1012C000EF6E010EE76EFC0EDBCFE9FFFD0EDBCF0C
:1012D000EAFFE750E926000EEA22FE0EDBCFEFFF21
:1012E000020EE76EFC0EDBCF14F0FD0EDBCF15F027
:1012F000E7501426000E152214C0E6FF15C0E6FFC5
:10130000020EE66EFC0EDBCFE6FFFD0EDBCFE6FF46
:1013100038EC01F0166E050EE15E1650DF6EDF5000
:1013200002E0DF5020D0010EE66EE66A000EE66EA7
:10133000E66AFA0EDBCFE6FFFB0EDBCFE6FFFC0E24
:10134000DBCFE6FFFD0EDBCFE6FF040EE66EFC0E04
:10135000DBCFE6FFFD0EDBCFE6FF72EC02F0146E92
:101360000B0EE15E1450E552E552E7CFD9FF1200B3
:10137000D9CFE6FFE1CFD9FF050EE126D950FC0F0A
:10138000E96EFF0EDA20EA6EEE50ED1008E0100E66
:10139000F36EFB0EDBCFF4FFF350F45C02E2060EBB
:1013A00041D0DE52A00EDD6EFE0EDB50E76E020E67
:1013B000E7CFDBFFE66AE66ED950010FE66E000E5E
:1013C000DA20E66E43DBE552E552E552E552DF6E88
:1013D000DF5004E0780E146E580E15D0E66AFB0E4E
:1013E000DBCFE6FFFC0EDBCFE6FFFD0EDBCFE6FF3B
:1013F0002DDBE552E552E552E552DF6EDF5011E09C
:101400005C0E146E580E156E166A14C0E6FFE66E7A
:1014100016C0E6FF57EC2FF0E552E552E552DF50DB
:1014200001D0000E146E050EE15C02E2E16AE552A5
:10143000E16E1450E552E7CFD9FF1200D9CFE6FF95
:10144000E1CFD9FF070EE126D950FC0FE96EFF0E60
:10145000DA20EA6EEE50ED1008E0040EF36EFB0E9B
:10146000DBCFF4FFF350F45C02E2060E32D0DE5222
:10147000A20EDD6EFE0EDB50E76E020EE7CFDBFF45
:10148000040EE66EE66AFC0EDBCFE6FFFD0EDBCF58
:10149000E6FFD950030FE66E000EDA20E66EAAECE6
:1014A0002EF0146E060EE15E1450E66A060EE66E2D
:1014B000D950010FE66E000EDA20E66EC7DAE5526B
:1014C000E552E552E552DF6EDF5002E0DF5001D019
:1014D000000E146E070EE15C02E2E16AE552E16E75
:1014E0001450E552E7CFD9FF1200D9CFE6FFE1CF84
:1014F000D9FFE150FA0FE96EFF0EDA20EA6EEECF67
:10150000E6FFEECFE6FFEECFE6FFEFCFE6FFFE0E03
:10151000DBCFE6FFC00EE66E3ED8146E060EE15E2F
:101520001450E552E7CFD9FF1200D9CFE6FFE1CF43
:10153000D9FFE150FA0FE96EFF0EDA20EA6EEECF26
:10154000E6FFEECFE6FFEECFE6FFEFCFE6FFFE0EC3
:10155000DBCFE6FFC10EE66E1ED8146E060EE15E0E
:101560001450E552E7CFD9FF1200D9CFE6FFE1CF03
:10157000D9FFE66AE66AE66AE66AFE0EDBCFE6FFB8
:10158000C20EE66E08D8146E060EE15E1450E552E7
:10159000E7CFD9FF1200D9CFE6FFE1CFD9FF030E85
:1015A000E126FE0EDB50E76E010EE7CFDBFFFD0EFE
:1015B000DB50E76E020EE7CFDBFFE66AE66ED9503E
:1015C000010FE66E000EDA20E66E40DAE552E552D3
:1015D000E552E552DF6EDF5012E1010EE66E040EB9
:1015E000E66ED950F90FE66EFF0EDA20E66E2EDABF
:1015F000E552E552E552E552DF6EDF5002E0DF5082
:1016000001D0000E146E030EE15C02E2E16AE552C5
:10161000E16E1450E552E7CFD9FF1200D9CFE6FFB3
:10162000E1CFD9FF030EE126DE52B00EDD6EFE0ED5
:10163000DB50E76E020EE7CFDBFFE66AE66ED950BD
:10164000010FE66E000EDA20E66E00DAE552E55292
:10165000E552E552DF6EDF5002E0DF5001D0000EB0
:10166000146E030EE15C02E2E16AE552E16E145091
:10167000E552E7CFD9FF1200D9CFE6FFE1CFD9FF7E
:10168000140EE126120EF36E130EF3CFDBFFD950CA
:10169000130FE66E000EDA20E66ED950010FE66EEB
:1016A000000EDA20E66EFE0EDBCFE6FFE7DD146EFD
:1016B000050EE15E1450DF6EDF505CE1040EDBCFFF
:1016C00014F0156A166A176A180E1F0B07E0D890F7
:1016D0001436153616361736E806F9E1030EDBCF59
:1016E00018F0196A1A6A1B6A100E1F0B07E0D890CF
:1016F000183619361A361B36E806F9E11850141256
:10170000195015121A5016121B501712020EDBCF69
:101710001CF01D6A1E6A1F6A080E1F0B07E0D89096
:101720001C361D361E361F36E806F9E11C50141211
:101730001D5015121E5016121F501712010EDBCF2E
:1017400020F0216A226A236A2050141221501512B7
:101750002250161223501712FC0EDBCFE9FFFD0EAC
:10176000DBCFEAFF14C0EEFF15C0EEFF16C0EEFFA0
:1017700017C0EEFFDF50146E140EE15C02E2E16A66
:10178000E552E16E1450E552E7CFD9FF1200D9CFF0
:10179000E6FFE1CFD9FF120EE126FA0EDBCF14F0FF
:1017A0001450E76E080EE7CFDBFFDB50DF6E146AE4
:1017B0001568166A176AD950FA0FE96EFF0EDA201B
:1017C000EA6EEE501416EE501516EE501616EE5048
:1017D0001716080ED8901732163215321432E80652
:1017E000F9E1090E14C0DBFF010E14C0DBFF146A1F
:1017F000156A1668176AD950FA0FE96EFF0EDA20DB
:10180000EA6EEE501416EE501516EE501616EE5007
:101810001716100ED8901732163215321432E80609
:10182000F9E10A0E14C0DBFF020E14C0DBFF146ADC
:10183000156A166A1768D950FA0FE96EFF0EDA209A
:10184000EA6EEE501416EE501516EE501616EE50C7
:101850001716180ED8901732163215321432E806C1
:10186000F9E10B0E14C0DBFF030E14C0DBFFDF1C1D
:10187000E76E040EE7CFDBFF010EDB1CE76E050E03
:10188000E7CFDBFF020EDB1CE76E060EE7CFDBFFC8
:10189000030EDB1CE76E070EE7CFDBFFFE0EDB500F
:1018A000E76E0E0EE7CFDBFFDB50E76E0C0EE7CFE7
:1018B000DBFFFE0EDB1CE76E0F0EE7CFDBFFDB501E
:1018C000E76E0D0EE7CFDBFF100EE66ED9CFE6FF19
:1018D000DACFE6FFFE0EDBCFE6FF4ADDE552E5524A
:1018E000E552E552146E120EE15C02E2E16AE55245
:1018F000E16E1450E552E7CFD9FF1200D9CFE6FFD1
:10190000E1CFD9FF170EE126300EF36E130EF3CFA1
:10191000DBFF140EDB6A050EF36E150EF3CFDBFF53
:10192000DE521B0EDD6E160EDB6A040EF36E160E13
:10193000DBCFF4FFF350F45C22E2160EDB50E76ECF
:10194000FD0EDBCFE9FFFE0EDBCFEAFFE750E92615
:10195000000EEA22EF50E66ED950010F146EDACF76
:1019600015F0160EDB280F011424E96E000EDA20A4
:10197000EA6EE552E750EF6E160EDB2AD6D7D95045
:10198000060FE66E000EDA20E66E050EE66ED95002
:10199000010FE66E000EDA20E66E38EC01F0146EF0
:1019A000050EE15E1450DF6EDF5041E1E66AE66A43
:1019B000D950140FE66E000EDA20E66ED950150FDE
:1019C000E66E000EDA20E66ED950010FE66E000ECC
:1019D000DA20E66E070EE66ED950010FE66E000EB5
:1019E000DA20E66E130EDBCFE6FF0C0EE66EA8ECF7
:1019F00002F0146E0D0EE15E1450DF6EFB0EDBCFB5
:101A0000E9FFFC0EDBCFEAFF010EDBCFEFFFE76E55
:101A1000FB0EDBCFE9FFFC0EDBCFEAFFE750E92648
:101A2000000EEA22020EDBCFEFFFDF5002E0DF50B4
:101A300001D0000E146E170EE15C02E2E16AE5527D
:101A4000E16E1450E552E7CFD9FF1200D9CFE6FF7F
:101A5000E1CFD9FF160EE126300EF36E130EF3CF51
:101A6000DBFF120EF36E140EF3CFDBFF150EDB6AF5
:101A7000D950FD0FE96EFF0EDA20EA6EEE50ED1040
:101A800004E0FC0EDB50100802E2060E87D0FC0ECC
:101A9000DBCFE6FFE66AFD0EDBCFE6FFFE0EDBCF17
:101AA000E6FFD950010FE66E000EDA20E66EAAECD2
:101AB0002EF0146E060EE15E1450D950010F166E12
:101AC000DACF17F0FC0EDB5000011624146E000E66
:101AD000DA20156E14C0E6FFE66EFC0EDBCFE6FFE3
:101AE000D950010FE66E000EDA20E66E38EC01F0F8
:101AF000186E050EE15E1850DF6EDF503DE1020EFC
:101B0000146EFC0EDBCFE7FF1450E726FC0EE7CF88
:101B1000DBFFE66AE66AD950150FE66E000EDA20A2
:101B2000E66ED950140FE66E000EDA20E66ED9503C
:101B3000010FE66E000EDA20E66EFC0EDBCFE6FF4C
:101B4000D950010FE66E000EDA20E66E130EDBCFE1
:101B5000E6FF0C0EE66EA8EC02F0146E0D0EE15ED0
:101B60001450DF6EFB0EDB5005E0030EDF5C02E17C
:101B7000000E14D0DF5002E0DF5010D0140EDB0452
:101B800004E1150EDB50040802E0010E07D0010E3F
:101B9000DB500A0802E0FF0E01D0000E146E160E94
:101BA000E15C02E2E16AE552E16E1450E552E7CFF2
:101BB000D9FF1200D9CFE6FFE1CFD9FFFE0EDB9EA1
:101BC000DB50400A22E0600A1EE0210A1AE0110AF6
:101BD00016E0010A14E0110A10E0180A0CE0100ADD
:101BE00008E0010A04E00D0A12E1FF0E11D0030E15
:101BF0000FD0040E0DD0050E0BD0060E09D0070E27
:101C000007D0090E05D0010E03D0020E01D0000E40
:101C1000E552E7CFD9FF1200D9CFE6FFE1CFD9FFD8
:101C2000FE0EDB50FF0A30E0F80A2AE0010A24E049
:101C3000030A1EE0010A18E0070A12E0010A0CE09C
:101C4000030A06E0010A24E1530E146E580E23D055
:101C50003B0E146E580E1FD0260E146E580E1BD05D
:101C60000C0E146E580E17D0F00E146E570E13D0C3
:101C7000C10E146E570E0FD0AF0E146E570E0BD050
:101C8000950E146E570E07D0730E146E570E03D0B8
:101C9000650E146E570E14C0F3FFF46EE552E7CFD5
:101CA000D9FF1200D9CFE6FFE1CFD9FFFE0EDB50FE
:101CB0003CE0FF0A36E0F60A30E0010A2AE00F0AAB
:101CC00024E0010A1EE0030A18E0010A12E0070AF4
:101CD0000CE0010A06E0030A28E1410E146E570EDB
:101CE00027D0190E146E570E23D0020E146E570E05
:101CF0001FD0F70E146E560E1BD0EC0E146E560E3F
:101D000017D0CA0E146E560E13D0BE0E146E560E99
:101D10000FD0AF0E146E560E0BD0A00E146E560ED2
:101D200007D07D0E146E560E03D0700E146E560E34
:101D300014C0F3FFF46EE552E7CFD9FF1200D9CFFC
:101D4000E6FFE1CFD9FFE6526E0EE66EA7EC00F09B
:101D5000E552DF6EDFCFE6FFE66A570E146E560ED1
:101D6000156E166A14C0E6FFE66E16C0E6FF57EC65
:101D70002FF0176E050EE15E1750DF50920A12E049
:101D8000030A0CE0010A06E0180A10E14A0E146E7C
:101D9000560E0FD0400E146E560E0BD0360E146E2B
:101DA000560E07D02C0E146E560E03D01D0E146E58
:101DB000560E156E166A14C0E6FFE66E16C0E6FFF4
:101DC00057EC2FF0E552E552E552DF5003E0FF0EED
:101DD000DF5C0FE1DA0E146E550E156E166A14C034
:101DE000E6FFE66E16C0E6FF57EC2FF0E552E5522F
:101DF000E552E552E552E7CFD9FF1200D9CFE6FF11
:101E0000E1CFD9FF080EE126FD0EDBCFE6FFFE0E87
:101E1000DBCFE6FF86D8E552E552FD0EDBCFE9FFCA
:101E2000FE0EDBCFEAFF0B0EE926000EEA22EF5092
:101E3000E66EC0DEE552E76E070EE7CFDBFFDB5054
:101E400046E0FF0A44E0FE0A3EE0090A3CE00A0AD6
:101E50003AE0050A38E00E0A36E00F0A31E0050ADA
:101E600004E0070A02E0010A32E1060EDB6AF36EC3
:101E7000DBCFF4FFE850F45C10E2D9CF14F0DACFF6
:101E800015F0060EDB500F01D924E96E000EDA20A2
:101E9000EA6EEF68060EDB2AEAD7D9CFE6FFDACF83
:101EA000E6FF070EDBCFE6FFFD0EDBCFE6FFFE0E03
:101EB000DBCFE6FFE8D8146E050EE15E145016D0B5
:101EC00045EC14F013D09E0E146E550E03D0890EFF
:101ED000146E550E156E166A14C0E6FFE66E16C037
:101EE000E6FF57EC2FF0E552E552E552860E146EF0
:101EF000550E156E166A14C0E6FFE66E16C0E6FFB4
:101F000057EC2FF0E552E552E5523AEC08F0080E96
:101F1000E15C02E2E16AE552E16EE552E7CFD9FF0A
:101F20001200D9CFE6FFE1CFD9FF020EE1267B0EEA
:101F3000146E550E156E166A14C0E6FFE66E16C0D6
:101F4000E6FF57EC2FF0E552E552E552DF6AFD0E51
:101F5000DBCFE9FFFE0EDBCFEAFFEF50DF5C27E2CD
:101F6000FD0EDBCFE9FFFE0EDBCFEAFFEE52E9CF3D
:101F700014F0EACF15F0DF500F01E924E96E000EEE
:101F8000EA20EA6EEF50E66EE66A750E166E550EA2
:101F9000176E186A16C0E6FFE66E18C0E6FF57EC2B
:101FA0002FF0196E050EE15E1950DF2AD0D7860E8C
:101FB000146E550E156E166A14C0E6FFE66E16C056
:101FC000E6FF57EC2FF0E552E552E552FD0EDBCF70
:101FD000E9FFFE0EDBCFEAFF0B0EE926000EEA2238
:101FE000EF50E66EE66A620E146E550E156E166AB6
:101FF00014C0E6FFE66E16C0E6FF57EC2FF0176E32
:10200000050EE15E1750FD0EDBCFE9FFFE0EDBCFC4
:10201000EAFF0B0EE926000EEA22EF50E66ECADD5B
:10202000E552E76E010EE7CFDBFF560E146E550E3C
:10203000156E166A14C0E6FFE66E16C0E6FF57EC92
:102040002FF0E552E552E552010EDBCFE6FF2ADE26
:10205000E552F3CF14F0F4CF15F0166AF3CFE6FF94
:10206000F4CFE6FF16C0E6FF57EC2FF0E552E5523D
:10207000E552020EE15C02E2E16AE552E16EE552F0
:10208000E7CFD9FF1200D9CFE6FFE1CFD9FF020E8B
:10209000E126DF6AFC0EDB50050A08E0010A04E0D5
:1020A000070A06E1050E03D0100E01D0280EDF6EE0
:1020B000DF502FE00C0E146E550E156E166A14C00C
:1020C000E6FFE66E16C0E6FF57EC2FF0E552E5524C
:1020D000E552DF04E76E010EE7CFDBFFDBCF14F044
:1020E000143417E2010EDBCFE6FFFA0EDBCFE6FF7A
:1020F000FB0EDBCFE6FFFD0EDBCFE6FFFE0EDBCFF8
:10210000E6FF15D8146E050EE15E1450010EDB06D5
:10211000E5D73AEC08F035EC09F0020EE15C02E29A
:10212000E16AE552E16EE552E7CFD9FF1200D9CF5F
:10213000E6FFE1CFD9FF2B0EE126200EF36EFA0E5B
:10214000DBCFF4FFF350F45C0FE2040EF36E020EEB
:10215000F3CFDBFFDBCFE6FFFA0EDB50E552E70201
:10216000010EF3CFDBFF1BD0280EF36EFA0EDBCF90
:10217000F4FFF350F45C01E37ED3100EF36E020E15
:10218000F3CFDBFFDBCFE6FFFA0EDB50E00FE552CB
:10219000E702800EF324E76E010EE7CFDBFFF36E5C
:1021A000030EF3CFDBFF0A0EDB6A020EDB04E76EE1
:1021B000250EE7CFDBFFDBCF14F0143401E35BD354
:1021C000250EDBCFE6FF010EDB50E552E724E76E7C
:1021D000240EE7CFDBFF030EDB5015E0FA0EDBCF5A
:1021E000E6FFE66A750E146E550E156E166A14C07B
:1021F000E6FFE66E16C0E6FF57EC2FF0176E050EF1
:10220000E15E17500FD0080E146E550E156E166A4B
:1022100014C0E6FFE66E16C0E6FF57EC2FF0E5525D
:10222000E552E552240EDBCFE6FFE66AFC0E146EA3
:10223000540E156E166A14C0E6FFE66E16C0E6FF71
:1022400057EC2FF0176E050EE15E1750030EDB50B2
:102250004DE0FD0EDBCFE6FFFE0EDBCFE6FFFB0E13
:10226000DBCFE6FFFC0EDBCFE6FF010EDBCFE6FFA8
:10227000600EE66E8CEC08F0146E060EE15E1450F3
:10228000DF6EDF5033E0E00E146E540E156E166AEA
:1022900014C0E6FFE66E16C0E6FF57EC2FF0E552DD
:1022A000E552E552DFCFE6FFB7DCE552F3CF14F09D
:1022B000F4CF15F0166AF3CFE6FFF4CFE6FF16C0B1
:1022C000E6FF57EC2FF0E552E552E552860E146E0C
:1022D000550E156E166A14C0E6FFE66E16C0E6FFD0
:1022E00057EC2FF0E552E552E552C5D2120EF36ECF
:1022F000110EF3CFDBFFD950110FE66E000EDA207E
:10230000E66ED950120FE66E000EDA20E66E240E4D
:10231000DBCFE6FF3EEC09F0146E050EE15E1450D3
:10232000DF6EDF5024E0C90E146E540E156E166A6F
:1023300014C0E6FFE66E16C0E6FF57EC2FF0E5523C
:10234000E552E552DFCFE6FF67DCE552F3CF14F04C
:10235000F4CF15F0166AF3CFE6FFF4CFE6FF16C010
:10236000E6FF57EC2FF0E552E552E55272D2260E09
:10237000DB6A100EF36E260EDBCFF4FFF350F45C35
:1023800027E2D950120F146EDACF15F0260EDB506B
:102390000F011424E96E000EDA20EA6EEF50E66EAB
:1023A000E66A750E166E550E176E186A16C0E6FFB1
:1023B000E66E18C0E6FF57EC2FF0196E050EE15ED1
:1023C0001950260EDB50030B0308260EDB2AD1D74B
:1023D000030EDB5001E1A3D0190EDB380F0BE76EC3
:1023E000040EE7CFDBFF1A0EDB500F0BE76E050E76
:1023F000E7CFDBFF1A0EDB380F0BE76E060EE7CFD9
:10240000DBFF180EDB500F0BE76E070EE7CFDBFF8D
:10241000180EDB380F0BE76E080EE7CFDBFF190E47
:10242000DB500F0BE76E090EE7CFDBFF070EDB1C5F
:102430000F0BF36E040EDB50F35C12E1080EDB1C95
:102440000F0BF36E050EDB50F35C0AE1090EDB1C8B
:102450000F0BF36E060EDB50F35C02E1000E01D0B1
:10246000010EE76E0A0EE7CFDBFF060EDB50010B15
:10247000156E050EDB50010BE824146E040EDB50C4
:10248000010B040DF35014101510E76E0B0EE7CF7F
:10249000DBFF060EDB50020BE8407F0B156E050ECE
:1024A000DB50020B146E040EDB50020BE8241410F8
:1024B0001510E76E0C0EE7CFDBFF060EDB50040BAA
:1024C000E840E8403F0B156E050EDB50040BE8407A
:1024D0007F0B146E040EDB50040B14101510E76E06
:1024E0000D0EE7CFDBFF060EDB50080BE840E8409F
:1024F000E8401F0B156E050EDB50080BE840E84066
:102500003F0B146E040EDB50080BE8407F0B1410D9
:102510001510E76E0E0EE7CFDBFF030EDB6A020E2F
:10252000DB5004080CE1250EDB50E76E0F0EE7CF01
:10253000DBFF010EF36E100EF3CFDBFF25D0050E8F
:10254000146E0E6E250EDBCF09F01FEC2EF00F0E71
:1025500009C0DBFFDB50030812E0250EDB28146EF8
:10256000050E156E0E6E14C009F01FEC2EF009500A
:10257000F36E0F0EDB50095C02E1000E01D0010E7C
:10258000E76E100EE7CFDBFFDB5001E1B5D0C50EE3
:10259000146E540E156E166A14C0E6FFE66E16C071
:1025A000E6FF57EC2FF0E552E552E552D9500B0FFC
:1025B000146EDACF15F00F0EDB500F011424E96E04
:1025C000000EDA20EA6EEF50E840E8403F0B010BC6
:1025D000E66EE66AC00E166E540E176E186A16C0C6
:1025E000E6FFE66E18C0E6FF57EC2FF0196E050EF9
:1025F000E15E1950BE0E146E540E156E166A14C0AC
:10260000E6FFE66E16C0E6FF57EC2FF0E552E55206
:10261000E552D9500B0F146EDACF15F00F0EDB50C8
:102620000F011424E96E000EDA20EA6EEF407F0BF2
:10263000010BE66EE66AC00E166E540E176E186A2F
:1026400016C0E6FFE66E18C0E6FF57EC2FF0196ED5
:10265000050EE15E1950BE0E146E540E156E166A0C
:1026600014C0E6FFE66E16C0E6FF57EC2FF0E55209
:10267000E552E552D9500B0F146EDACF15F00F0E5C
:10268000DB500F011424E96E000EDA20EA6EEF50E1
:10269000010BE66EE66AC00E166E540E176E186ACF
:1026A00016C0E6FFE66E18C0E6FF57EC2FF0196E75
:1026B000050EE15E1950BA0E146E540E156E166AB0
:1026C00014C0E6FFE66E16C0E6FF57EC2FF0E552A9
:1026D000E552E5520A0EDB500FE0920E146E540ED6
:1026E000156E166A14C0E6FFE66E16C0E6FF57ECDC
:1026F0002FF0E552E552E5520F0EDB50030801E1E1
:10270000A8D0D9500B0F146E0F0EDB500F011424FC
:10271000E96E000EDA20EA6EEF0410E0D9500B0FDC
:10272000166EDACF17F00F0EDB501624E96E000E8E
:10273000DA20EA6EEF50060801E08BD0150EDBCFF1
:1027400014F0156A166A176A180E1F0B07E0D89066
:102750001436153616361736E806F9E1140EDBCFB7
:1027600018F0196A1A6A1B6A100E1F0B07E0D8903E
:10277000183619361A361B36E806F9E118501412C5
:10278000195015121A5016121B501712130EDBCFC8
:102790001CF01D6A1E6A1F6A080E1F0B07E0D89006
:1027A0001C361D361E361F36E806F9E11C50141281
:1027B0001D5015121E5016121F501712120EDBCF8D
:1027C00020F0216A226A236A205014122150151227
:1027D0002250161223501712270E14C0DBFF280EAA
:1027E00015C0DBFF290E16C0DBFF2A0E17C0DBFF6A
:1027F000D950270FE96EDACFEAFFEECFE6FFEECF32
:10280000E6FFEECFE6FFEFCFE6FF840E146E540E28
:10281000156E166A14C0E6FFE66E16C0E6FF57ECAA
:102820002FF0176E070EE15E17501E0EDBCFE6FF8E
:10283000E66A780E146E540E156E166A14C0E6FF22
:10284000E66E16C0E6FF57EC2FF0176E050EE15E40
:102850001750860E146E550E156E166A14C0E6FFDC
:10286000E66E16C0E6FF57EC2FF0E552E552E55252
:10287000250EDB06A0D42B0EE15C02E2E16AE552F4
:10288000E16EE552E7CFD9FF1200D9CFE6FFE1CFE5
:10289000D9FF180EE126650E146E540E156E166AD9
:1028A00014C0E6FFE66E16C0E6FF57EC2FF0E552C7
:1028B000E552E552150EDB6A100EF36E150EDBCFF6
:1028C000F4FFF350F45C01E31FD1DE52120EDD6E13
:1028D000D950010FE66E000EDA20E66ED950020FD5
:1028E000E66E000EDA20E66E150EDBCFE6FF3EEC5C
:1028F00009F0146E050EE15E1450DF6EDF5034E017
:102900004E0E146E540E156E166A14C0E6FFE66E77
:1029100016C0E6FF57EC2FF0E552E552E552DFCF47
:10292000E6FF0CEC0EF0E552F3CF14F0F4CF15F007
:10293000166AF3CFE6FFF4CFE6FF16C0E6FF57ECCA
:102940002FF0E552E552E552860E146E550E156EC7
:10295000166A14C0E6FFE66E16C0E6FF57EC2FF0CD
:10296000E552E552E552D0D0160EDB6A040EF36E46
:10297000160EDBCFF4FFF350F45C01E3BAD0160E71
:10298000DBCFE6FF150EDB50E552E724E76E140EB1
:10299000E7CFDBFF0A0EF36E140EDBCFF4FFF3502C
:1029A000F45C04E24B0E146E540E03D0BE0E146E93
:1029B000540E156E166A14C0E6FFE66E16C0E6FFEA
:1029C00057EC2FF0E552E552E552140EDBCFE6FF4F
:1029D000E66A460E146E540E156E166A14C0E6FFB3
:1029E000E66E16C0E6FF57EC2FF0176E050EE15E9F
:1029F00017504B0E146E540E156E166A14C0E6FF77
:102A0000E66E16C0E6FF57EC2FF0E552E552E552B0
:102A1000170EDB6A040EF36E170EDBCFF4FFF350D4
:102A2000F45C55E2170EDBCFE6FF160EDB50040D0B
:102A3000F350E552E724E76E140EE7CFDBFFD950E1
:102A4000020F156EDACF16F0140EDB500F011524AD
:102A5000E96E000EDA20EA6EEFCF14F0100E145C6F
:102A600004E2430E146E540E03D0BE0E146E540EC8
:102A7000156E166A14C0E6FFE66E16C0E6FF57EC48
:102A80002FF0E552E552E552D950020F146EDACF1D
:102A900015F0140EDB500F011424E96E000EDA203D
:102AA000EA6EEF50E66EE66A400E166E540E176E32
:102AB000186A16C0E6FFE66E18C0E6FF57EC2FF066
:102AC000196E050EE15E1950170EDB2AA3D7860E8C
:102AD000146E550E156E166A14C0E6FFE66E16C02B
:102AE000E6FF57EC2FF0E552E552E552160EDB2AD1
:102AF0003DD7040E146E150EDBCFE7FF1450E7260A
:102B0000150EE7CFDBFFD8D6180EE15C02E2E16AD2
:102B1000E552E16EE552E7CFD9FF1200D9CFE6FFCB
:102B2000E1CFD9FF030EE126FC0EDB50040BE84099
:102B3000E8403F0B166EFB0EDB50040BE8407F0BAA
:102B4000156EFA0EDB50040B146EF90EDB50040BFD
:102B5000E824141015101610DF6EFC0EDB50020B6B
:102B6000E8407F0B166EFB0EDB50020B156EFA0E63
:102B7000DB50020BE824146EF90EDB50020B040D3F
:102B8000F350141015101610E76E010EE7CFDBFF9F
:102B9000FC0EDB50010B166EFB0EDB50010BE82424
:102BA000156EFA0EDB50010B040DF3CF14F0F90E85
:102BB000DB50010B080DF350141015101610E76EC2
:102BC000020EE7CFDBFFDF1C0F0B146E010EDB1CC8
:102BD0000F0B100DF3501410E66EFD0EDBCFE9FF66
:102BE000FE0EDBCFEAFFE552E750EF6E020EDB1C74
:102BF0000F0B146EDF38F00B1410E66E010EE76E4B
:102C0000FD0EDBCFE9FFFE0EDBCFEAFFE750E92642
:102C1000000EEA22E552E750EF6E010EDBCFE6FF31
:102C2000020EDB38F00BE552E710E66E020EE76E9F
:102C3000FD0EDBCFE9FFFE0EDBCFEAFFE750E92612
:102C4000000EEA22E552E750EF6E030EE15C02E26D
:102C5000E16AE552E16EE552E7CFD9FF1200D9CF24
:102C6000E6FFE1CFD9FF040EE126020EF36EDB6E24
:102C7000E66A240EE66E69EC00F0E552E552E66A7B
:102C8000260EE66E69EC00F0E552E552260EE66E81
:102C9000480EE66E69EC00F0E552E552D950020F9D
:102CA000E66E000EDA20E66ED9CFE6FFDACFE6FF59
:102CB00043EC04F0E552E552E552E552E76E030EAF
:102CC000E7CFDBFFDB5006E0030EDB50020802E03B
:102CD000000E01D0010E146E040EE15C02E2E16A06
:102CE000E552E16E1450E552E7CFD9FF1200D9CF7B
:102CF000E6FFE1CFD9FFE652E66AFD0EDBCFE6FF45
:102D0000FE0EDBCFE6FFE0EC04F0E552E552E552C3
:102D1000DF6EDF5002E0000E01D0010EE552E552F9
:062D2000E7CFD9FF12000D
:0A2D2600DACFE4FFE2CFDAFFE9CFD5
:102D3000E4FFEACFE4FFF6CFE4FFF7CFE4FFF5CFFF
:102D4000E4FFF3CFE4FFF4CFE4FFFACFE4FF00EEBB
:102D500000F0140EE80403E3EECFE4FFFBD700EE2F
:102D600014F0100EE80403E3EECFE4FFFBD7E652C5
:102D70009EAA02D0CFEC30F0E55200EE23F0100E08
:102D8000E80403E3E5CFEDFFFBD700EE13F0140EEC
:102D9000E80403E3E5CFEDFFFBD7E5CFFAFFE5CF8E
:102DA000F4FFE5CFF3FFE5CFF5FFE5CFF7FFE5CF84
:102DB000F6FFE5CFEAFFE5CFE9FFE5CFDAFF110047
:102DC000D8CFE4FFE0CFE4FFE46EDACFE4FFE2CF58
:102DD000DAFFE9CFE4FFEACFE4FFF6CFE4FFF7CF75
:102DE000E4FFF5CFE4FFF3CFE4FFF4CFE4FFFACF45
:102DF000E4FF00EE00F0140EE80403E3EECFE4FF7E
:102E0000FBD700EE14F0100EE80403E3EECFE4FF6E
:102E1000FBD7E652F294F00ED76E600ED66E21EC20
:102E20002DF00001CD2B000ECE23CF2BD023E55269
:102E300000EE23F0100EE80403E3E5CFEDFFFBD72F
:102E400000EE13F0140EE80403E3E5CFEDFFFBD72B
:102E5000E5CFFAFFE5CFF4FFE5CFF3FFE5CFF5FFD0
:102E6000E5CFF7FFE5CFF6FFE5CFEAFFE5CFE9FFD6
:102E7000E5CFDAFFE550E5CFE0FFE5CFD8FF100062
:102E8000010EE66E62EC30F0E552F3CFD1F0F4CFF4
:102E9000D2F0280EE66E2DEC31F0E552010EE66E12
:102EA00062EC30F0E552F3CFD1F0F4CFD2F0000174
:102EB000840ED880F354030EF45403E20001010E93
:102EC00023D03E0ED880D155030ED25503E2000127
:102ED000020E1AD0A80ED880D155020ED25503E2A8
:102EE0000001030E11D0580ED880D155020ED255D4
:102EF00003E20001040E08D0F40ED880D155010E73
:102F0000D25503E20001050E946F000194511200A6
:102F10000001746B756B0001B16B8B92899489868B
:102F20000A0EE66EE66AE66EE66AE66EE66AE66E49
:102F3000E66A0BEC2EF0146E080EE15E14509CDB7A
:102F400000017451751147E0450E0001B15D10E1BB
:102F50000A0EE66EE66AE66EE66AE66EE66AE66E19
:102F6000E66A0BEC2EF0146E080EE15E145033D0BE
:102F70008B928994898674C014F075C015F0640E24
:102F80000D6E0E6A74C008F075C009F005EC31F0E2
:102F900004C014F005C015F004C0E6FF05C0E6FF4C
:102FA00074C016F075C017F0640E0D6E0E6A74C012
:102FB00008F075C009F005EC31F008C016F009C042
:102FC00017F008C0E6FF09C0E6FF9DEC2DF0E552C2
:102FD000E552E552E55254DF0001D36FD46B010E88
:102FE000D31901E1D451ABE012008B928984899608
:102FF0000A0EE66EE66AE66EE66AE66EE66AE66E79
:10300000E66A0BEC2EF0146E080EE15E145000011F
:10301000746B756B0001B16B2FDB0001745175117E
:1030200047E0490E0001B15D10E10A0EE66EE66A66
:10303000E66EE66AE66EE66AE66EE66A0BEC2EF08F
:10304000146E080EE15E145033D074C014F075C0D5
:1030500015F0640E0D6E0E6A74C008F075C009F0AC
:1030600005EC31F004C014F005C015F004C0E6FF13
:1030700005C0E6FF74C016F075C017F0640E0D6E43
:103080000E6A74C008F075C009F005EC31F008C094
:1030900016F009C017F008C0E6FF09C0E6FF9DEC76
:1030A0002DF0E552E552E552E5528B9289848996DE
:1030B000E7DE0001D36FD46B020ED31901E1D451C6
:1030C000ABE012000001746B756B0001B16B000E78
:1030D000C96FCA6B0001956F966B976F986B8B9257
:1030E00089848986E66EE66AE66EE66A9DEC2DF0D6
:1030F000E552E552E552E552140EE66E2DEC31F044
:10310000E552E66A62EC30F0E552F3CF95F0F4CF89
:1031100096F0050E0D6E0E6AF3CF08F0F4CF09F0AD
:1031200005EC31F008C095F009C096F00001050EDD
:103130009603F3CF96F09503F3CF95F0F4509627CE
:10314000140EE66E2DEC31F0E552E66A62EC30F0DA
:10315000E552F3CF97F0F4CF98F0050E0D6E0E6A9E
:10316000F3CF08F0F4CF09F005EC31F008C097F088
:1031700009C098F00001050E9803F3CF98F097036B
:10318000F3CF97F0F4509827D890985104E6E80EC2
:10319000975D030E985904E3E80E976F030E986F3E
:1031A00097C014F098C015F0320E145E000E155A38
:1031B00096511518E8AE02D0153404D01450955D20
:1031C0001550965911E3320E176A9725166E9851CD
:1031D000172217509619E8AE02D0963504D09551B3
:1031E000165C965117585EE26EEC1DF097C014F015
:1031F00098C015F0320E145E000E155A000196515B
:103200001518E8AE02D0153404D01450955D155051
:10321000965911E3320E176A9725166E98511722A8
:1032200017509619E8AE02D0963504D09551165C29
:103230009651175837E2CD0E956F96690001B16B24
:10324000C96BCA6B97C014F098C015F0640E0D6E70
:103250000E6A97C008F098C009F039EC2EF004C04F
:1032600014F005C015F004C0E6FF05C0E6FF97C0E6
:1032700016F098C017F0640E0D6E0E6A97C008F035
:1032800098C009F039EC2EF008C016F009C017F00C
:1032900008C0E6FF09C0E6FF9DEC2DF0E552E552BF
:1032A000E552E552EDDD0001D36FD46B030ED31967
:1032B00001E1D45101E149D712000001746B756B33
:1032C000996B9A6B8B8289948996000EE66EE66AFA
:1032D000E66EE66A9DEC2DF0E552E552E552E552C8
:1032E000CBD900017451751140E0450E0001B15D6C
:1032F0003CE0C2D9000199517425996F9A5175210A
:103300009A6F746B756B99C014F0156E640E0D6E28
:103310000E6A99C008F015C009F005EC31F004C040
:1033200014F005C015F004C0E6FF05C0E6FF99C023
:1033300016F09AC017F0640E0D6E0E6A99C008F070
:103340009AC009F005EC31F008C016F009C017F07A
:1033500008C0E6FF09C0E6FF9DEC2DF0E552E552FE
:10336000E552E5528B828994899699C014F09AC0EF
:1033700015F0640E0D6E0E6A99C008F09AC009F03F
:1033800005EC31F004C014F005C015F004C0E6FFF0
:1033900005C0E6FF99C016F09AC017F0640E0D6ED6
:1033A0000E6A99C008F09AC009F005EC31F008C027
:1033B00016F009C017F008C0E6FF09C0E6FF9DEC53
:1033C0002DF0E552E552E552E552010EE66E62EC53
:1033D00030F0E552F3CFD1F0F4CFD2F0280EE66E04
:1033E0002DEC31F0E552010EE66E62EC30F0E55264
:1033F000F3CFD1F0F4CFD2F00001840ED880F35493
:10340000030EF45402E2010E1FD03E0ED880D155B7
:10341000030ED25502E2020E17D0A80ED880D15565
:10342000020ED25502E2030E0FD0580ED880D155AD
:10343000020ED25502E2040E07D0F40ED880D15508
:10344000010ED25504E2050E00019B6F07D0FA0E63
:10345000D15D000ED25903E200019B6B9C6B000111
:10346000040E9B1904E19C5102E1996B9A6B08DDF3
:103470000001D36FD46B040ED31901E1D45101E1E3
:103480002FD7120099C014F09AC015F0640E0D6E7B
:103490000E6A99C008F09AC009F005EC31F004C03A
:1034A00014F005C015F004C0E6FF05C0E6FF99C0A2
:1034B00016F09AC017F0640E0D6E0E6A99C008F0EF
:1034C0009AC009F005EC31F008C016F009C017F0F9
:1034D00008C0E6FF09C0E6FF9DEC2DF0E552E5527D
:1034E000E552E5520001746B756B0001B16B8B8284
:1034F00089948986CFEC20F00001B16BC1DC00011A
:10350000D36FD46B050ED31901E1D451F3E012004F
:1035100027D8B6DC0001D36FD46B010ED31903E1B9
:10352000D45101E1F5DC0001020ED31903E1D451BD
:1035300001E15BDD0001030ED31903E1D45101E188
:10354000C1DD0001040ED31903E1D45101E1B5DE60
:103550000001050ED319DDE1D451DBE193DFD9D7AA
:10356000D9CFE6FFE1CFD9FFE6520D0EC16ED30EE3
:10357000926E8968D00E936E8A68B90E946E8B68CD
:10358000956A8C68040E966E070E8D6E8B928994E8
:1035900089964D0EE66EE66A7C0EE66EA3EC2FF081
:1035A000E552E552E552880ED56EB10ED76EE00EAB
:1035B000D66EF28AF294F194D08EF28EF28CBCEC3C
:1035C00001F09FEC0EF0DF6A060EDF5C09E2DF50CF
:1035D000EA6AA90FE96E000EEA22EF68DF2AF4D743
:1035E000060E146E5A0E156E166A14C0E6FFE66ECD
:1035F00016C0E6FF57EC2FF0E552E552E552EC0E0F
:10360000146E590E156E166A14C0E6FFE66E16C0EB
:10361000E6FF57EC2FF0E552E552E552060EE66E56
:10362000A90EE66E000EE66EDFEC23F0E552E552E1
:10363000E552E90E146E590E156E166A14C0E6FFB7
:10364000E66E16C0E6FF57EC2FF0E552E552E55264
:10365000B00E146E590E156E166A14C0E6FFE66EB3
:1036600016C0E6FF57EC2FF0E552E552E552E55261
:10367000E552E7CFD9FF12002FEC16F0000901E167
:1036800012009D0EE66E000EE66E77EC16F0E55227
:10369000E552000901E11200A50E146E590E156ED7
:1036A000166A14C0E6FFE66E16C0E6FF57EC2FF070
:1036B000E552E552E5529DC0E6FF9E0EE66E000E15
:1036C000E66EDFEC23F0E552E552E552E90E146EAA
:1036D000590E156E166A14C0E6FFE66E16C0E6FFB8
:1036E00057EC2FF0E552E552E552990E146E590E43
:1036F000156E166A14C0E6FFE66E16C0E6FF57ECBC
:103700002FF0E552E552E552A8C0E6FFDAEC0DF0E5
:10371000E5520001AF6FE66E52EC0EF0E552F3CFCA
:1037200014F0F4CF15F0166AF3CFE6FFF4CFE6FFFE
:1037300016C0E6FF57EC2FF0E552E552E552E90ED0
:10374000146E590E156E166A14C0E6FFE66E16C0AA
:10375000E6FF57EC2FF0E552E552E552030E00016B
:10376000AF5D0AE0040EAF5D07E0050EAF5D04E05B
:10377000650E146E590E4CD0450E146E590E156E12
:10378000166A14C0E6FFE66E16C0E6FF57EC2FF08F
:10379000E552E552E5529D0EE66E000EE66EA90E6C
:1037A000E66E000EE66E72C0E6FF600EE66E8CEC12
:1037B00008F0146E060EE15E14500001B06F145054
:1037C00034E0290E146E590E156E166A14C0E6FF09
:1037D000E66E16C0E6FF57EC2FF0E552E552E552D3
:1037E000B0C0E6FF0CEC0EF0E552F3CF14F0F4CFCE
:1037F00015F0166AF3CFE6FFF4CFE6FF16C0E6FF3A
:1038000057EC2FF0E552E552E552E90E146E590ED1
:10381000156E166A14C0E6FFE66E16C0E6FF57EC9A
:103820002FF0E552E552E55212000F0E146E590EBC
:10383000156E166A14C0E6FFE66E16C0E6FF57EC7A
:103840002FF0E552E552E55260C0E6FFA90EE66EA4
:10385000000EE66E9D0EE66E000EE66E97EC10F022
:10386000146E050EE15E1450E90E146E590E156EBD
:10387000166A14C0E6FFE66E16C0E6FF57EC2FF09E
:10388000E552E552E55200016151E66EE66AEC0E42
:10389000146E580E156E166A14C0E6FFE66E16C05A
:1038A000E6FF57EC2FF0176E050EE15E1750730E12
:1038B000E66E000EE66EB10EE66E000EE66E61C0BC
:1038C000E6FF3EEC09F0146E050EE15E14500001B7
:1038D000B06F145033E0D50E146E580E156E166A84
:1038E00014C0E6FFE66E16C0E6FF57EC2FF0E55277
:1038F000E552E552B0C0E6FF0CEC0EF0E552F3CF16
:1039000014F0F4CF15F0166AF3CFE6FFF4CFE6FF1C
:1039100016C0E6FF57EC2FF0E552E552E552E90EEE
:10392000146E590E156E166A14C0E6FFE66E16C0C8
:10393000E6FF57EC2FF0E552E552E55200016151E8
:10394000E66EE66ABF0E146E580E156E166A14C047
:10395000E6FFE66E16C0E6FF57EC2FF0176E050E79
:10396000E15E1750100EE66EB10EE66E000EE66ECA
:10397000DFEC23F0E552E552E552BA0E146E580E14
:10398000156E166A14C0E6FFE66E16C0E6FF57EC29
:103990002FF0E552E552E552E90E146E590E156E00
:1039A000166A14C0E6FFE66E16C0E6FF57EC2FF06D
:1039B000E552E552E5520F0E146E590E156E166A59
:1039C00014C0E6FFE66E16C0E6FF57EC2FF0E55296
:1039D000E552E55260C0E6FFA90EE66E000EE66E07
:1039E0009D0EE66E000EE66E97EC10F0146E050E5E
:1039F000E15E1450E90E146E590E156E166A14C06D
:103A0000E6FFE66E16C0E6FF57EC2FF0E552E552F2
:103A1000E55287EC30F0800EE66EEEEC30F0E552C9
:103A20009BEC30F0730EE66E000EE66EB10EE66EA5
:103A3000000EE66E61C0E6FF3EEC09F0146E050E66
:103A4000E15E1450300E0001B55D0001766F776BBA
:103A5000300E0001B45D0001786F796B300E00010B
:103A6000B35D00017A6F7B6B300E0001B25D000127
:103A70007C6F7D6B0A0E086E096A78C00DF079C004
:103A80000EF05FEC2EF0000176510624166E775191
:103A90000720176E640E086E096A7AC00DF07BC0AD
:103AA0000EF05FEC2EF016500624146E175007200F
:103AB000156EE80E086E030E096E7CC00DF07DC019
:103AC0000EF05FEC2EF0145006240001746F1550B8
:103AD0000720756F3AEC08F035EF09F02FEC16F07F
:103AE000000901E112009D0EE66E000EE66E77EC15
:103AF00016F0E552E552000901E11200A50E146E20
:103B0000590E156E166A14C0E6FFE66E16C0E6FF83
:103B100057EC2FF0E552E552E5529DC0E6FF9E0EB0
:103B2000E66E000EE66EDFEC23F0E552E552E5525C
:103B3000E90E146E590E156E166A14C0E6FFE66E95
:103B400016C0E6FF57EC2FF0E552E552E552990E0C
:103B5000146E590E156E166A14C0E6FFE66E16C096
:103B6000E6FF57EC2FF0E552E552E552A8C0E6FF1C
:103B7000DAEC0DF0E5520001AF6FE66E52EC0EF09C
:103B8000E552F3CF14F0F4CF15F0166AF3CFE6FF49
:103B9000F4CFE6FF16C0E6FF57EC2FF0E552E552F2
:103BA000E552E90E146E590E156E166A14C0E6FF42
:103BB000E66E16C0E6FF57EC2FF0E552E552E552EF
:103BC000030E0001AF5D0AE0040EAF5D07E0050ED5
:103BD000AF5D04E0650E146E590E4CD0450E146EA8
:103BE000590E156E166A14C0E6FFE66E16C0E6FFA3
:103BF00057EC2FF0E552E552E5529D0EE66E000EB1
:103C0000E66EA90EE66E000EE66E72C0E6FF600E6E
:103C1000E66E8CEC08F0146E060EE15E14500001A6
:103C2000B06F145034E0290E146E590E156E166ADA
:103C300014C0E6FFE66E16C0E6FF57EC2FF0E55223
:103C4000E552E552B0C0E6FF0CEC0EF0E552F3CFC2
:103C500014F0F4CF15F0166AF3CFE6FFF4CFE6FFC9
:103C600016C0E6FF57EC2FF0E552E552E552E90E9B
:103C7000146E590E156E166A14C0E6FFE66E16C075
:103C8000E6FF57EC2FF0E552E552E55212000F0E19
:103C9000146E590E156E166A14C0E6FFE66E16C055
:103CA000E6FF57EC2FF0E552E552E55260C0E6FF23
:103CB000A90EE66E000EE66E9D0EE66E000EE66E36
:103CC00097EC10F0146E050EE15E1450E90E146EC0
:103CD000590E156E166A14C0E6FFE66E16C0E6FFB2
:103CE00057EC2FF0E552E552E55200016151E66EC6
:103CF000E66AEC0E146E580E156E166A14C0E6FFD6
:103D0000E66E16C0E6FF57EC2FF0176E050EE15E6B
:103D10001750730EE66E000EE66EB10EE66E000EE4
:103D2000E66E61C0E6FF3EEC09F0146E050EE15E42
:103D300014500001B06F145033E0D50E146E580EBD
:103D4000156E166A14C0E6FFE66E16C0E6FF57EC65
:103D50002FF0E552E552E552B0C0E6FF0CEC0EF054
:103D6000E552F3CF14F0F4CF15F0166AF3CFE6FF67
:103D7000F4CFE6FF16C0E6FF57EC2FF0E552E55210
:103D8000E552E90E146E590E156E166A14C0E6FF60
:103D9000E66E16C0E6FF57EC2FF0E552E552E5520D
:103DA00000016151E66EE66ABF0E146E580E156E84
:103DB000166A14C0E6FFE66E16C0E6FF57EC2FF059
:103DC000176E050EE15E1750100EE66EB10EE66E30
:103DD000000EE66EDFEC23F0E552E552E552BA0E36
:103DE000146E580E156E166A14C0E6FFE66E16C005
:103DF000E6FF57EC2FF0E552E552E552490E00017F
:103E0000B15D3AE1C96BCA6B0A0EE66EE66AE66E10
:103E1000E66AE66EE66AE66EE66A0BEC2EF0146E73
:103E2000080EE15E1450E66A62EC30F0E552F3CF22
:103E300095F0F4CF96F0050E0D6E0E6AF3CF08F0F4
:103E4000F4CF09F005EC31F008C095F009C096F008
:103E50000001050E9603F3CF96F09503F3CF95F08E
:103E6000F4509627D890965104E6E80E955D030E1F
:103E7000965901E285D180D1450EB15D01E082D134
:103E8000C96BCA6B300EB55D0001766F776B300E73
:103E90000001B45D0001786F796B300E0001B35DF5
:103EA00000017A6F7B6B300E0001B25D00017C6F08
:103EB0007D6B0A0E086E096A78C00DF079C00EF0AD
:103EC0005FEC2EF0000176510624166E7751072024
:103ED000176E640E086E096A7AC00DF07BC00EF092
:103EE0005FEC2EF016500624146E17500720156E46
:103EF000E80E086E030E096E7CC00DF07DC00EF05A
:103F00005FEC2EF01450062400017E6F1550072040
:103F10007F6F97517E2798517F237EC014F07FC01A
:103F200015F0640E0D6E0E6A7EC008F07FC009F0B9
:103F300039EC2EF004C014F005C015F004C0E6FF03
:103F400005C0E6FF7EC016F07FC017F0640E0D6E50
:103F50000E6A7EC008F07FC009F039EC2EF008C070
:103F600016F009C017F008C0E6FF09C0E6FF9DEC97
:103F70002DF0E552E552E552E5527EC0C5F07FC016
:103F8000C6F0640E0D6E0E6A7EC008F07FC009F0A8
:103F900039EC2EF008C0C5F009C0C6F07EC0C7F0ED
:103FA0007FC0C8F0640E0D6E0E6A7EC008F07FC040
:103FB00009F039EC2EF004C0C7F005C0C8F00001CC
:103FC000450E626FC5C0E9FFC6C0EAFF0A0E0D6E5E
:103FD0000E6AC5C008F0C6C009F039EC2EF008C062
:103FE000E9FF09C0EAFFD890E936EA36800EE926F3
:103FF000000EEA22EFCF63F0C5C0E9FFC6C0EAFFBA
:104000000A0E0D6E0E6AC5C008F0C6C009F039EC84
:104010002EF004C0E9FF05C0EAFFD890E936EA3681
:10402000800EE926000EEA22EFCF64F0C7C0E9FF58
:10403000C8C0EAFF0A0E0D6E0E6AC7C008F0C8C0FD
:1040400009F039EC2EF008C0E9FF09C0EAFFD8906A
:10405000E936EA36800EE926000EEA22EFCF65F057
:10406000C7C0E9FFC8C0EAFF0A0E0D6E0E6AC7C0DE
:1040700008F0C8C009F039EC2EF004C0E9FF05C013
:10408000EAFFD890E936EA36800EE926000EEA22E9
:10409000EFCF66F0E90E146E590E156E166A14C055
:1040A000E6FFE66E16C0E6FF57EC2FF0E552E5524C
:1040B000E5520F0E146E590E156E166A14C0E6FF07
:1040C000E66E16C0E6FF57EC2FF0E552E552E552DA
:1040D00060C0E6FFA90EE66E000EE66E9D0EE66E6F
:1040E000000EE66E97EC10F0146E050EE15E1450B3
:1040F000E90E146E590E156E166A14C0E6FFE66ED0
:1041000016C0E6FF57EC2FF0E552E552E552100ECF
:10411000E66E620EE66E000EE66E61C0E6FFB8EC7B
:1041200009F0E552E552E552E552E66A62EC30F0FC
:10413000E552F3CF95F0F4CF96F0050E0D6E0E6AB2
:10414000F3CF08F0F4CF09F005EC31F008C095F09A
:1041500009C096F00001050E9603F3CF96F0950383
:10416000F3CF95F0F4509627D890965104E6E80ED8
:10417000955D030E965904E3E80E956F030E966F56
:104180000001B16B87EC30F0800EE66EEEEC30F0A3
:10419000E5529BEC30F03AEC08F035EF09F02FECEB
:1041A00016F0000901E112009D0EE66E000EE66EAB
:1041B00077EC16F0E552E552000901E11200A50E78
:1041C000146E590E156E166A14C0E6FFE66E16C020
:1041D000E6FF57EC2FF0E552E552E5529DC0E6FFB1
:1041E0009E0EE66E000EE66EEADAE552E552E55204
:1041F000E90E146E590E156E166A14C0E6FFE66ECF
:1042000016C0E6FF57EC2FF0E552E552E552990E45
:10421000146E590E156E166A14C0E6FFE66E16C0CF
:10422000E6FF57EC2FF0E552E552E552A8C0E6FF55
:10423000DAEC0DF0E5520001AF6FE66E52EC0EF0D5
:10424000E552F3CF14F0F4CF15F0166AF3CFE6FF82
:10425000F4CFE6FF16C0E6FF57EC2FF0E552E5522B
:10426000E552E90E146E590E156E166A14C0E6FF7B
:10427000E66E16C0E6FF57EC2FF0E552E552E55228
:10428000030E0001AF5D0AE0040EAF5D07E0050E0E
:10429000AF5D04E0650E146E590E4CD0450E146EE1
:1042A000590E156E166A14C0E6FFE66E16C0E6FFDC
:1042B00057EC2FF0E552E552E5529D0EE66E000EEA
:1042C000E66EA90EE66E000EE66E72C0E6FF600EA8
:1042D000E66E8CEC08F0146E060EE15E14500001E0
:1042E000B06F145034E0290E146E590E156E166A14
:1042F00014C0E6FFE66E16C0E6FF57EC2FF0E5525D
:10430000E552E552B0C0E6FF0CEC0EF0E552F3CFFB
:1043100014F0F4CF15F0166AF3CFE6FFF4CFE6FF02
:1043200016C0E6FF57EC2FF0E552E552E552E90ED4
:10433000146E590E156E166A14C0E6FFE66E16C0AE
:10434000E6FF57EC2FF0E552E552E55212000F0E52
:10435000146E590E156E166A14C0E6FFE66E16C08E
:10436000E6FF57EC2FF0E552E552E55260C0E6FF5C
:10437000A90EE66E000EE66E9D0EE66E000EE66E6F
:1043800097EC10F0146E050EE15E1450E90E146EF9
:10439000590E156E166A14C0E6FFE66E16C0E6FFEB
:1043A00057EC2FF0E552E552E55200016151E66EFF
:1043B000E66AEC0E146E580E156E166A14C0E6FF0F
:1043C000E66E16C0E6FF57EC2FF0176E050EE15EA5
:1043D0001750730EE66E000EE66EB10EE66E000E1E
:1043E000E66E61C0E6FF3EEC09F0146E050EE15E7C
:1043F00014500001B06F145033E0D50E146E580EF7
:10440000156E166A14C0E6FFE66E16C0E6FF57EC9E
:104410002FF0E552E552E552B0C0E6FF0CEC0EF08D
:10442000E552F3CF14F0F4CF15F0166AF3CFE6FFA0
:10443000F4CFE6FF16C0E6FF57EC2FF0E552E55249
:10444000E552E90E146E590E156E166A14C0E6FF99
:10445000E66E16C0E6FF57EC2FF0E552E552E55246
:1044600000016151E66EE66ABF0E146E580E156EBD
:10447000166A14C0E6FFE66E16C0E6FF57EC2FF092
:10448000176E050EE15E1750100EE66EB10EE66E69
:10449000000EE66E94D9E552E552E552BA0E146E5E
:1044A000580E156E166A14C0E6FFE66E16C0E6FFDB
:1044B00057EC2FF0E552E552E552490E0001B15D8F
:1044C00001E170D1450EB15D01E06CD1300EB55DFA
:1044D0000001766F776B300E0001B45D0001786FDC
:1044E000796B300E0001B35D00017A6F7B6B300E8B
:1044F0000001B25D00017C6F7D6B0A0E086E096AD7
:1045000078C00DF079C00EF05FEC2EF0000176510E
:104510000624166E77510720176E640E086E096A1E
:104520007AC00DF07BC00EF05FEC2EF01650062422
:10453000146E17500720156EE80E086E030E096EF4
:104540007CC00DF07DC00EF05FEC2EF01450062400
:1045500000017E6F155007207F6F99517E5D9A5143
:104560007F5901E210D199517E5F9A517F5B7EC0E5
:1045700014F07FC015F0640E0D6E0E6A7EC008F058
:104580007FC009F039EC2EF004C014F005C015F01E
:1045900004C0E6FF05C0E6FF7EC016F07FC017F03E
:1045A000640E0D6E0E6A7EC008F07FC009F039EC13
:1045B0002EF008C016F009C017F008C0E6FF09C0C9
:1045C000E6FF9DEC2DF0E552E552E552E552000183
:1045D000996B9A6B7EC0C5F07FC0C6F0640E0D6EFD
:1045E0000E6A7EC008F07FC009F039EC2EF008C0DA
:1045F000C5F009C0C6F07EC0C7F07FC0C8F0640E29
:104600000D6E0E6A7EC008F07FC009F039EC2EF006
:1046100004C0C7F005C0C8F00001450E626FC5C0F8
:10462000E9FFC6C0EAFF0A0E0D6E0E6AC5C008F0AB
:10463000C6C009F039EC2EF008C0E9FF09C0EAFF56
:10464000D890E936EA36800EE926000EEA22EFCF4E
:1046500063F0C5C0E9FFC6C0EAFF0A0E0D6E0E6A20
:10466000C5C008F0C6C009F039EC2EF004C0E9FF5F
:1046700005C0EAFFD890E936EA36800EE926000E3A
:10468000EA22EFCF64F0C7C0E9FFC8C0EAFF0A0E14
:104690000D6E0E6AC7C008F0C8C009F039EC2EF0E4
:1046A00008C0E9FF09C0EAFFD890E936EA36800E73
:1046B000E926000EEA22EFCF65F0C7C0E9FFC8C0C7
:1046C000EAFF0A0E0D6E0E6AC7C008F0C8C009F0F6
:1046D00039EC2EF004C0E9FF05C0EAFFD890E936B6
:1046E000EA36800EE926000EEA22EFCF66F0E90EE8
:1046F000146E590E156E166A14C0E6FFE66E16C0EB
:10470000E6FF57EC2FF0E552E552E5520F0E146E1E
:10471000590E156E166A14C0E6FFE66E16C0E6FF67
:1047200057EC2FF0E552E552E55260C0E6FFA90EC6
:10473000E66E000EE66E9D0EE66E000EE66E97ECDF
:1047400010F0146E050EE15E1450E90E146E590E51
:10475000156E166A14C0E6FFE66E16C0E6FF57EC4B
:104760002FF0E552E552E552100EE66E620EE66E4F
:10477000000EE66E61C0E6FFB8EC09F0E552E552C6
:10478000E552E5520FD00A0EE66EE66AE66EE66A7C
:10479000E66EE66AE66EE66A0BEC2EF0146E080E24
:1047A000E15E145087EC30F0800EE66EEEEC30F0F7
:1047B000E5529BEC30F03AEC08F035EF09F0D9CF38
:1047C000E6FFE1CFD9FFE652DF6AFC0EDB50DF5C8B
:1047D00021E2DF50E76EFD0EDBCFE9FFFE0EDBCFFF
:1047E000EAFFE750E926000EEA22EF50E66EE66A9D
:1047F000B40E146E580E156E166A14C0E6FFE66EFF
:1048000016C0E6FF57EC2FF0176E050EE15E17504D
:0E481000DF2ADBD7E552E552E7CFD9FF1200D1
:02481E004BEC61
:1048200029F0FB0EDBCFF3FFDB06F35000090AE0B3
:1048300099EC29F0FA0E04EC2AF0F3E1151CF1E1F1
:10484000010E01D0000E7AEF29F04BEC29F03B0E5F
:10485000E12402E3E168E652E16E010EDB6A020E3A
:10486000DB6AF90EDBCFF6FFFA0EDBCFF7FFFB0EAC
:10487000DBCFF8FF0800F550DF6EDF5002E19EEF5E
:1048800028F0250EDF5C02E091EF28F0030EDB6AD2
:10489000040EDB6A050EDB6A060EDB6A070EDB6AB6
:1048A000B3EC28F02D0EDF5C0CE02B0EDF5C09E092
:1048B000200EDF5C06E0230EDF5C03E0300EDF5CE1
:1048C0001AE1DF50300A14E0130A0FE0030A0AE08D
:1048D0000B0A05E0060AE4E1030EDB80E1D7030ED4
:1048E000DB82DED7030EDB84DBD7030EDB86D8D773
:1048F000030EDB88D5D72A0EDF5C1BE1AFEC28F076
:10490000FDEC28F010E0030EDB8008680968130E48
:10491000DBCF0DF0140EDBCF0EF07DEC2EF0040E8D
:1049200006C0DBFF03D0130EE6EC28F0B3EC28F052
:104930000BD0090EDB6A54EC29F003E0C8EC29F037
:10494000FAD7090EE6EC28F0030EDBB0DB982E0E4A
:10495000DF5C1BE1B3EC28F02A0EDF5C0BE1AFEC6F
:1049600028F0FDEC28F003E1130E38EC29F0B3EC4D
:1049700028F00BD0090EDB6A54EC29F003E0C8ECF8
:1049800029F0FAD7090E38EC29F0680EDF5C07E150
:10499000B3EC28F0680EDF5C1DE1030E18D0740E36
:1049A000DF5C17E07A0EDF5C14E0480EDF5C06E0A7
:1049B000540EDF5C03E05A0EDF5C02E1020E07D00A
:1049C0006C0EDF5C03E06A0EDF5C04E1010E8BEC31
:1049D00029F0C9DBDF506E0A01E17FD31E0A01E135
:1049E00092D1200A01E18FD13F0A01E149D11A0A8F
:1049F00001E146D10D0A01E143D1200A01E140D194
:104A00003A0A01E13DD1200A01E13AD1260A01E149
:104A100035D10D0A01E132D11A0A01E1D9D0200ABB
:104A20004AE0300A1FE0460A0EE0250A01E083D37F
:104A3000D950F90FE96EFF0EDA20EA6E010EEE5E34
:104A4000000EEE5AEE5A99EC29F0250EE66E95DB33
:104A500003E1151C01E169D395EC29F001E26BD368
:104A6000DB2A69D3080EDB6A040EDB50010806E27C
:104A7000040EDB045DEC29F0DB508BDB080EDB5011
:104A800009E0030EDB50010B05E172DB01E04DD3C1
:104A9000080EDB6A64DBEFCFDFFF0DEC2AF003E1E9
:104AA000151C01E142D395EC29F001E3DB2A60DB20
:104AB00001E141D33AD3070EDB5002080FE1D9ECF4
:104AC00029F0030EA0EC29F00E0EEECFDBFF0F0E47
:104AD000EECFDBFF100EEECFDBFF20D0F70EDBCFEB
:104AE00017F0F80EDBCF18F0020E175E000E185A02
:104AF000F70E17C0DBFFF80E18C0DBFF17C0E9FF89
:104B000018C0EAFF90EC29F0166A0E0E14C0DBFF05
:104B10000F0E15C0DBFF100E16C0DBFF0E0EDBCF35
:104B2000E6FF0F0EDBCFE6FF100EDBCFE6FFE3EC78
:104B30002EF0E552E552E552130E07C0DBFF140ECE
:104B400008C0DBFF060EDB5005E0130ED4EC29F0A5
:104B500001E26ADBF8EC29F002E2130E37DBBBEC72
:104B600029F006E0040ED4EC29F002E2050E2EDB5B
:104B7000030EDBB005D0FCDA01E0D7D2080EDB6A09
:104B8000090EDB6A0E0EDBCFF6FF0F0EDBCFF7FF51
:104B9000100EDBCFF8FF0800F550DF6EDF5014E099
:104BA000FEEC29F011E20DEC2AF003E1151C01E105
:104BB000BCD2BBDB01E3DB2A090EDB2AD9500E0F86
:104BC000E96E000ECBDBE7D7D3DA01E1B4D2ADD288
:104BD000C6DA110EEECFDBFF120EEDCFDBFF110EAA
:104BE000DBCFE6FF120EDBCFE6FFD5EC2EF0E55271
:104BF000E552130EF3CFDBFF140EF4CFDBFF060EEE
:104C0000DB5004E0130ED0DB01E20EDBF8EC29F000
:104C100002E2130EDBDAAFDB05E0040EC5DB02E2D5
:104C2000050ED4DA030EDBB005D0A2DA01E07DD2A6
:104C3000080EDB6A090EDB6A110EDBCFE9FF120EEC
:104C4000DBCFEAFFEFCFDFFFDF5014E0D7DB12E26C
:104C5000E4DB03E1151C01E168D267DB01E3DB2A39
:104C6000090EDB2A110EDB2ADBCFE9FF120EE8E387
:104C7000DB2AE6D77DDA01E15ED257D2030EDB8E66
:104C8000070EDB0410E195DB040E5ADB0A0EEECFB3
:104C9000DBFF0B0EEECFDBFF0C0EEECFDBFF0D0EBE
:104CA000EECFDBFF6CD0070EDB5003082CE1030EC8
:104CB000DBAE0DD0B2DA020E76DAEFCF14F0156A61
:104CC000166A176A14AE39D01568166835D0F70E13
:104CD000DBCF15F0F80EDBCF16F0020E155E000EDE
:104CE000165AF70E15C0DBFFF80E16C0DBFF15C015
:104CF000E9FF16C0EAFFEFCF14F00A0E14C0DBFF85
:104D00000B0EDB6A38D0070EDB50020809E1030EF8
:104D1000DBAE04D059DB16AE10D00ED055DB0DD073
:104D2000030EDBAE12D079DA020E3DDAF9DA166A3A
:104D3000176A15AE02D016681768E2DA0C0E16C0B4
:104D4000DBFF0D0E17C0DBFF1AD0F70EDBCF16F01E
:104D5000F80EDBCF17F0020E165E000E175AF70E94
:104D600016C0DBFFF80E17C0DBFF16C0E9FF17C047
:104D7000EAFFD6DAC5DA0C0EDB6A0D0EDB6A060E28
:104D8000DB5005E1010EF36E050EF3CFDBFF150ED0
:104D9000DB6A160EDB6AD950370F146E000EDA206C
:104DA000156E390E14C0DBFF3A0E15C0DBFF380E4E
:104DB000DB6A080EDB6A0A0EAEDADF50780A12E010
:104DC000200A10E0280A0CE0200A0AE03F0A06E068
:104DD0000D0A02E0200A08E1020E05D0080E03D0F9
:104DE000080EDF26100E97DA030EDBBE02D0DB9230
:104DF000DB94DB50800B24E08ADAD890030EEB5072
:104E0000000A08E6000EEE5C000EEE58000EEE58AA
:104E1000000EEE5815E213DA0B680C680D680E6888
:104E20002AEC30F00A0E02C0DBFF0B0E03C0DBFFE2
:104E30000C0E04C0DBFF0D0E05C0DBFF2D0E08D0ED
:104E4000030EDBA202D02B0E03D0DBA408D0200E71
:104E5000F36E170EF3CFDBFF150EDB2A02D0170E11
:104E6000DB6A050EDB5003E1B7D901E189D0040EFE
:104E7000146E630E156E000E166E070EDBCF17F064
:104E8000186A196A1A6A17C00BF018C00CF019C01A
:104E90000DF01AC00EF0D3D9ABEC30F01450022450
:104EA000F36E15500320F46E16500420F86EF4CF04
:104EB000F7FFF3CFF6FF0800090EF5CFDBFF580E22
:104EC000DF5C0FE1610EF36E090E7BD90AE3200E61
:104ED000146E090EDBCFE7FF1450E75E090EE7CF33
:104EE000DBFF070EDBCF14F0156A166A176A0FDABC
:104EF00014C00BF015C00CF016C00DF017C00EF06A
:104F0000EECF06F0EECF07F0EECF08F0EFCF09F0CE
:104F1000ABEC30F009C0EDFF08C0EDFF07C0EDFFBE
:104F200006C0EFFF390EDBCFE9FFDB063A0EDBCF21
:104F3000EAFF01E2DB06090EDBCFEFFF150EDB2AED
:104F40004BD995E1030EDBA61DD06F0EDF5C06E1A9
:104F5000C1D918E3150EDB285BDA14D0780EDF5CBC
:104F600009E0580EDF5C06E0620EDF5C03E0420EF3
:104F7000DF5C08E1020EF36E160EF3CFDBFF02D00A
:104F8000150EDB6A030EDB50100B0EE0040EDBCFB8
:104F900014F0050EDB50D880145406E2060EDB50E8
:104FA00003E1040EDB5034DA95D90AE2050EDBCFBB
:104FB000E7FF150EDB50E75E050EE7CFDBFF02D003
:104FC000050EDB6A040EDBCF14F0160E45D9D8802F
:104FD000145414E2160EDBCFE6FF150EDBCFE6FF0E
:104FE000040EDBCFE6FF050EDB50E552E75CE55231
:104FF000D880E754E552D880E7545FD9030EDB50E0
:10500000010B0BE1080EDB5008E0B2D801E08DD0B7
:10501000080EDB50BED8080EDB6A170EDB5007E027
:1050200088D9170EF1D903E1151C01E17ED0160EC7
:10503000DB5016E07ED9300EE66E9FD802E1151CDB
:1050400074E077D9DFCFE6FFE8EC2FF0E552E552C8
:10505000E552F4CF15F00001F31C02E1151C65E0E8
:10506000050EDBCF14F0160EDB50D880145409E285
:10507000050EDBCFE7FF160EDB50E75E050EE7CF30
:10508000DBFF300EE66E050ECBD94FE1390EDB2A81
:10509000DBCFE9FF3A0E01E3DB2ADBCFEAFF090EA3
:1050A000EFCFDBFFDB500EE044D9090EADD902E1B2
:1050B000151C3BE0390EDB2ADBCFE9FF3A0EEDE3AE
:1050C000DB2AEBD755D831E1160EDBCFE6FF080E11
:1050D000C3D8E552E7245DD82ED0070EDB50030A73
:1050E0001CE0010A14E0030A07E07BD9DBCFEEFFE6
:1050F000020EDBCFEDFF1FD0F5D8196A17AE02D034
:10510000186819682CD8BCD819C0EEFF14D0EAD89A
:1051100017BE186824D8B4D80ED063D9DBCFEFFF00
:105120000AD07BD905E1151C03E1F368F46810D0BF
:10513000FCD801E3DB2A79D93AEF24F0010EDBCF6A
:1051400014F0020EDBCF15F014C0F3FF15C0F4FF0E
:105150003B0EE15C02E2E16AE552E16ECBD029D977
:10516000020EA0EF29F061D90800F550DF6E1200A1
:10517000200EE66E080E10EF2AF0E8EC2FF0E55254
:10518000E552E552F3CF14F0F4CF15F00001F31C13
:105190001200146E156AD950010F4DD91450EE2625
:1051A0001550ED221200185E000E195AF70E18C0A5
:1051B000DBFFF80E19C0DBFF18C0E9FF19C0EAFFDA
:1051C0001200DBCFF4FFF350F45C1200DB50E76E0B
:1051D000040EE7CFDBFF12000A0EDBCF14F00B0E3C
:1051E000DBCF15F00C0EDBCF16F00D0EDBCF17F07A
:1051F00014501510161017101200130EEECFDBFF0F
:10520000140EEDCFDBFF130EDBCF14F0140EDBCF4B
:1052100015F00001800E15141200F70EDBCF18F008
:10522000F80EDBCF19F01200050EDB50E66ED950F8
:10523000130F01D9E552E750EE6EED6A12000A0E27
:10524000DBCF06F00B0EDBCF07F00C0EDBCF08F048
:105250000D0EDBCF09F01200DBCFE6FF150EDBCF22
:10526000E6FF050EDB50E552E724E552E724120085
:10527000DB50CED8010EF36E060EF3CFDBFF12002B
:10528000EE50EFCFEAFFE96E16C0EEFF17C0EEFF5B
:1052900018C0EEFF1200D9CFE6FFDACFE6FFE1CF6C
:1052A000D9FFE2CFDAFF1200DFCFE6FFE66A1BECA0
:1052B00031F0E552E552F3501200E76E080EE7CFE9
:1052C000DBFF1200EECF14F0EECF15F0EFCF16F0AB
:1052D000176A1200050EDBCF14F0150EDB50D880D4
:1052E00014541200010EDBCF16F0020EDBCF17F0C4
:1052F000186A1200E552E5CFDAFFE7CFD9FF1200B6
:105300000A0E14C0DBFF0B0E15C0DBFF1200D950D4
:105310000A0F1BEF2AF0F36E070EF3CFDBFF12002C
:10532000EECF14F0EFCF15F01200010EDB2A020EC3
:105330001200FC0EDBCFE6FFFD0EDBCFE6FF120016
:10534000145E000E155AF70E14C0DBFFF80E15C0E0
:10535000DBFF14C0E9FF15C0EAFF1200DA20EA6E95
:10536000EF2AEECFF6FF000EEF22EECFF7FFEF228F
:10537000EECFF8FF1200040EDBCFE6FF130EDB507A
:10538000E552E75C9ADFDB5004DF060EDB501200CB
:10539000090EDB500A0DF350DF24D00FE76E090E23
:1053A000E7CFDBFFB3EF28F0DB50F36E050EE1EF44
:1053B00028F0F70EDBCF14F0F80EDBCF15F012005B
:1053C000DFCFE6FFBDEF28F028DF030EECDE62EF53
:1053D00029F00FEC24F0E552E552E552E5520009C0
:1053E0001200BDDEEE50EFCFEAFFE96E010E1200B3
:1053F000130EDB50F36E040EE1EF28F0040EDB50C9
:10540000F36E090EE1EF28F0DBCFE6FFBDEF28F0E9
:10541000E76E050EE7CFDBFF12008BDFE0EF29F030
:10542000DBCFE6FF86DFE9EF29F0D950F90FE96E0F
:10543000FF0EAEEF29F0E96E000EDA20EA6E1200E0
:1054400025580020300025303264002020004D49CE
:10545000464152455F526561642829206661696C46
:1054600065643A200050616765202030202031209B
:1054700020322020330D0A00204164723D3078250F
:10548000303258002056616C75653D3078253032D9
:10549000580020496E7665727465642061636365A7
:1054A0007373206269747320646964206E6F742062
:1054B0006D6174636821200D0A00205D20002000CA
:1054C0002530316400205B20004D49464152455F44
:1054D000526561642829206661696C65640D0A0063
:1054E0005043445F41757468656E746963617465A7
:1054F0002829206661696C65640D0A0025303364D3
:1055000020202020202020002020200053656374CC
:105510006F7220426C6F636B20303020303120304E
:1055200032203033203034203035203036203037B0
:1055300020303820303920313020313120313220B4
:105540003133203134203135204163636573734238
:105550006974730D0A005049434320747970653AA9
:105560002000436172642053414B3A20307825304B
:1055700032580D0A002530325820004361726420F1
:105580005549443A20000D0A004E6F206D656D6F3D
:1055900072792064756D7020686572652E0044759F
:1055A0006D70696E67206D656D6F727920636F6EC7
:1055B00074656E7473206E6F7420696D706C656DA8
:1055C000656E74656420666F722074686174205023
:1055D00049434320747970652E005741524E494E1D
:1055E000473A20436F6D6D756E69636174696F6EC4
:1055F000206661696C7572652C206973207468651A
:10560000204D4652433532322070726F7065726C95
:105610007920636F6E6E65637465643F00203D2082
:1056200028756E6B6E6F776E290D0A00203D20760F
:10563000322E300D0A00203D2076312E300D0A002A
:10564000203D2076302E300D0A00203D2028636C4E
:105650006F6E65290D0A004669726D77617265206B
:1056600056657273696F6E3A203078253032580073
:10567000556E6B6E6F776E20747970650053414B79
:1056800020696E64696361746573205549442069BB
:1056900073206E6F7420636F6D706C6574652E007F
:1056A0004D494641524520544E5033585858004DAC
:1056B00049464152452044455346697265004D496B
:1056C0004641524520506C7573004D494641524544
:1056D00020556C7472616C69676874206F72205514
:1056E0006C7472616C696768742043004D4946416F
:1056F000524520344B42004D494641524520314BE2
:1057000042004D4946415245204D696E692C203377
:105710003230206279746573005049434320636FCF
:105720006D706C69616E7420776974682049534F9D
:105730002F49454320313830393220284E464329FD
:10574000005049434320636F6D706C69616E742033
:10575000776974682049534F2F49454320313434C9
:1057600034332D3400556E6B6E6F776E2065727218
:105770006F720041204D49464152452050494343F4
:1057800020726573706F6E64656420776974682039
:105790004E414B2E00546865204352435F412064C4
:1057A0006F6573206E6F74206D617463682E00499D
:1057B0006E76616C696420617267756D656E742EBA
:1057C00000496E7465726E616C206572726F722032
:1057D000696E2074686520636F64652E2053686F5E
:1057E000756C64206E6F742068617070656E2E0039
:1057F0004120627566666572206973206E6F742041
:1058000062696720656E6F7567682E0054696D6503
:105810006F757420696E20636F6D6D756E6963615D
:1058200074696F6E2E00436F6C6C697373696F6E71
:105830002064657465637465642E004572726F72CE
:1058400020696E20636F6D6D756E69636174696F39
:105850006E2E00537563636573732E004572726F0D
:10586000723A205472616E736665722074686520A6
:10587000646174612E0D0A004572726F723A205491
:10588000656C6C207468652050494343207765201F
:1058900077616E7420746F20777269746520746FFD
:1058A00020626C6F636B20626C6F636B4164647227
:1058B0002E0D0A002530325820000D0A0D0A004432
:1058C00061746120696E20626C6F636B20253032D9
:1058D000583A0D0A004D49464152455F5265616490
:1058E0002829206661696C65643A2000526561640C
:1058F000696E6720646174612066726F6D20626CEE
:105900006F636B2025303258202E2E2E0D0A004357
:10591000757272656E74206461746120696E2073A3
:105920006563746F723A0D0A005043445F417574A9
:1059300068656E7469636174652829206661696CA5
:1059400065643A200041757468656E7469636174BA
:10595000696E67207573696E67206B657920412ECB
:105960002E2E0D0A00546869732073616D706C658A
:10597000206F6E6C7920776F726B73207769746813
:10598000204D494641524520436C61737369632041
:1059900063617264732E0D0A005049434320747989
:1059A00070653A200043617264205549443A2000F2
:1059B0004245574152453A20446174612077696CF1
:1059C0006C206265207772697474656E20746F2034
:1059D00074686520504943432C20696E20736563C9
:1059E000746F722023310D0A000D0A005573696E21
:1059F00067206B65792028666F72204120616E6494
:105A00002042293A20005363616E2061204D4946AF
:105A100041524520436C617373696320504943438D
:105A200020746F2064656D6F6E737472617465208D
:105A30007265616420616E642077726974652E0DF1
:025A40000A005A
:0E5A4200D9CFE6FFE1CFD9FFE652DF6A8A86B0
:105A50008A848A828A80030E0001E01901E1E15103
:105A600032E0020EE01901E1E15121E0010EE019FE
:105A700001E1E15110E0E05133E1E15131E18A9679
:105A8000E251EA6AD50FE96E000EEA22EF508C6E01
:105A9000E6A726D023D08A94E351EA6AD50FE96EAF
:105AA000000EEA22EF508C6EE6A51AD017D08A922B
:105AB000E451EA6AD50FE96E000EEA22EF508C6ECF
