:040000000CEF00F011
:10000800FACF04F0FBCF05F0E9CF06F043ED10F08E
:10001800F4EF10F0F00E936E000E956E000E966ED3
:10002800000E946E92860F0EC16E880ED56EB10EBC
:10003800D76EE00ED66ED08EF28AF294F184F28CEE
:10004800F28E000E00016F6F000E00016E6F000E41
:100058000001716F000E0001706F000E0001696FE2
:10006800000E0001686F000E00016B6F000E0001AA
:100078006A6F000E00016D6F000E00016C6F000EBC
:100088000001736F640E0001726F14EF0DF0000E23
:1000980039EC12F0010E25EC11F012C040F013C03B
:1000A80041F0426A436A010E25EC11F0950E125C8C
:1000B800020E1358D8B009D0000E406E000E416EE3
:1000C800000E426E000E436E08D06C0E4026FD0EE8
:1000D8004122FF0E4222FF0E43224350800A800F26
:1000E80008E1000E425C05E1000E415C02E15B0E96
:1000F800405CD8A008D05A0E406E000E416E000E2B
:10010800426E000E436E000E2B6E0A0E2A6E000E13
:100118002D6E0A0E2C6E40C012F041C013F042C082
:1001280014F043C015F00A0E166E000E176E000E7E
:10013800186E000E196E50EC0EF012C060F013C06D
:1001480061F014C062F015C063F060C02EF061C0A9
:100158002FF040C012F041C013F042C014F043C069
:1001680015F00A0E166E000E176E000E186E000EB1
:10017800196E42EC0FF012C064F013C065F014C0A1
:1001880066F015C067F064C030F065C031F001EC6E
:1001980012F04350800A800F08E1000E425C05E12E
:1001A800000E415C02E10A0E405CD8B012D0000E8D
:1001B8002B6E0A0E2A6E000E2D6E0A0E2C6E000E85
:1001C8002F6E0A0E2E6E40C030F041C031F001ECA7
:1001D80012F040C01AF041C01BF0BCEC10F014EF54
:1001E8000DF0000E39EC12F0020E25EC11F012C0E1
:1001F80040F013C041F0426A436A020E25EC11F048
:10020800A90E125C020E1358D8B009D0000E406E29
:10021800000E416E000E426E000E436E08D0580E5E
:100228004026FD0E4122FF0E4222FF0E432243507C
:10023800800A800F08E1000E425C05E1000E415C77
:1002480002E15B0E405CD8A008D05A0E406E000E4A
:10025800416E000E426E000E436E000E2B6E0A0EAB
:100268002A6E000E2D6E0A0E2C6E40C012F041C090
:1002780013F042C014F043C015F00A0E166E000EBB
:10028800176E000E186E000E196E50EC0EF012C0AC
:1002980060F013C061F014C062F015C063F060C074
:1002A8002EF061C02FF040C012F041C013F042C0E0
:1002B80014F043C015F00A0E166E000E176E000EED
:1002C800186E000E196E42EC0FF012C064F013C0E5
:1002D80065F014C066F015C067F064C030F065C002
:1002E80031F001EC12F04350800A800F08E1000E53
:1002F800425C05E1000E415C02E10A0E405CD8B0A8
:1003080012D0000E2B6E0A0E2A6E000E2D6E0A0EEB
:100318002C6E000E2F6E0A0E2E6E40C030F041C0BB
:1003280031F001EC12F040C01AF041C01BF050EC63
:1003380011F014EF0DF0000E39EC12F0010E25EC5F
:1003480011F012C06EF013C06FF0010E25EC11F021
:10035800950E125C020E1358D8B007D0000E00019B
:100368006F6F000E00016E6F07D00001940E000140
:100378006E5F020E00016F5B020E25EC11F012C0D9
:1003880070F013C071F0020E25EC11F0A90E125C8A
:10039800020E1358D8B007D0000E0001716F000E7E
:1003A8000001706F07D00001A80E0001705F020EF7
:1003B8000001715B5B0E00016E5D000E00016F595C
:1003C800D8A006D0000E00016F6F5A0E00016E6FA4
:1003D8005B0E0001705D000E00017159D8A006D0B7
:1003E800000E0001716F5A0E0001706F0A0E0001B5
:1003F8006E5D000E00016F59D8B026D0000E2B6E2E
:100408000A0E2A6E6EC02CF06FC02DF070C023F05B
:1004180071C024F0000E266E0A0E256EA4EC11F0B1
:1004280023C02EF024C02FF070C012F071C013F05A
:10043800000E156E0A0E146ECDEC11F012C030F0DD
:1004480013C031F001EC12F00A0E0001705D000ECD
:1004580000017159D8B026D06EC023F06FC024F0C7
:10046800000E266E0A0E256EA4EC11F023C02AF0A9
:1004780024C02BF06EC012F06FC013F0000E156E82
:100488000A0E146ECDEC11F012C02CF013C02DF032
:10049800000E2F6E0A0E2E6E70C030F071C031F053
:1004A80001EC12F00A0E00016E5D000E00016F599A
:1004B800D8B01AD00A0E0001705D000E0001715903
:1004C800D8B012D0000E2B6E0A0E2A6E6EC02CF019
:1004D8006FC02DF0000E2F6E0A0E2E6E70C030F019
:1004E80071C031F001EC12F06EC023F06FC024F03F
:1004F800000E266E0A0E256EA4EC11F023C02AF019
:1005080024C02BF06EC012F06FC013F0000E156EF1
:100518000A0E146ECDEC11F012C02CF013C02DF0A1
:1005280070C023F071C024F0000E266E0A0E256EEE
:10053800A4EC11F023C02EF024C02FF070C012F0EC
:1005480071C013F0000E156E0A0E146ECDEC11F08A
:1005580012C030F013C031F001EC12F0000E1B6E27
:100568005A0E1A6E7AEC11F014EF0DF0000E39ECF9
:1005780012F0010E25EC11F012C06EF013C06FF0EE
:10058800010E25EC11F0950E125C020E1358D8B02E
:1005980007D0000E00016F6F000E00016E6F07D0CC
:1005A8000001940E00016E5F020E00016F5B020EE7
:1005B80025EC11F012C070F013C071F0020E25EC9A
:1005C80011F0A90E125C020E1358D8B007D0000E15
:1005D8000001716F000E0001706F07D00001A80EB6
:1005E8000001705F020E0001715B5B0E00016E5D21
:1005F800000E00016F59D8A006D0000E00016F6FE1
:100608005A0E00016E6F5B0E0001705D000E000156
:100618007159D8A006D0000E0001716F5A0E000162
:10062800706F00016E510001705D00016F51000193
:100638007159D8B067D0000170C060F0000171C076
:1006480061F00001601F611F604B612B00016E515A
:100658000001602700016F510001612360C040F074
:1006680061C041F0426A436A000E2B6E0B0E2A6E7F
:10067800000E2D6E0A0E2C6E40C012F041C013F011
:1006880042C014F043C015F00A0E166E000E176E25
:10069800000E186E000E196E50EC0EF012C060F0CD
:1006A80013C061F014C062F015C063F060C02EF092
:1006B80061C02FF040C012F041C013F042C014F0E6
:1006C80043C015F00A0E166E000E176E000E186E57
:1006D800000E196E42EC0FF012C064F013C065F002
:1006E80014C066F015C067F064C030F065C031F022
:1006F80001EC12F040C01AF041C01BF0BCEC10F045
:1007080014EF0DF00001705100016E5D0001715190
:1007180000016F59D8B067D000016EC060F00001C9
:100728006FC061F00001601F611F604B612B000109
:10073800705100016027000171510001612360C000
:1007480040F061C041F0426A436A000E2B6E0A0E07
:100758002A6E000E2D6E0A0E2C6E40C012F041C09B
:1007680013F042C014F043C015F00A0E166E000EC6
:10077800176E000E186E000E196E50EC0EF012C0B7
:1007880060F013C061F014C062F015C063F060C07F
:100798002EF061C02FF040C012F041C013F042C0EB
:1007A80014F043C015F00A0E166E000E176E000EF8
:1007B800186E000E196E42EC0FF012C064F013C0F0
:1007C80065F014C066F015C067F064C030F065C00D
:1007D80031F001EC12F040C01AF041C01BF050ECAF
:1007E80011F014EF0DF070C06EF071C06FF00001E1
:1007F8006F516E11D8B414EF0DF0000E2B6E0A0E67
:100808002A6E000E2D6E0A0E2C6E000E2F6E000E34
:100818002E6E000E316E000E306E01EC12F0000EDE
:100828001B6E5A0E1A6E7AEC11F014EF0DF0000ED2
:1008380039EC12F0010E25EC11F012C06EF013C065
:100848006FF080A628D0030E136EE80E126E12EC1D
:1008580012F080A620D0030E136EE80E126E12EC72
:1008680012F080A618D0030E136EE80E126E12EC6A
:1008780012F080A610D0000E00016B6F000E000170
:100888006A6F000E2B6E000E2A6E6AC02CF06BC0C9
:100898002DF083EC10F0BD0E00016E5D020E00011C
:1008A8006F59D8A049D000016A4B6B2B640E000128
:1008B8006A5D000E00016B59D8A006D0000E000139
:1008C8006B6F000E00016A6F000E2B6E000E2A6E11
:1008D8006AC02CF06BC02DF083EC10F0000E136E84
:1008E800C80E126E12EC12F0010E25EC11F012C0B7
:1008F80040F013C041F0426A436A000E136E320E94
:10090800126E12EC12F04350800A800F08E1000EBC
:10091800425C05E1020E415C02E1BD0E405CD8A0DC
:100928000BD0000E2B6E000E2A6E6AC02CF06BC026
:100938002DF083EC10F0D8D7000E2B6E000E2A6E27
:100948006AC02CF06BC02DF083EC10F0000E1B6E0B
:100958005A0E1A6EBCEC10F014EF0DF0000E39ECC4
:1009680012F0020E25EC11F012C070F013C071F0F5
:1009780080A628D0030E136EE80E126E12EC12F049
:1009880080A620D0030E136EE80E126E12EC12F041
:1009980080A618D0030E136EE80E126E12EC12F039
:1009A80080A610D0000E00016D6F000E00016C6F64
:1009B800000E2B6E000E2A6E6CC02CF06DC02DF050
:1009C80083EC10F0BD0E0001705D020E000171593C
:1009D800D8A049D000016C4B6D2B640E00016C5DF2
:1009E800000E00016D59D8A006D0000E00016D6FF1
:1009F800000E00016C6F000E2B6E000E2A6E6CC08C
:100A08002CF06DC02DF083EC10F0000E136EC80EA4
:100A1800126E12EC12F0020E25EC11F012C040F02A
:100A280013C041F0426A436A000E136E320E126E12
:100A380012EC12F04350800A800F08E1000E425C6D
:100A480005E1020E415C02E1BD0E405CD8A00BD06E
:100A5800000E2B6E000E2A6E6CC02CF06DC02DF0AF
:100A680083EC10F0D8D7000E2B6E000E2A6E6CC0E7
:100A78002CF06DC02DF083EC10F0000E1B6E5A0E9A
:100A88001A6E50EC11F014EF0DF0000E39EC12F064
:100A9800010E25EC11F012C06EF013C06FF0020EBB
:100AA80025EC11F012C070F013C071F080A62CD0A4
:100AB800030E136EE80E126E12EC12F080A624D00C
:100AC800030E136EE80E126E12EC12F080A61CD004
:100AD800030E136EE80E126E12EC12F080A614D0FC
:100AE800000E00016D6F000E00016C6F6CC06AF0A3
:100AF8006DC06BF06AC02AF06BC02BF06CC02CF094
:100B08006DC02DF083EC10F0BD0E00016E5D020E7D
:100B180000016F59D8A049D000016A4B6B2B640EB5
:100B280000016A5D000E00016B59D8A006D0000EC6
:100B380000016B6F000E00016A6F6AC02AF06BC07B
:100B48002BF06CC02CF06DC02DF083EC10F0000E73
:100B5800136EC80E126E12EC12F0010E25EC11F095
:100B680012C040F013C041F0426A436A000E136E8F
:100B7800320E126E12EC12F04350800A800F08E118
:100B8800000E425C05E1020E415C02E1BD0E405CD4
:100B9800D8A00BD06AC02AF06BC02BF06CC02CF028
:100BA8006DC02DF083EC10F0D8D7BD0E0001705D3C
:100BB800020E00017159D8A049D000016C4B6D2B71
:100BC800640E00016C5D000E00016D59D8A006D0BE
:100BD800000E00016D6F000E00016C6F6AC02AF0F4
:100BE8006BC02BF06CC02CF06DC02DF083EC10F0B6
:100BF800000E136EC80E126E12EC12F0020E25ECE7
:100C080011F012C040F013C041F0426A436A000E6E
:100C1800136E320E126E12EC12F04350800A800FDF
:100C280008E1000E425C05E1020E415C02E1BD0EE6
:100C3800405CD8A00BD06AC02AF06BC02BF06CC007
:100C48002CF06DC02DF083EC10F0D8D76AC02AF0D4
:100C58006BC02BF06CC02CF06DC02DF083EC10F045
:100C6800000E1B6E5A0E1A6E7AEC11F014EF0DF08E
:100C7800000E39EC12F0010E25EC11F012C06EF0E6
:100C880013C06FF0020E25EC11F012C070F013C003
:100C980071F080A652D0030E136EE80E126E12EC9D
:100CA80012F080A64AD0030E136EE80E126E12ECF4
:100CB80012F080A642D0030E136EE80E126E12ECEC
:100CC80012F080A63AD0000E0001736F640E000186
:100CD800726F000E2B6E0A0E2A6E000E2D6E0A0E13
:100CE8002C6E9C0E00017225236EFF0E00017321ED
:100CF800246E000E266E0A0E256EA4EC11F023C099
:100D08002EF024C02FF09C0E00017225126EFF0EEB
:100D180000017321136E000E156E0A0E146ECDECD1
:100D280011F012C030F013C031F001EC12F072C0B3
:100D38001AF073C01BF07AEC11F0BD0E00016E5D65
:100D4800020E00016F59D8A03ED10A0E0001722789
:100D5800000E00017323BE0E0001725D000E00013B
:100D68007359D8A006D0000E0001736FBE0E0001A3
:100D7800726F640E0001725D000E00017359D8A0F5
:100D88002FD0000E2B6E0A0E2A6E000E2D6E0A0E44
:100D98002C6E9C0E00017225236EFF0E000173213C
:100DA800246E000E266E0A0E256EA4EC11F023C0E8
:100DB8002EF024C02FF09C0E00017225126EFF0E3B
:100DC80000017321136E000E156E0A0E146ECDEC21
:100DD80011F012C030F013C031F001EC12F04CD019
:100DE800640E0001725D000E00017359D8B044D042
:100DF800000E2B6E0B0E2A6E000E2D6E0A0E2C6E38
:100E0800000172C060F0000173C061F00001601F52
:100E1800611F604B612B640E00016025236E000E7C
:100E280000016121246E000E266E0A0E256EA4ECC8
:100E380011F023C02EF024C02FF0000172C062F020
:100E4800000173C063F00001621F631F624B632BD4
:100E5800640E00016225126E000E00016321136EFC
:100E6800000E156E0A0E146ECDEC11F012C030F0A3
:100E780013C031F001EC12F0000E136EC80E126EA2
:100E880012EC12F0010E25EC11F012C040F013C064
:100E980041F0426A436A000E136E320E126E12EC73
:100EA80012F04350800A800F08E1000E425C05E111
:100EB800020E415C02E1BD0E405CD8A084D0640EF5
:100EC8000001725D000E00017359D8A02FD0000EEA
:100ED8002B6E0A0E2A6E000E2D6E0A0E2C6E9C0EBC
:100EE80000017225236EFF0E00017321246E000E8F
:100EF800266E0A0E256EA4EC11F023C02EF024C035
:100F08002FF09C0E00017225126EFF0E0001732156
:100F1800136E000E156E0A0E146ECDEC11F012C091
:100F280030F013C031F001EC12F0ACD7640E0001C0
:100F3800725D000E00017359D8B0A4D7000E2B6E55
:100F48000B0E2A6E000E2D6E0A0E2C6E000172C05A
:100F580060F0000173C061F00001601F611F604B09
:100F6800612B640E00016025236E000E00016121D3
:100F7800246E000E266E0A0E256EA4EC11F023C016
:100F88002EF024C02FF0000172C062F0000173C07F
:100F980063F00001621F631F624B632B640E000144
:100FA8006225126E000E00016321136E000E156E8D
:100FB8000A0E146ECDEC11F012C030F013C031F0EF
:100FC80001EC12F05FD7BD0E0001705D020E00014A
:100FD8007159D8A03ED10A0E0001725F000E0001BF
:100FE800735B0A0E0001725D000E00017359D8B0E0
:100FF80006D0000E0001736F0A0E0001726F640EB6
:101008000001725D000E00017359D8A02FD0000EA8
:101018002B6E0A0E2A6E000E2D6E0A0E2C6E9C0E7A
:1010280000017225236EFF0E00017321246E000E4D
:10103800266E0A0E256EA4EC11F023C02EF024C0F3
:101048002FF09C0E00017225126EFF0E0001732115
:10105800136E000E156E0A0E146ECDEC11F012C050
:1010680030F013C031F001EC12F04CD0640E0001E6
:10107800725D000E00017359D8B044D0000E2B6E7B
:101088000B0E2A6E000E2D6E0A0E2C6E000172C019
:1010980060F0000173C061F00001601F611F604BC8
:1010A800612B640E00016025236E000E0001612192
:1010B800246E000E266E0A0E256EA4EC11F023C0D5
:1010C8002EF024C02FF0000172C062F0000173C03E
:1010D80063F00001621F631F624B632B640E000103
:1010E8006225126E000E00016321136E000E156E4C
:1010F8000A0E146ECDEC11F012C030F013C031F0AE
:1011080001EC12F0000E136EC80E126E12EC12F003
:10111800020E25EC11F012C040F013C041F0426AF3
:10112800436A000E136E320E126E12EC12F0435028
:10113800800A800F08E1000E425C05E1020E415C66
:1011480002E1BD0E405CD8A084D0640E0001725D3F
:10115800000E00017359D8A02FD0000E2B6E0A0E76
:101168002A6E000E2D6E0A0E2C6E9C0E0001722542
:10117800236EFF0E00017321246E000E266E0A0EE8
:10118800256EA4EC11F023C02EF024C02FF09C0E85
:1011980000017225126EFF0E00017321136E000EFE
:1011A800156E0A0E146ECDEC11F012C030F013C09B
:1011B80031F001EC12F0ACD7640E0001725D000E44
:1011C80000017359D8B0A4D7000E2B6E0B0E2A6EEF
:1011D800000E2D6E0A0E2C6E000172C060F0000128
:1011E80073C061F00001601F611F604B612B640ECA
:1011F80000016025236E000E00016121246E000E9F
:10120800266E0A0E256EA4EC11F023C02EF024C021
:101218002FF0000172C062F0000173C063F000019A
:10122800621F631F624B632B640E00016225126EFE
:10123800000E00016321136E000E156E0A0E146E67
:10124800CDEC11F012C030F013C031F001EC12F007
:101258005FD7640E0001725D000E00017359D8A0BB
:101268002FD0000E2B6E0A0E2A6E000E2D6E0A0E5F
:101278002C6E9C0E00017225236EFF0E0001732157
:10128800246E000E266E0A0E256EA4EC11F023C003
:101298002EF024C02FF09C0E00017225126EFF0E56
:1012A80000017321136E000E156E0A0E146ECDEC3C
:1012B80011F012C030F013C031F001EC12F04CD034
:1012C800640E0001725D000E00017359D8B044D05D
:1012D800000E2B6E0B0E2A6E000E2D6E0A0E2C6E53
:1012E800000172C060F0000173C061F00001601F6E
:1012F800611F604B612B640E00016025236E000E98
:1013080000016121246E000E266E0A0E256EA4ECE3
:1013180011F023C02EF024C02FF0000172C062F03B
:10132800000173C063F00001621F631F624B632BEF
:10133800640E00016225126E000E00016321136E17
:10134800000E156E0A0E146ECDEC11F012C030F0BE
:1013580013C031F001EC12F072C01AF073C01BF028
:101368007AEC11F05DD3000E39EC12F0000E25EC8A
:1013780011F012C040F013C041F0426A436A40C005
:1013880012F041C013F042C014F043C015F0640ECF
:10139800166E000E176E000E186E000E196E50ECC9
:1013A8000EF012C060F013C061F014C062F015C0F6
:1013B80063F060C02AF061C02BF040C012F041C059
:1013C80013F042C014F043C015F0640E166E000E00
:1013D800176E000E186E000E196E42EC0FF012C058
:1013E80064F013C065F014C066F015C067F064C0FF
:1013F8002CF065C02DF083EC10F0000E1B6E5A0E19
:101408001A6E7AEC11F00CD380A60ED00001684B4E
:10141800692B000169516811D8A406D0000E00019B
:10142800696F000E0001686F000168056911D8A492
:1014380009D0000E25EC11F012C040F013C041F0A5
:10144800426A436A4350800A800F08E1000E425CFA
:1014580005E1000E415C02E1EB0E405CD8B00CD017
:10146800000E00017C6F000E00017D6F000E000170
:101478007E6F000E00017F6F4350800A800F08E1E5
:10148800000E425C05E1000E415C02E1EC0E405C9E
:10149800D8A01AD04350800A800F08E1000E425CA1
:1014A80005E1010E415C02E1540E405CD8B00CD05D
:1014B800640E00017C6F000E00017D6F000E0001BC
:1014C8007E6F000E00017F6F4350800A800F08E195
:1014D800000E425C05E1010E415C02E1550E405CE4
:1014E800D8A01AD04350800A800F08E1000E425C51
:1014F80005E1010E415C02E1C70E405CD8B00CD09A
:10150800C80E00017C6F000E00017D6F000E000107
:101518007E6F000E00017F6F4350800A800F08E144
:10152800000E425C05E1010E415C02E1C80E405C20
:10153800D8A01AD04350800A800F08E1000E425C00
:1015480005E1020E415C02E13A0E405CD8B00CD0D5
:101558002C0E00017C6F010E00017D6F000E000152
:101568007E6F000E00017F6F4350800A800F08E1F4
:10157800000E425C05E1020E415C02E13B0E405C5C
:10158800D8A01AD04350800A800F08E1000E425CB0
:1015980005E1020E415C02E19E0E405CD8B00CD021
:1015A800900E00017C6F010E00017D6F000E00019E
:1015B8007E6F000E00017F6F4350800A800F08E1A4
:1015C800000E425C05E1020E415C02E19F0E405CA8
:1015D800D8A01AD04350800A800F08E1000E425C60
:1015E80005E1020E415C02E1F80E405CD8B00CD077
:1015F800F40E00017C6F010E00017D6F000E0001EA
:101608007E6F000E00017F6F7CC012F07DC013F06A
:101618007EC014F07FC015F0640E166E000E176EB3
:10162800000E186E000E196E50EC0EF012C060F02D
:1016380013C061F014C062F015C063F060C06EF0B2
:1016480061C06FF07CC012F07DC013F07EC014F052
:101658007FC015F0640E166E000E176E000E186E21
:10166800000E196E42EC0FF012C060F013C061F06A
:1016780014C062F015C063F060C070F061C071F012
:101688006EC023F06FC024F0000E266E0A0E256E81
:10169800A4EC11F023C02AF024C02BF06EC012F085
:1016A8006FC013F0000E156E0A0E146ECDEC11F01B
:1016B80012C02CF013C02DF070C023F071C024F0BC
:1016C800000E266E0A0E256EA4EC11F023C02EF033
:1016D80024C02FF070C012F071C013F0000E156E08
:1016E8000A0E146ECDEC11F012C030F013C031F0B8
:1016F80001EC12F0020E39EC12F092D150EC0DF020
:101708001FC023F020C024F0000E266E640E256E44
:10171800A4EC11F023C040F024C041F0426A436AAF
:1017280040C012F041C013F042C014F043C015F09D
:10173800640E166E000E176E000E186E000E196EEF
:1017480050EC0EF012C060F013C061F014C062F0EB
:1017580015C063F060C06EF061C06FF040C012F059
:1017680041C013F042C014F043C015F0640E166E69
:10177800000E176E000E186E000E196E42EC0FF078
:1017880012C060F013C061F014C062F015C063F0BD
:1017980060C070F061C071F0020E39EC12F0435075
:1017A800800A800F08E1000E425C05E1000E415CF2
:1017B80002E10A0E405CD8B026D0000E2B6E000E57
:1017C8002A6E000E2D6E000E2C6E70C023F071C0B4
:1017D80024F0000E266E0A0E256EA4EC11F023C02C
:1017E8002EF024C02FF070C012F071C013F0000E5C
:1017F800156E0A0E146ECDEC11F012C030F013C045
:1018080031F001EC12F04350800A800F08E1000E1D
:10181800425C05E1000E415C02E1640E405CD8B018
:1018280030D0000E2B6E000E2A6E6EC012F06FC004
:1018380013F0000E156E0A0E146ECDEC11F012C0E6
:101848002CF013C02DF070C023F071C024F0000EEE
:10185800266E0A0E256EA4EC11F023C02EF024C0CB
:101868002FF070C012F071C013F0000E156E0A0E42
:10187800146ECDEC11F012C030F013C031F001EC51
:1018880012F06EC023F06FC024F0000E266E0A0E10
:10189800256EA4EC11F023C02AF024C02BF06EC0F2
:1018A80012F06FC013F0000E156E0A0E146ECDEC18
:1018B80011F012C02CF013C02DF070C023F071C0CD
:1018C80024F0000E266E0A0E256EA4EC11F023C03B
:1018D8002EF024C02FF070C012F071C013F0000E6B
:1018E800156E0A0E146ECDEC11F012C030F013C054
:1018F80031F001EC12F0000E136EFA0E126E12ECBB
:1019080012F08ED0010E25EC11F012C040F013C079
:1019180041F0426A436A40C012F041C013F042C02D
:1019280014F043C015F0640E166E000E176E000E0C
:10193800186E000E196E50EC0EF012C060F013C055
:1019480061F014C062F015C063F060C02AF061C095
:101958002BF040C012F041C013F042C014F043C055
:1019680015F0640E166E000E176E000E186E000E3F
:10197800196E42EC0FF012C064F013C065F014C089
:1019880066F015C067F064C02CF065C02DF083ECDC
:1019980010F0020E25EC11F012C040F013C041F017
:1019A800426A436A40C012F041C013F042C014F0CA
:1019B80043C015F0640E166E000E176E000E186EFA
:1019C800000E196E50EC0EF012C060F013C061F0FA
:1019D80014C062F015C063F060C02AF061C02BF03B
:1019E80040C012F041C013F042C014F043C015F0DB
:1019F800640E166E000E176E000E186E000E196E2D
:101A080042EC0FF012C064F013C065F014C066F029
:101A180015C067F064C02CF065C02DF083EC10F0A1
:101A28008150F00B0001606F616B00016151000A89
:101A3800D8A4F6D700016051000AD8B44BEF00F0E3
:101A4800100AD8B4F5EF00F0300AD8B49FEF01F0CF
:101A5800100AD8B4BAEF02F0700AD8B41BEF04F039
:101A6800100AD8B4B2EF04F0300AD8B449EF05F040
:101A7800100AD8B43CEF06F0F00AD8B474D4100AAF
:101A8800D8B4C2D4500AD8B439D6200AD8B43AD770
:101A9800100AD8B47ED7C4D7A10ECD6E000E0001AF
:101AA800856F000E0001846F84C03CF085C03DF056
:101AB8003CC082F03DC083F082C038F083C039F06A
:101AC80038C036F039C037F00F0EC16E948210D08E
:101AD800010E3226000E332234223522810E325C6A
:101AE800960E3358980E3458000E3558D8B002D098
:101AF80082B2EED7000E326E000E336E000E346ED8
:101B0800000E356E10D0010E3226000E332234221C
:101B18003522810E325C960E3358980E3458000EDA
:101B28003558D8B002D082A2EED7000E326E000E21
:101B3800336E000E346E000E356E0001CECF82F08B
:101B48000001836BCF500001832710D0010E32268D
:101B5800000E332234223522810E325C960E335821
:101B6800980E3458000E3558D8B002D082B2EED74D
:101B7800000E326E000E336E000E346E000E356E9F
:101B8800CECF3CF03D6ACF503D2610D0010E322614
:101B9800000E332234223522810E325C960E3358E1
:101BA800980E3458000E3558D8B002D082A2EED71D
:101BB800000E326E000E336E000E346E000E356E5F
:101BC8000001CECF84F00001856BCF50000185273E
:101BD8003CC021F03DC022F0211E221E214A222AAB
:101BE800000184512124386E000185512220396E6C
:101BF800000182C021F0000183C022F0211E221EB4
:101C0800214A222A3C502124366E3D502220376E2C
:101C1800365038263750392236C012F037C013F004
:101C2800000E156E640E146EEEEC11F012C036F054
:101C380013C037F0D8903930226E3830216E2150D9
:101C4800362622503722400E0001746F420E0001E2
:101C5800756F0F0E0001766F000E0001776F74C06C
:101C680012F075C013F076C014F077C015F038C0C4
:101C780016F039C017F0186A196A02EC10F012C091
:101C880074F013C075F014C076F015C077F074C006
:101C98001FF075C020F01200000E1B6E1950800A4C
:101CA800800F08E1000E185C05E1000E175C02E1E8
:101CB800000E165CD8B00AD0191E181E171E166C16
:101CC800000E172218221922010E1B6E1550800AC9
:101CD800800F08E1000E145C05E1000E135C02E1C0
:101CE800000E125CD8B00AD0151E141E131E126CFA
:101CF800000E132214221522010E1B1A000E1C6E50
:101D0800000E1D6E000E1E6E000E1F6E195016106E
:101D180017101810D8B42AD0010E1A6E06D0D89011
:101D280016361736183619361A2A19AEF8D7D89033
:101D38001C361D361E361F361650125C17501358A7
:101D48001850145819501558D8A009D01650125EBA
:101D58001750135A1850145A1950155A1C80D890F5
:101D680019321832173216321A2EE1D71B50D8B44E
:101D780008D01F1E1E1E1D1E1C6C000E1D221E22BA
:101D88001F221CC012F01DC013F01EC014F01FC08B
:101D980015F01200000E036E8A868A848A828A8071
:101DA8003ED08A960001860E4624D96E0001000EA8
:101DB8004720DA6EDF508C6E44A646D02DD08A9428
:101DC8000001860E4824D96E0001000E4920DA6E03
:101DD800DF508C6E44A438D01FD08A920001860E42
:101DE80000019225D96E0001000E00019321DA6EE0
:101DF800DF508C6E44A228D00FD08A900001860E46
:101E080000019425D96E0001000E00019521DA6EBB
:101E1800DF508C6E44A018D0010E036E15D03AC066
:101E280001F03BC002F00250000AD8A40DD00150C6
:101E3800000AD8B4B6D7010AD8B4C1D7030AD8B4AF
:101E4800CCD7010AD8B4D9D70304D8B48C9E4A5049
:101E5800120A4B10D8B403D03A4A3B2A04D0000ED9
:101E68003B6E120E3A6E3A504A5C3B504B58D8B013
:101E780004D0000E3B6E000E3A6E1200000E1B6E70
:101E88001550800A800F08E1000E145C05E1000E71
:101E9800135C02E1000E125CD8B00AD0151E141EA5
:101EA800131E126C000E132214221522010E1B6E33
:101EB8001950800A800F08E1000E185C05E1000E39
:101EC800175C02E1000E165CD8B008D0191E181E67
:101ED800171E166C000E17221822192219501610F8
:101EE80017101810D8B424D0010E1A6E06D0D89046
:101EF80016361736183619361A2A19AEF8D7165064
:101F0800125C175013581850145819501558D8A067
:101F180008D01650125E1750135A1850145A1950F8
:101F2800155AD89019321832173216321A2EE7D7A6
:101F38001B50D8B408D0151E141E131E126C000EA8
:101F480013221422152212C012F013C013F014C069
:101F580014F015C015F01200000E176E1550800A07
:101F6800F36E800EF35C000ED8B4145CD8B006D0C3
:101F7800146C151ED8B0152A010E176E1350800A5E
:101F8800F36E800EF35C000ED8B4125CD8B006D0A5
:101F9800126C131ED8B0132A010E171A000E196EF0
:101FA800000E186E15501410D8B41CD0010E166E01
:101FB80004D0D89014361536162A15AEFAD7D8900C
:101FC800183619361450125C15501358D8A005D07D
:101FD8001450125E1550135A1880D89015321432C6
:101FE800162EEDD71750D8B404D0186C191ED8B0D7
:101FF800192A18C012F019C013F01200000E1A6E38
:10200800000E1B6E000E1C6E000E1D6E1950161071
:1020180017101810D8B42AD0010E1E6E06D0D8900A
:1020280016361736183619361E2A19AEF8D7D8902C
:102038001A361B361C361D361650125C17501358AC
:102048001850145819501558D8A009D01650125EB7
:102058001750135A1850145A1950155A1A80D890F4
:1020680019321832173216321E2EE1D71AC012F062
:102078001BC013F01CC014F01DC015F012000600A0
:10208800EACF07F0E1CF08F0E2CF09F0D9CF0AF0A4
:10209800DACF0BF0F3CF0CF0F4CF0DF0F6CF0EF053
:1020A800F7CF0FF0F8CF10F0F5CF11F0F294E00E63
:1020B800D76EC00ED66ECEEC0EF03E4A3F2A000117
:1020C800804B812B11C0F5FF10C0F8FF0FC0F7FF40
:1020D8000EC0F6FF0DC0F4FF0CC0F3FF0BC0DAFF13
:1020E8000AC0D9FF09C0E2FF08C0E1FF07C0EAFF44
:1020F80006C0E9FF05C0FBFF04C0FAFF11002AC0B3
:1021080023F02BC024F0000E266E0A0E256EA4ECD8
:1021180011F023C046F024C047F02AC012F02BC0AB
:1021280013F0000E156E0A0E146ECDEC11F012C0ED
:1021380048F013C049F02CC023F02DC024F0000E45
:10214800266E0A0E256EA4EC11F023C092F024C06E
:1021580093F02CC012F02DC013F0000E156E0A0E6D
:10216800146ECDEC11F012C094F013C095F012006B
:102178001AC01CF01BC01DF01C1E1D1E1C4A1D2A67
:102188005A0E1C241A6E000E1D201B6E1B50800A4E
:10219800F36E800EF35C090ED8B41A5CD8B004D084
:1021A800000E1B6E090E1A6E1AC012F01BC013F037
:1021B800000E156E090E146EB0EC0FF012C01AF076
:1021C80013C01BF08B84100E31EC12F01A50040D62
:1021D800F35031EC12F08B94500E29EC12F01200EF
:1021E80000EE74F0120EEE6AE806FDE100EE32F041
:1021F8000E0EEE6AE806FDE1420EF66E240EF76E4C
:10220800000EF86E00EE86F010EE10F00900F5CF23
:10221800EEFFE550E150FAE17C0EF66E240EF76E03
:10222800000EF86E00EE46F010EE06F00900F5CF4D
:10223800EEFFE550E150FAE1000EF86E00010EEFF6
:1022480000F0146E0C0EC16EA50EC06E13D00C0EED
:10225800C16EA50EC06E010E0BD00C0EC16EA50E80
:10226800C06E050E05D00C0EC16EA50EC06E090E0F
:10227800C26E0AD01450000AD8B4E9D7010AD8B4FB
:10228800ECD7030AD8B4EFD7C282C2B2FED7C3CF05
:1022980012F0C4CF13F012001B50800AF36E800EA8
:1022A800F35C090ED8B41A5CD8B004D0000E1B6ECB
:1022B800090E1A6E1AC012F01BC013F0000E156E2C
:1022C800090E146EB0EC0FF012C01AF013C01BF018
:1022D8008B84340E31EC12F01A50040DF35031ECAB
:1022E80012F08B94500E29EC12F012001B50800A49
:1022F800F36E800EF35C0A0ED8B41A5CD8B004D022
:10230800000E1B6E0A0E1A6E1AC012F01BC013F0D4
:10231800000E156E0A0E146EB0EC0FF012C01AF013
:1023280013C01BF08B84100E31EC12F01A50040D00
:10233800F35031EC12F08B94500E29EC12F012008D
:10234800000E296E000E286E26502510D8B41CD019
:10235800010E276E04D0D89025362636272A26AEB9
:10236800FAD7D890283629362550235C2650245889
:10237800D8A005D02550235E2650245A2880D8900E
:1023880026322532272EEDD728C023F029C024F085
:10239800120015501410D8B418D0010E166E04D0BF
:1023A800D89014361536162A15AEFAD71450125C82
:1023B80015501358D8A004D01450125E1550135A53
:1023C800D89015321432162EF1D712C012F013C05D
:1023D80013F0120012501402F3CF16F0F4CF17F0D6
:1023E80012501502F350172613501402F3501726F3
:1023F80016C012F017C013F012002AC046F02BC006
:1024080047F02CC048F02DC049F02EC092F02FC0E4
:1024180093F030C094F031C095F01200D890133288
:1024280012323E5012263F5013223F50131802E139
:102438003E501218D8B41200F8D7C0F9A4B0999237
:1024480082D88090FFBF03000400126EFA0E00F0DD
:10245800E82EFDD7122EFAD71200126E210EE82EA2
:10246800FED700F0122EFAD71200126E12C044F0F6
:0A247800456A12000100080003008D
:020000040020DA
:08000000FFFFFFFFFFFFFFFF00
:020000040030CA
:0E000000000C1F1EFF8181FF0FC00FE00F409C
:00000001FF
