:040000000CEF00F011
:10000800FACF05F0FBCF06F0E9CF07F009ED07F0CE
:100018007CEF07F0000E936E000E956E0F0E966E35
:100028000F0EC16E880ED56EB10ED76EE00ED66E6D
:10003800D08EF28AF294F184F28CF28E51D2010EB3
:10004800B2EC08F0020E9CEC08F0CD0E216E9C0E6E
:10005800226E400E236E010E48EC07F013C01BF011
:1000680014C01CF0EEEC08F01BC01EF01CC01FF002
:100078001DC020F0B3EC05F01EC02DF01FC02EF0FF
:1000880020C02FF096EC04F02DC06BF02EC06CF061
:100098002FC06DF030C06EF06BC049F06CC04AF0F4
:1000A800890E495C130E4A58D8A004D0130E4A6E24
:1000B800880E496E49C01CF04AC01DF0000E1F6E24
:1000C800640E1E6EDEEC07F01CC071F01DC072F0ED
:1000D80049C013F04AC014F0000E166E640E156E77
:1000E8002EEC08F013C073F014C074F071C023F044
:1000F80072C024F073C025F074C026F0ADEC07F090
:10010800080E2FEC09F0030E6DEC08F000EC09F076
:100118000BD2010E9CEC08F0020EB2EC08F0CD0EEA
:10012800216E9C0E226E400E236E020E48EC07F0E4
:1001380013C01BF014C01CF0EEEC08F01BC01EF03E
:100148001CC01FF01DC020F0B3EC05F01EC02DF040
:100158001FC02EF020C02FF096EC04F02DC06BF0DD
:100168002EC06CF02FC06DF030C06EF06BC049F03F
:100178006CC04AF0890E495C130E4A58D8A004D0C6
:10018800130E4A6E880E496E49C01CF04AC01DF015
:10019800000E1F6E640E1E6EDEEC07F01CC071F0C0
:1001A8001DC072F049C013F04AC014F0000E166E5C
:1001B800640E156E2EEC08F013C073F014C074F0C2
:1001C80071C023F072C024F073C025F074C026F00B
:1001D800ADEC07F0080E2FEC09F0030E6DEC08F0FB
:1001E80000EC09F0A1D1010E9CEC08F0020E9CEC89
:1001F80008F0030E48EC07F013C016F014C017F00F
:10020800000E196E050E186EDBEC08F016C049F0EA
:1002180017C04AF0890E495C130E4A58D8A004D07A
:10022800130E4A6E880E496E49C01CF04AC01DF074
:10023800000E1F6E640E1E6EDEEC07F01CC071F01F
:100248001DC072F049C013F04AC014F0000E166EBB
:10025800640E156E2EEC08F013C073F014C074F021
:1002680071C023F072C024F073C025F074C026F06A
:10027800ADEC07F0080E2FEC09F0030E6DEC08F05A
:1002880000EC09F051D1010EB2EC08F0020E9CEC22
:1002980008F0020E48EC07F013C049F014C04AF009
:1002A800E90E495C030E4A58D8A004D0030E4A6EE2
:1002B800E80E496E0A0E4924236E000E4A20246E69
:1002C8004FEC08F049C01CF04AC01DF0000E1F6E2C
:1002D800640E1E6EDEEC07F01CC071F01DC072F0DB
:1002E80049C013F04AC014F0000E166E640E156E65
:1002F8002EEC08F013C073F014C074F071C023F032
:1003080072C024F073C025F074C026F0ADEC07F07D
:10031800020E2FEC09F0030E6DEC08F02AEC09F040
:1003280003D1010E9CEC08F0020EB2EC08F007ECC9
:1003380008F01CC049F01DC04AF049C01CF04AC072
:100348001DF0000E1F6E640E1E6EDEEC07F01CC062
:1003580071F01DC072F049C013F04AC014F0000ECD
:10036800166E640E156E2EEC08F013C073F014C0F0
:1003780074F071C023F072C024F073C025F074C00B
:1003880026F0ADEC07F0020E2FEC09F0030E6DEC31
:1003980008F025EC09F0C8D0010E9CEC08F0020E1C
:1003A8009CEC08F09CEC02F023C06FF024C070F0C5
:1003B8006FC016F070C017F0000E196E0A0E186E96
:1003C800DBEC08F016C049F017C04AF0C80E495CCB
:1003D800000E4A58D8B004D0000E4A6EC80E496EB6
:1003E800210E495C030E4A58D8A004D0030E4A6E69
:1003F800200E496E49C01CF04AC01DF0000E1F6E49
:10040800640E1E6EDEEC07F01CC071F01DC072F0A9
:1004180049C013F04AC014F0000E166E640E156E33
:100428002EEC08F013C073F014C074F071C023F000
:1004380072C024F073C025F074C026F0ADEC07F04C
:10044800020E2FEC09F0030E6DEC08F000EC09F039
:100458006BD079EC06F00A0E2FEC09F000EC09F0ED
:1004680063D09AEC03F020C049F021C04AF0880E0E
:10047800495C130E4A58D8A004D0130E4A6E870E52
:10048800496E49C01CF04AC01DF0000E1F6E640E74
:100498001E6EDEEC07F01CC071F01DC072F049C082
:1004A80013F04AC014F0000E166E640E156E2EEC92
:1004B80008F013C073F014C074F071C023F072C058
:1004C80024F073C025F074C026F0ADEC07F0020EDE
:1004D8002FEC09F0030E6DEC08F000EC09F024D0C5
:1004E8008450070B00016B6F6C6B00016C51000AA4
:1004F800D8A41AD000016B51000AD8B4A0D5010ABB
:10050800D8B40FD7030AD8B46ED6010AD8B4A1D785
:10051800070AD8B4FED5010AD8B43ED7030AD8B41E
:10052800B2D6010AD8B49DD7280E0BEC09F0D8D75B
:10053800A10ECD6E000E406E000E3F6E3FC03DF026
:1005480040C03EF03DC03BF03EC03CF03BC037F001
:100558003CC038F037C035F038C036F00F0EC16EE9
:10056800928010D0010E3126000E3222332234221E
:10057800A10E315C860E3258010E3358000E3458E5
:10058800D8B002D080B0EED7000E316E000E326EB9
:10059800000E336E000E346E10D0010E3126000EA0
:1005A800322233223422A10E315C860E3258010EDB
:1005B8003358000E3458D8B002D080A0EED7000EC1
:1005C800316E000E326E000E336E000E346ECECFDA
:1005D8003BF03C6ACF503C2610D0010E3126000E6D
:1005E800322233223422A10E315C860E3258010E9B
:1005F8003358000E3458D8B002D080B0EED7000E71
:10060800316E000E326E000E336E000E346ECECF99
:100618003DF03E6ACF503E2610D0010E3126000E26
:10062800322233223422A10E315C860E3258010E5A
:100638003358000E3458D8B002D080A0EED7000E40
:10064800316E000E326E000E336E000E346ECECF59
:100658003FF0406ACF5040263DC025F03EC026F00E
:10066800251E261E254A262A3F502524376E40502F
:100678002620386E3BC025F03CC026F0251E261EDD
:10068800254A262A3D502524356E3E502620366EB2
:10069800355037263650382235C016F036C017F098
:1006A800000E196E640E186EDBEC08F016C035F0FB
:1006B80017C036F0D8903830266E3730256E255062
:1006C800352626503622800E00017F6F960E0001D7
:1006D800806F980E0001816F000E0001826F7FC04D
:1006E80013F080C014F081C015F082C016F037C036
:1006F80017F038C018F0196A1A6AC8EC06F013C067
:100708007FF014C080F015C081F016C082F035C0AB
:100718001CF036C01DF037C01EF038C01FF0DEECEC
:1007280007F01CC023F01DC024F01200A10ECD6EEE
:10073800000E406E000E3F6E3FC03DF040C03EF0E0
:100748003DC03BF03EC03CF03BC037F03CC038F009
:1007580037C035F038C036F00F0EC16E928012D017
:10076800010E3126000E322233223422C8EC08F062
:10077800A10E315C860E3258010E3358000E3458E3
:10078800D8B002D080B0ECD7000E316E000E326EB9
:10079800000E336E000E346E12D0010E3126000E9C
:1007A800322233223422C8EC08F0A10E315C860EC6
:1007B8003258010E3358000E3458D8B002D080A0F9
:1007C800ECD7000E316E000E326E000E336E000E46
:1007D800346ECECF3BF03C6ACF503C2612D0010E8F
:1007E8003126000E322233223422C8EC08F0A10E42
:1007F800315C860E3258010E3358000E3458D8B08A
:1008080002D080B0ECD7000E316E000E326E000EB2
:10081800336E000E346ECECF3DF03E6ACF503E268A
:1008280012D0010E3126000E322233223422C8ECB7
:1008380008F0A10E315C860E3258010E3358000EB6
:100848003458D8B002D080A0ECD7000E316E000E1C
:10085800326E000E336E000E346ECECF3FF0406A1B
:10086800CF5040263DC022F03EC023F0221E231E5A
:10087800224A232A3F502224376E40502320386EC4
:100888003BC022F03CC023F0221E231E224A232A0A
:100898003D502224356E3E502320366E3550372683
:1008A8003650382235C016F036C017F0000E196ED3
:1008B800640E186EDBEC08F016C035F017C036F081
:1008C800D8903830236E3730226E22503526235088
:1008D8003622400E00017F6F420E0001806F0F0E1E
:1008E8000001816F000E0001826F7FC013F080C08D
:1008F80014F081C015F082C016F037C017F038C068
:1009080018F0196A1A6AC8EC06F013C07FF014C010
:1009180080F015C081F016C082F07FC020F080C042
:1009280021F012002FC060F00001616B626B0001C2
:100938002E340001603701E361810001605100013C
:100948006A6F00016A6701D04FD0170E0001606F0F
:100958002DC061F02EC062F02FC063F00001602945
:100968000001646F05D00001D890633362336133AE
:100978000001642FF8D7000161510001656F2E8EC8
:10098800FF0E2D16FF0E2E16000E2F162D500001ED
:10099800666F2E500001676F2F500001686F0001CD
:1009A800696B8E0E00016A5F00016AAF19D0000101
:1009B8006A51800A0001606FF10E800A0001605DD3
:1009C800D8A012D00001D890000169330001683323
:1009D800000167330001663300016A3FF3D71CD07A
:1009E800170E00016A6515D0000E2D6E000E2E6ED2
:1009F800000E2F6E000E306E2AD00001D890000134
:100A08006637000167370001683700016937000160
:100A18006A0700016A67F1D700016551D8B40FD0A1
:100A28000001691F0001681F0001671F0001666D52
:100A3800000E00016723000168230001692366C0D6
:100A48002DF067C02EF068C02FF069C030F012009A
:100A5800000E046E8A868A848A828A8042D08A96A8
:100A68004550010D0001750EF324D96E0001000EEA
:100A7800F420DA6EDF508C6E44A64AD02FD08A94C8
:100A88004350010D0001750EF324D96E0001000ECC
:100A9800F420DA6EDF508C6E44A43AD01FD08A92CC
:100AA8004650010D0001750EF324D96E0001000EA9
:100AB800F420DA6EDF508C6E44A22AD00FD08A90D0
:100AC8004750010D0001750EF324D96E0001000E88
:100AD800F420DA6EDF508C6E44A01AD0010E046E3A
:100AE80017D0000183C001F0000184C002F0025059
:100AF800000AD8A40DD00150000AD8B4B0D7010A12
:100B0800D8B4BDD7030AD8B4CAD7010AD8B4D7D73E
:100B18000404D8B48C9048500F0AD8B404D000010B
:100B2800834B842B06D0000E0001846F0F0E00014A
:100B3800836F4850016E026A0250800A036E0001FA
:100B48008351015C00018451800A0358D8B006D053
:100B5800000E0001846F000E0001836F120020C098
:100B680024F0256A266A1F34243601E325802450A0
:100B7800276E276601D00CD023C024F0256A266A88
:100B88002234243601E3258024502C6E2C6607D0AD
:100B9800000E1E6E000E1F6E000E206E51D02C50DF
:100BA8007B0F272620C02CF023502C1A800E2C16E1
:100BB8001F8E228EFF0E2116FF0E2216000E231600
:100BC800000E286E000E296E000E2A6E070E2B6E80
:100BD8001EA006D0215028262250292223502A223E
:100BE800D89020321F321E32D89021362236233632
:100BF8002B2EEED7090E2B6E1EA006D021502826CC
:100C08002250292223502A22D89020321F321E3205
:100C1800D8902A32293228322B2EEED728C013F04A
:100C280029C014F02AC015F027C016F02CC017F000
:100C380025EC06F013C01EF014C01FF015C020F0FC
:100C480012001650D8B405D0135014101510D8A49B
:100C58000CD0000E136E000E146E000E156E44D0EC
:100C6800162AD890153214321332000E1314186E47
:100C7800000E1414196EFE0E15141A6E1850191061
:100C88001A10D8B40CD0ECD7162A010E1326000E71
:100C98001422000E1522D890153214321332000E89
:100CA8001314186E000E1414196EFF0E15141A6E14
:100CB800185019101A10D8B406D0E6D71606D890CE
:100CC80013361436153614AEF9D716A0149ED890DC
:100CD8001632165015121750D8A4158E13C013F0DB
:100CE80014C014F015C015F01200020E48EC07F0FD
:100CF8001450496E4A6A000E246E580E236E000E78
:100D0800266E580E256EADEC07F028D0000E6DEC5F
:100D180008F0010EB2EC08F0020EB2EC08F033D085
:100D2800010E6DEC08F0010EB2EC08F0020E9CEC1E
:100D380008F029D0020E6DEC08F0010E9CEC08F0CA
:100D4800020EB2EC08F01FD0030E6DEC08F0010E95
:100D58009CEC08F0020E9CEC08F015D049C027F076
:100D68004AC028F02850000AD8A40DD02750000AFD
:100D7800D8B4CCD7010AD8B4D3D7030AD8B4DAD7B1
:100D8800010AD8B4E1D71200000E1B6E000E1C6ECB
:100D9800000E1D6E000E1E6E1A5017101810191036
:100DA800D8B42AD0010E1F6E06D0D8901736183640
:100DB80019361A361F2A1AAEF8D7D8901B361C36A1
:100DC8001D361E361750135C1850145819501558F4
:100DD8001A501658D8A009D01750135E1850145A34
:100DE8001950155A1A50165A1B80D8901A321932AF
:100DF800183217321F2EE1D71BC013F01CC014F095
:100E08001DC015F01EC016F012000600EACF08F04B
:100E1800E1CF09F0E2CF0AF0D9CF0BF0DACF0CF02E
:100E2800F3CF0DF0F4CF0EF0F6CF0FF0F7CF10F0B0
:100E3800F8CF11F0F5CF12F0F294E00ED76EC00E95
:100E4800D66E2CEC05F0414A422A394A3A2A12C099
:100E5800F5FF11C0F8FF10C0F7FF0FC0F6FF0EC076
:100E6800F4FF0DC0F3FF0CC0DAFF0BC0D9FF0AC0B6
:100E7800E2FF09C0E1FF08C0EAFF07C0E9FF06C0BA
:100E8800FBFF05C0FAFF1100156E0B0EC16EA50E13
:100E9800C06E19D00B0EC16EA50EC06E010E11D01A
:100EA8000B0EC16EA50EC06E050E0BD00B0EC16EDB
:100EB800A50EC06E090E05D00B0EC16EA50EC06E34
:100EC8000D0EC26E0DD01550000AD8B4E3D7010A32
:100ED800D8B4E6D7030AD8B4E9D7010AD8B4ECD70E
:100EE800C282C2B2FED7C3CF13F0C4CF14F012002F
:100EF80000EE7FF0080EEE6AE806FDE100EE31F044
:100F0800140EEE6AE806FDE1400EF66E120EF76E5C
:100F1800000EF86E00EE75F010EE0AF00900F5CF3D
:100F2800EEFFE550E150FAE1660EF66E120EF76E2E
:100F3800000EF86E00EE45F010EE04F00900F5CF53
:100F4800EEFFE550E150FAE1000EF86E00010EEFF9
:100F580000F023C01CF024C01DF0000E1F6E0A0E06
:100F68001E6EDEEC07F01C50456E23C013F024C043
:100F780014F0000E166E0A0E156E2EEC08F01350C3
:100F8800436E25C01CF026C01DF0000E1F6E0A0E11
:100F98001E6EDEEC07F01C50466E25C013F026C00E
:100FA80014F0000E166E0A0E156E2EEC08F0135093
:100FB800476E1200000E226E000E216E1F501E108A
:100FC800D8B41CD0010E206E04D0D8901E361F361F
:100FD800202A1FAEFAD7D890213622361E501C5C24
:100FE8001F501D58D8A005D01E501C5E1F501D5AFA
:100FF8002180D8901F321E32202EEDD721C01CF040
:1010080022C01DF01200030E48EC07F013C016F0C2
:1010180014C017F0000E196E050E186EDBEC08F000
:10102800640E165C000E1758D8B007D016EC09F0FD
:10103800010E0001866FF40E06D02AEC09F0000EAE
:101048000001866F000E0001856F85C01CF086C008
:101058001DF0120016501510D8B418D0010E176ED6
:1010680004D0D89015361636172A16AEFAD715506A
:10107800135C16501458D8A004D01550135E16509F
:10108800145AD89016321532172EF1D713C013F010
:1010980014C014F012009494070ECA6E0C0EBD6EA4
:1010A80023C016F024C017F0000E196E530E186EE8
:1010B800DBEC08F016C01CF017C01DF0030E1F6E05
:1010C800E80E1E6EDEEC07F01C50BE6E310ECB6EC5
:1010D8001200136E09D00F0E05D0030E03D0070EB1
:1010E80001D00B0E486E0DD01350000AD8B4F3D7B8
:1010F800010AD8B4F6D7030AD8B4F1D7010AD8B48C
:10110800ECD71200136E9398939A949406D08A7829
:101118000ED08A7A0CD08B740AD01350010AD8B436
:10112800F6D7030AD8B4F5D7010AD8B4F4D7120011
:10113800136E9398939A949406D08A880ED08A8ACC
:101148000CD08B840AD01350010AD8B4F6D7030AFE
:10115800D8B4F5D7010AD8B4F4D71200136E93980F
:10116800939A949406D08A980ED08A9A0CD08B942D
:101178000AD01350010AD8B4F6D7030AD8B4F5D761
:10118800010AD8B4F4D71200C30E395C010E3A58DC
:10119800D8A00CD0010E86EC08F08AB802D08A8A52
:1011A80001D08A9A000E3A6E000E396E120016505F
:1011B8001802F3CF1AF0F4CF1BF016501902F350AF
:1011C8001B2617501802F3501B261AC016F01BC016
:1011D80017F012001BC013F01CC014F0156A8E0E15
:1011E800166E000E176E25EC06F013C01BF014C027
:1011F8001CF015C01DF01200000ECA6E9484948273
:101208008B948B92000EBD6E000EBA6E1200146E97
:101218000D0E136EFC0EE82EFED7132EFCD7142EDF
:10122800F7D712009492070ECA6E0F0EBA6E2A0EE6
:10123800BB6E520ECB6E1200039F250D9949411BC0
:10124800010994848B94000EBD6E120094828B92D7
:10125800000EBA6E1200136E13C044F012000103A0
:0212680004037D
:020000040020DA
:08000000FFFFFFFFFFFFFFFF00
:020000040030CA
:0E000000000C1F1EFF8181FF0FC00FE00F409C
:00000001FF
