:040000000CEF00F011
:10000800FACF05F0FBCF06F0E9CF07F0DBED00F003
:1000180073EF03F0000E246E000E236E000E146EB4
:10002800000E136EF3EC03F0020EC0EC03F023C0D5
:1000380013F024C014F0F3EC03F0D8902334136EBB
:100048002434146E000E166E640E156E05EC03F063
:1000580013C01FF014C020F0D8902334136E24343A
:10006800146E000E166E640E156E52EC03F013C07B
:1000780021F014C022F01FC01AF020C01BF021C0CC
:100088001CF022C01DF08EEC03F09DEC02F0030A78
:10009800D8A43DD02E0E235C000E2458D8B004D02E
:1000A800050E2326000E2422D8902334136E243400
:1000B800146E000E166E640E156E05EC03F013C078
:1000C8001FF014C020F0D8902334136E2434146E1B
:1000D800000E166E640E156E52EC03F013C021F07C
:1000E80014C022F01FC01AF020C01BF021C01CF061
:1000F80022C01DF08EEC03F023C013F024C014F0CE
:10010800F3EC03F09DEC02F00009D8A4FBD79DECBA
:1001180002F0020AD8A43DD0050E235C000E245834
:10012800D8A004D0050E235E000E245AD89023349C
:10013800136E2434146E000E166E640E156E05ECE4
:1001480003F013C01FF014C020F0D8902334136EAE
:100158002434146E000E166E640E156E52EC03F005
:1001680013C021F014C022F01FC01AF020C01BF0E9
:1001780021C01CF022C01DF08EEC03F023C013F048
:1001880024C014F0F3EC03F09DEC02F00009D8A4AD
:10019800FBD79DEC02F01E6E1E04D8A448D705ECD0
:1001A80004F09DEC02F00009D8B41200FAD706005A
:1001B800EACF08F0E1CF09F0E2CF0AF0D9CF0BF08F
:1001C800DACF0CF0F3CF0DF0F4CF0EF0F6CF0FF03E
:1001D800F7CF10F0F8CF11F0F5CF12F0F294F00E3F
:1001E800D76E600ED66E46EC01F0334A342A2F4A99
:1001F800302A314A322A29042A10D8A411D03004CE
:10020800EF0ED8B42F18D8B48B82DE0E2F5C030EF5
:100218003058D8A005D0000E306E000E2F6E8B928D
:100228002950020A2A10D8A410D03150310A3210AD
:10023800D8B48B82630E315C000E3258D8A005D03A
:10024800000E326E000E316E8B9212C0F5FF11C097
:10025800F8FF10C0F7FF0FC0F6FF0EC0F4FF0DC087
:10026800F3FF0CC0DAFF0BC0D9FF0AC0E2FF09C0D8
:10027800E1FF08C0EAFF07C0E9FF06C0FBFF05C0B1
:10028800FAFF1100000E046E8D848D828D802CD0B3
:100298008D944150010D370EF324D96E000EF420D1
:1002A800DA6EDF508C6E36A431D01BD08D9235506B
:1002B800010D370EF324D96E000EF420DA6EDF50EC
:1002C8008C6E36A223D00DD08D904250010D370E82
:1002D800F324D96E000EF420DA6EDF508C6E36A04F
:1002E80015D0010E046E12D025C001F026C002F010
:1002F8000250000AD8A40AD00150000AD8B4C8D7BE
:10030800010AD8B4D3D7030AD8B4DED70404D8B4C2
:100318008C9E254A262A4350016E026A0250800AA2
:10032800036E2550015C2650800A0358D8B004D0CB
:10033800000E266E000E256E1200020EC0EC03F0B1
:100348008B82030E2E6E780E2D6E020E2EEC03F0AD
:100358001450276E286A28502710D8B403D0020EEC
:10036800C0EC03F02750020A2810D8A403D0010ECD
:10037800C0EC03F02750030A2810D8A403D0000EBD
:10038800C0EC03F02DC013F02EC014F0000E166E52
:10039800640E156E05EC03F013C01FF014C020F0B6
:1003A8002DC013F02EC014F0000E166E640E156EDC
:1003B80052EC03F013C021F014C022F01FC01AF051
:1003C80020C01BF021C01CF022C01DF08EEC03F0F1
:1003D8009DEC02F01E6E1E04D8A4B2D79DEC02F06C
:1003E8000009D8B41200FAD7020EC0EC03F0010ECF
:1003F8002EEC03F013C02DF014C02EF0E80E2D5C87
:10040800030E2E58D8A004D0030E2E6EE70E2D6EC4
:100418002DC01EF02EC01FF01E1E1F1E1E4A1F2AB2
:10042800E70E1E242D6E030E1F202E6E2DC013F016
:100438002EC014F0000E166E640E156E05EC03F057
:1004480013C020F014C021F02DC013F02EC014F0FA
:10045800000E166E640E156E52EC03F013C022F0F7
:1004680014C023F020C01AF021C01BF022C01CF0D9
:1004780023C01DF08EEC03F09DEC02F01E6E1E04EE
:10048800D8A4B5D79DEC02F00009D8B41200FAD769
:10049800949E949C9368020EC0EC03F08B928B8C14
:1004A800020EFDEC03F000F000F000F000F000F0A8
:1004B80000F000F000F08B9CA9EC03F081CF1EF057
:1004C8000F0E1E161E501F6E206A81CF1EF01E3A98
:1004D8000F0E1E161E50216E226A21C013F022C074
:1004E80014F0000E166E0A0E156ED4EC03F01F50B1
:1004F80013242D6E205014202E6E000E1B6E000E3D
:100508001A6E2DC01CF02EC01DF08EEC03F0000EEC
:10051800146E320E136EE7EC03F09DEC02F01E6EC3
:100528001E04D8A4BBD79DEC02F00009D8B4120071
:10053800FAD7010E166E000E2EEC03F013C02BF046
:1005480014C02CF0E80E2B5C030E2C58D8B006D043
:10055800000E146E0A0E136EE7EC03F0000E2EEC7C
:1005680003F013C02BF014C02CF0FB0E2B5C000E14
:100578002C58D8A002D0020E166E590E2B5C020E13
:100588002C58D8A002D0030E166E530E2B5C030E07
:100598002C58D8A002D0000E166E16501200000E6D
:1005A800966E000E956E000E946E92800F0EC16EC0
:1005B800000E2E6E000E2D6E880ED56EF00ED76EC4
:1005C800600ED66ED08EF28AF294F184F28CF28E9E
:1005D8004CEC02F0000E2A6E010E296E0EEC00F0B3
:1005E800000E2A6E020E296EF8EC01F0000E2A6E3B
:1005F800030E296EA1EC01F0000E2A6E000E296E82
:10060800E7D7000E186E000E176E16501510D8B4E6
:100618001CD0010E196E04D0D89015361636192A3A
:1006280016AEFAD7D890173618361550135C1650F0
:100638001458D8A005D01550135E1650145A1780B8
:10064800D89016321532192EEDD717C013F018C0EE
:1006580014F01200156E0B0EC16EBD0EC06E09D0DF
:10066800010E05D0050E03D0090E01D00D0EC26E85
:100678000DD01550000AD8B4F3D7010AD8B4F2D770
:10068800030AD8B4F1D7010AD8B4F0D7C282C2B2EB
:10069800FED7C3CF13F0C4CF14F0120016501510B4
:1006A800D8B418D0010E176E04D0D8901536163667
:1006B800172A16AEFAD71550135C16501458D8A03E
:1006C80004D01550135E1650145AD89016321532AD
:1006D800172EF1D713C013F014C014F0120000EE57
:1006E80025F0120EEE6AE806FDE1180EF66E080E09
:1006F800F76E000EF86E00EE37F010EE0DF0090000
:10070800F5CFEEFFE550E150FAE1000EF86E00017A
:10071800D3EF02F01AC041F01CC013F01DC014F052
:10072800000E166E0A0E156E05EC03F01350356EAA
:100738001CC013F01DC014F0000E166E0A0E156EC4
:1007480052EC03F01350426E1200949E960E146EF3
:1007580010D08B8E080EFDEC03F000F000F000F0D6
:1007680000F08B9E080EFDEC03F000F000F000F0A6
:1007780014061466EED71200136E07D00F0E03D0BE
:10078800060E01D0020E436E0AD01350000AD8B4E8
:10079800F5D7010AD8B4F4D7030AD8B4F3D71200AE
:1007A80013501502F3CF17F0F4CF18F013501602B8
:1007B800F350182614501502F350182617C013F0DA
:1007C80018C014F012003350132634501422345039
:1007D800141802E133501318D8B41200F8D79494BF
:1007E800070ECA6E0C0EBD6E13C0BEFF640ECB6E34
:1007F8001200136E030EE82EFED700F0132EFAD760
:100808001200000ECA6E94948B94000EBD6E1200F6
:0E081800C0F9A4B0999282D88090010302002A
:020000040020DA
:08000000FFFFFFFFFFFFFFFF00
:020000040030CA
:0E000000000C1F1EFF8181FF0FC00FE00F409C
:00000001FF
