:020000040000FA
:0600000034EF2FF01200A6
:020006001200E6
:060008008DEF18F012005C
:02000E00C250DE
:08001000020B01E0010E1200D9
:060018008DEF16F012004E
:02001E000200DE
:10002000105F000060000000670000000E5F00002D
:08003000D100000002000000F5
:08003800D9CFE6FFE1CFD9FFAB
:10004000020EE126DF6A010EDB6ADF6A080EDF5C62
:100050002CE28D90180EE66E5EEC2FF0E552FE0E4F
:10006000DB50800B02E0010E01D0000EE8B08D8263
:10007000E8A08D92FE0EDB50020DFE0EF3CFDBFFEB
:100080008D80180EE66E5EEC2FF0E5528450040B66
:1000900001E0010E146E010EDB50E8241424E76E1B
:1000A000010EE7CFDBFFDF2AD1D7010EDB50146E44
:1000B000020EE15C02E2E16AE552E16E1450E552A3
:1000C000E7CFD9FF1200D9CFE6FFE1CFD9FF899A58
:1000D000FE0EDB507F0BE66EAFDFE552FD0EDBCF91
:1000E000E6FFAADFE552898AE552E7CFD9FF120081
:1000F000D9CFE6FFE1CFD9FFE652899AFE0EDB5059
:100100007F0BE66E99DFE552DF6AFD0EDB50DF5CA8
:1001100012E2DF50E76EFB0EDBCFE9FFFC0EDBCF18
:10012000EAFFE750E926000EEA22EF50E66E84DF90
:10013000E552DF2AEAD7898AE552E552E7CFD9FFAF
:100140001200D9CFE6FFE1CFD9FFE652899AFE0E21
:10015000DB508009E66E70DFE552E66A6DDFE5523E
:10016000DF6E898ADF50E552E552E7CFD9FF1200F2
:10017000D9CFE6FFE1CFD9FFE652FD0EDB5039E0E3
:10018000DF6A899AFE0EDB508009E66E55DFE55284
:10019000DF6AFD0EDB04DF5C18E2FE0EDB50800937
:1001A000E66E4ADFE552E66EDF50E76EFB0EDBCF10
:1001B000E9FFFC0EDBCFEAFFE750E926000EEA225A
:1001C000E552E750EF6EDF2AE4D7E66A35DFE55205
:1001D000E66EDF50E76EFB0EDBCFE9FFFC0EDBCFF8
:1001E000EAFFE750E926000EEA22E552E750EF6EFB
:1001F000898AE552E552E7CFD9FF1200D9CFE6FF51
:10020000E1CFD9FFE652FE0EDBCFE6FF9ADFE552E3
:10021000DF6EFD0EDB50DF10E66EFE0EDBCFE6FF7D
:1002200052DFE552E552E552E552E7CFD9FF120021
:10023000D9CFE6FFE1CFD9FFE652FE0EDBCFE6FFD6
:1002400080DFE552DF6EFD0EDB1CDF14E66EFE0E76
:10025000DBCFE6FF38DFE552E552E552E552E7CF66
:10026000D9FF1200D9CFE6FFE1CFD9FF030EE12677
:10027000E66A020EE66E27DFE552E552040EE66EF0
:100280000A0EE66E20DFE552E552800EE66E140E91
:10029000E66E19DFE552E552FD0EDBCFE6FFFE0EFE
:1002A000DBCFE6FFFC0EDBCFE6FF120EE66E20DFB3
:1002B000E552E552E552E552030EE66E020EE66E99
:1002C00002DFE552E552880EDE6E130EDD6ED9CFE9
:1002D000E9FFDACFEAFF000ED880EE54000EED54AD
:1002E00038E20A0EE66E2DDFE552E76E020EE7CF2A
:1002F000DBFFDBA429D0E66AE66EE5DEE552E552D7
:10030000440EE66E1EDFE552E66EFA0EDBCFE9FF25
:10031000FB0EDBCFEAFFE552E750EF6E420EE66ED2
:1003200010DFE552E66E010EE76EFA0EDBCFE9FF55
:10033000FB0EDBCFEAFFE750E926000EEA22E5528A
:10034000E750EF6E000E06D0DF06010EC0E2DB06BE
:10035000BED7030E146E030EE15C02E2E16AE552C1
:10036000E16E1450E552E7CFD9FF12008A9AF00EE1
:10037000E66E14EC2FF0E552F00EE66E14EC2FF062
:10038000E552780EE66E14EC2FF0E5528A8A898ADF
:100390003FD8E66A240EE66E96DEE552E552E66A3E
:1003A000260EE66E90DEE552E552260EE66E480E0B
:1003B000E66E89DEE552E552800EE66E540EE66E7C
:1003C00082DEE552E552A90EE66E560EE66E7BDE43
:1003D000E552E552030EE66E580EE66E74DEE55207
:1003E000E552E80EE66E5A0EE66E6DDEE552E55217
:1003F000400EE66E2A0EE66E66DEE552E5523D0ED2
:10040000E66E220EE66E5FDEE552E55225EF02F063
:100410000F0EE66E020EE66E56DEE552E552F00E67
:10042000E66E14EC2FF0E552F00EE66E14EC2FF0B1
:10043000E552780EE66E14EC2FF0E552020EE66EF1
:1004400080DEE552100BFAE11200D9CFE6FFE1CFD2
:10045000D9FFE652280EE66E74DEE552DF6E030E1B
:10046000DF14030808E0030EDF10E66E280EE66EC8
:100470002ADEE552E552E552E552E7CFD9FF1200F8
:10048000030EE66E280EE66ED3DEE552E55212004C
:100490004C0EE66E56DEE552700B1200D9CFE6FF29
:1004A000E1CFD9FFF5DF146EFE0EDB50145C10E0D7
:1004B000700EE66E4C0EE66EBBDEE552E552FE0EA9
:1004C000DB50700BE66E4C0EE66E98DEE552E552A0
:1004D000E552E7CFD9FF1200D9CFE6FFE1CFD9FF30
:1004E000E652300EDF6EF40EDBCFE6FFF50EDBCF0B
:1004F000E6FFF60EDBCFE6FFF70EDBCFE6FFF80EEA
:10050000DBCFE6FFF90EDBCFE6FFFA0EDBCFE6FF2F
:10051000FB0EDBCFE6FFFC0EDBCFE6FFFD0EDBCFF5
:10052000E6FFFE0EDBCFE6FFDFCFE6FF0C0EE66E4A
:1005300009D8146E0D0EE15E1450E552E552E7CF76
:10054000D9FF1200D9CFE6FFE1CFD9FF0B0EE1268C
:10055000030EDB6AD950F40FE96EFF0EDA20EA6E63
:10056000EE50ED1008E0F40EDBCFE9FFF50EDBCF27
:10057000EAFFEF5001D0000EE76E080EE7CFDBFF79
:10058000DBCFE6FFF30EDB38F00BE552E724E76E36
:10059000090EE7CFDBFFE66A020EE66E94DDE55258
:1005A000E5527F0EE66E080EE66E8DDDE552E552F1
:1005B000800EE66E140EE66E86DDE552E552FB0E09
:1005C000DBCFE6FFFC0EDBCFE6FFFA0EDBCFE6FF6C
:1005D000120EE66E8DDDE552E552E552E552090E4A
:1005E000DBCFE6FF1A0EE66E6EDDE552E552FE0E3B
:1005F000DBCFE6FF020EE66E66DDE552E552FE0E4B
:10060000DB500C0807E1800EE66E1A0EE66EF6DD92
:10061000E552E552D00EDE6E070EDD6ED9CFE9FF52
:10062000DACFEAFF000ED880EE54000EED5418E247
:10063000080EE66E86DDE552E76E0A0EE7CFDBFFB9
:10064000FD0EDBCFE6FF0A0EDB50E552E71408E1B2
:100650000A0EDBB00CD0DF06010EE0E2DB06DED7CF
:10066000D9CFE9FFDACFEAFFEE50ED1002E1030E39
:10067000F8D00C0EE66E65DDE552E76E020EE7CFB0
:10068000DBFFDB50130B02E0010EEBD0D950F80F6B
:10069000E96EFF0EDA20EA6EEE50ED1056E0D9500A
:1006A000F60FE96EFF0EDA20EA6EEE50ED104DE027
:1006B000140EE66E46DDE552E76E040EE7CFDBFF73
:1006C000DBCF14F0F60EDBCFE9FFF70EDBCFEAFF4E
:1006D000EF50D880145402E2040EC3D0F60EDBCFE4
:1006E000E9FFF70EDBCFEAFF040EDBCFEFFFF30EDF
:1006F000DBCFE6FFF80EDBCFE6FFF90EDBCFE6FF40
:10070000040EDBCFE6FF120EE66E32DD146E050E30
:10071000E15E1450180EE66E14DDE552070BE76E2D
:10072000030EE7CFDBFFD950F40FE96EFF0EDA209E
:10073000EA6EEE50ED1009E0F40EDBCFE9FFF50EA6
:10074000DBCFEAFF030EDBCFEFFF020EDBB689D073
:10075000D950F80FE96EFF0EDA20EA6EEE50ED1078
:1007600001E17ED0D950F60FE96EFF0EDA20EA6E75
:10077000EE50ED1075E0F20EDB5072E0F60EDBCFBE
:10078000E9FFF70EDBCFEAFFEF0406E1030EDB50D3
:10079000040802E1FF0E65D0F60EDBCFE9FFF70E8D
:1007A000DBCFEAFFEFCF14F0020E145C57E3030E29
:1007B000DB5054E1D950060FE66E000EDA20E66EEB
:1007C000F60EDBCFE9FFF70EDBCFEAFFEF50FE0FAF
:1007D000E66EF80EDBCFE6FFF90EDBCFE6FF42DD7B
:1007E000146E050EE15E1450E76E050EE7CFDBFFD9
:1007F000DB5003E0050EDB5034D0F60EDBCFE9FF13
:10080000F70EDBCFEAFFEF50FE0FE76EF80EDBCFFF
:10081000E9FFF90EDBCFEAFFE750E926000EEA22F6
:10082000EFCF14F0060EDB50145C18E1F60EDBCFB0
:10083000E9FFF70EDBCFEAFFEF04E76EF80EDBCF40
:10084000E9FFF90EDBCFEAFFE750E926000EEA22C6
:10085000EFCF15F0070EDB50155C02E0070E01D05C
:10086000000E146E0B0EE15C02E2E16AE552E16EED
:100870001450E552E7CFD9FF1200D9CFE6FFE1CF00
:10088000D9FFFB0EDBCFE6FFFC0EDBCFE6FFFD0E54
:10089000DBCFE6FFFE0EDBCFE6FF260EE66E23D8AB
:1008A000146E050EE15E1450E552E7CFD9FF120039
:1008B000D9CFE6FFE1CFD9FFFB0EDBCFE6FFFC0E81
:1008C000DBCFE6FFFD0EDBCFE6FFFE0EDBCFE6FF64
:1008D000520EE66E08D8146E050EE15E1450E55215
:1008E000E7CFD9FF1200D9CFE6FFE1CFD9FF020E43
:1008F000E126D950FC0FE96EFF0EDA20EA6EEE50C9
:10090000ED100BE0FA0EDBCFE9FFFB0EDBCFEAFFC9
:10091000EFCF14F0020E145C02E2040E3FD0800E02
:10092000E66E1C0EE66E84DCE552E552070EDF6EC5
:10093000E66AE66AD9CFE6FFDACFE6FFFA0EDBCF4A
:10094000E6FFFB0EDBCFE6FFFC0EDBCFE6FFFD0E86
:10095000DBCFE6FF010EE66ED950FE0FE66EFF0E0E
:10096000DA20E66EB9DD146E0B0EE15E1450E76E10
:10097000010EE7CFDBFFDB5003E0010EDB500ED0B2
:10098000FA0EDBCFE9FFFB0EDBCFEAFFEF500208E8
:1009900002E1DF5002E0010E01D0000E146E020EE3
:1009A000E15C02E2E16AE552E16E1450E552E7CF04
:1009B000D9FF1200D9CFE6FFE1CFD9FF1C0EE12607
:1009C000010EF36E030EF3CFDBFFFC0EDB5050087D
:1009D00002E2060E3DD3800EE66E1C0EE66E28DCAB
:1009E000E552E552DF6ADF5001E023D3030EDB500E
:1009F000030A38E0010A18E0030A01E0FFD1930E70
:100A0000F36E090EF3CFDBFF070EDB6AFC0EDB5043
:100A100021E0FD0EDBCFE9FFFE0EDBCFEAFFEF505A
:100A2000040818E2010E19D0950EF36E090EF3CFEB
:100A3000DBFF030EF36E070EF3CFDBFFFC0EDB5084
:100A400009E0FD0EDBCFE9FFFE0EDBCFEAFFEF5042
:100A5000070802E3000E01D0010EE76E020EE7CF99
:100A6000DBFF0CD0970EF36E090EF3CFDBFF060E03
:100A7000F36E070EF3CFDBFF020EDB6AFC0EDBCF5B
:100A8000E6FF070EDB50080DF350E552E75CE76E1A
:100A9000080EE7CFDBFFDBCF14F0143402E3080EBF
:100AA000DB6A020EF36E060EF3CFDBFF020EDB50A5
:100AB00012E0D950090F146EDACF15F0060EDBCF15
:100AC000F3FFDB2AF3500F011424E96E000EDA2045
:100AD000EA6E880EEF6E080EDBCF16F016C009F036
:100AE0000E6E80EC2BF0055002E0010E01D0000EDE
:100AF000156E080E146E0E6EDBCF09F080EC2BF035
:100B000009501524E76E180EE7CFDBFFDB5052E0EB
:100B1000020EDB5002E0030E01D0040EE76E1B0E46
:100B2000E7CFDBFF180EDBCF14F01B0EDB50D880B5
:100B3000145406E21B0EDB50E76E180EE7CFDBFF06
:100B4000050EDB6A180EDB50F36E050EDBCFF4FFEB
:100B5000F350F45C2FE2FD0EDBCFE9FFFE0EDBCF9E
:100B6000EAFFEE52E9CF16F0EACF17F0050EDBCF21
:100B7000E6FF070EDB50E552E7240F01E924E96E9A
:100B8000000EEA20EA6EEF50E66ED950090F146E9F
:100B9000DACF15F0060EDBCFF3FFDB2AF350142477
:100BA000E96E000EDA20EA6EE552E750EF6E050EB0
:100BB000DB2AC8D7020EDB5009E0080E146EDBCF2B
:100BC000E7FFE850E726080EE7CFDBFF010EDB6A00
:100BD000010EDB5001E06DD1080EDBCF14F0200ECA
:100BE000E76E1418E8AE02D0E73402D0E750145C88
:100BF0004DE3700EF36E0A0EF3CFDBFF0E0EDBCF6C
:100C0000E6FF0D0EDBCFE6FF0C0EDBCFE6FF0B0E93
:100C1000DB50E552E718E552E718E552E718E76EB2
:100C20000F0EE7CFDBFFD950100FE66E000EDA2073
:100C3000E66E070EE66ED950090FE66E000EDA205A
:100C4000E66E32EC01F0146E050EE15E1450E76EB4
:100C5000040EE7CFDBFFDB5001E09ED1140EDB6A10
:100C6000090EF36E120EF3CFDBFFD9500F0F146E87
:100C7000DACF15F0150E14C0DBFF160EDACFDBFF4E
:100C8000030EF36E170EF3CFDBFF55D0080EDBCF4C
:100C900014F014C009F00E6E80EC2BF0140E05C099
:100CA000DBFF080E146E0E6EDBCF09F080EC2BF02C
:100CB000050E09C0DBFFDB50020FE76E060EE7CF23
:100CC000DBFF140EDBCFE6FF060EDB38F00BE55240
:100CD000E724E76E0A0EE7CFDBFF060EDBCFE6FF69
:100CE000140EDB5002E0010E01D0000EE552E724A5
:100CF000E76E120EE7CFDBFFD950090F166EDACF81
:100D000017F0060EDB5000011624146E000EDA20D8
:100D1000156E150E14C0DBFF160E15C0DBFF060E98
:100D2000DB50146E156A090ED8801456000E155645
:100D3000170E14C0DBFF140EDB50E76E130EE7CF67
:100D4000DBFF140EDBCFE6FF130EDB38F00BE552B2
:100D5000E724E66E1A0EE66E63EC00F0E552E5520B
:100D6000E66A130EDBCFE6FFD950140FE66E000ED5
:100D7000DA20E66ED950170FE66E000EDA20E66E26
:100D8000150EDBCFE6FF160EDBCFE6FF120EDBCF34
:100D9000E6FFD950090FE66E000EDA20E66E6CEC25
:100DA00002F0146E0B0EE15E1450E76E040EE7CFF6
:100DB000DBFFDB50020862E11C0EE66EA1EC00F0E6
:100DC000E552E76E190EE7CFDBFFDBAA02D0020E79
:100DD0003FD1DB501F0BE76E1A0EE7CFDBFFDB5076
:100DE00005E1200EF36E1A0EF3CFDBFF1A0EDBCFF8
:100DF00014F0080EDB50D880145402E3050E28D1FD
:100E00001A0EDB50E76E080EE7CFDBFFDB04146E33
:100E1000096E080E0E6E80EC2BF0050E05C0DBFF90
:100E2000DB5002E0010E01D0000E156E080E146EAC
:100E30000E6EDBCF09F080EC2BF009281524E76E4D
:100E4000060EE7CFDBFF010EF36E050EDB5004E06C
:100E5000D890F336E806FCE1F350166ED950090F2E
:100E6000146EDACF15F0060EDB500F011424E96E74
:100E7000000EDA20EA6EF350EF12AAD6040EDB5011
:100E800001E08AD0080EDBCF14F0200EE76E1418B4
:100E9000E8AE02D0E73402D0E750145C04E3DE523F
:100EA000010EDD6E95D6200EF36E080EF3CFDBFF3C
:100EB0008FD60B0EDB50880802E1030E01D0020E24
:100EC000E76E060EE7CFDBFF0B0EDB50880802E172
:100ED000030E01D0040EE76E180EE7CFDBFF050E00
:100EE000DB6A180EDB50F36E050EDBCFF4FFF35018
:100EF000F45C2FE2D950090F166EDACF17F0060E08
:100F0000DBCFF3FFDB2AF3500F011624E96E000E4E
:100F1000DA20EA6EEF50E66EFD0EDBCFE9FFFE0E43
:100F2000DBCFEAFFEE52E9CF14F0EACF15F0050E61
:100F3000DBCFE6FF070EDB50E552E724E924E96E3C
:100F4000000EEA20EA6EE552E750EF6E050EDB2A4E
:100F5000C8D7170EDB50030803E1140EDB5002E084
:100F6000010E76D0D9500B0FE66E000EDA20E66E39
:100F7000010EE66E150EDBCFE6FF160EDBCFE6FFA9
:100F800032EC01F0146E050EE15E1450E76E040EB3
:100F9000E7CFDBFFDB5003E0040EDB5059D0010E3E
:100FA000E76E150EDBCFE9FF160EDBCFEAFFE75049
:100FB000E926000EEA22EF50F36E0B0EDB50F35CD5
:100FC00012E1020EE76E150EDBCFE9FF160EDBCF46
:100FD000EAFFE750E926000EEA22EF50F36E0C0E0E
:100FE000DB50F35C02E0070E33D0150EDBCFE9FFD8
:100FF000160EDBCFEAFFEF50040B03E0030EDB2AF3
:10100000F2D4010EDF6E150EDBCFE9FF160EDBCF3B
:10101000EAFFEF50E66EFD0EDBCFE9FFFE0EDBCF01
:10102000EAFF0B0EE926000EEA22E552E750EF6ECA
:10103000DAD4030EDB50030DF328E66EFD0EDBCF92
:10104000E9FFFE0EDBCFEAFFE552E750EF6E000E40
:10105000146E1C0EE15C02E2E16AE552E16E14508E
:10106000E552E7CFD9FF1200D9CFE6FFE1CFD9FF94
:10107000050EE126DE52500EDD6E020EDB6AD950FF
:10108000030FE66E000EDA20E66E020EE66ED95011
:10109000010FE66E000EDA20E66E32EC01F0146EFF
:1010A000050EE15E1450DF6EDF5002E0DF5022D00B
:1010B000E66AE66A000EE66EE66AE66EE66AE66EE6
:1010C000E66A040EE66ED950010FE66E000EDA20D5
:1010D000E66E6CEC02F0146E0B0EE15E1450DF6EE7
:1010E000030EDF5C02E1000E05D0DF5002E1010ECD
:1010F00001D0DF50146E050EE15C02E2E16AE552B8
:10110000E16E1450E552E7CFD9FF1200D9CFE6FFC8
:10111000E1CFD9FF0E0EE126100EDF6EFE0EDB5082
:10112000E76E020EE7CFDBFFFD0EDB50E76E030E2E
:10113000E7CFDBFF010EDB6A060EF36E010EDBCF9D
:10114000F4FFF350F45C27E2FB0EDBCFE9FFFC0E6B
:10115000DBCFEAFFE9CF16F0EACF17F0010EDB5044
:101160000F01E924E96E000EEA20EA6EEF50E66E08
:10117000D950020F146EDACF15F0010EDB50020FBA
:101180001424E96E000EDA20EA6EE552E750EF6EA5
:10119000010EDB2AD1D7010EDB6A040EF36E010EBD
:1011A000DBCFF4FFF350F45C33E2F90EDBCFE9FF61
:1011B000FA0EDBCFEAFFEE52E9CF16F0EACF17F0D6
:1011C000010EDBCFE6FFF90EDBCFE9FFFA0EDBCF36
:1011D000EAFFEF50E552E724FC0F0F011624E96EF9
:1011E000000E1720EA6EEF50E66ED950020F146E13
:1011F000DACF15F0010EDB50080F1424E96E000E53
:10120000DA20EA6EE552E750EF6E010EDB2AC5D711
:10121000E66AE66A000EE66EE66AE66EE66AE66E84
:10122000E66A0C0EE66ED950020FE66E000EDA206A
:10123000E66EDFCFE6FF0E0EE66EA2EC02F0146E55
:101240000D0EE15E1450146E0E0EE15C02E2E16AD6
:10125000E552E16E1450E552E7CFD9FF1200080EB7
:10126000E66E100EE66E18EC01F0E552E552120043
:10127000D9CFE6FFE1CFD9FFE652D950FC0FE96E96
:10128000FF0EDA20EA6EEE50ED100BE0FA0EDBCF27
:10129000E9FFFB0EDBCFEAFFEFCF14F0120E145C78
:1012A00002E2040E5AD0FC0EDBCFE9FFFD0EDBCFCD
:1012B000EAFF300EEF6E010EE76EFC0EDBCFE9FFAA
:1012C000FD0EDBCFEAFFE750E926000EEA22FE0E14
:1012D000DBCFEFFF020EE76EFC0EDBCF14F0FD0E4E
:1012E000DBCF15F0E7501426000E152214C0E6FFE0
:1012F00015C0E6FF020EE66EFC0EDBCFE6FFFD0E2C
:10130000DBCFE6FF32EC01F0166E050EE15E165003
:10131000DF6EDF5002E0DF5020D0010EE66EE66A9D
:10132000000EE66EE66AFA0EDBCFE6FFFB0EDBCFC1
:10133000E6FFFC0EDBCFE6FFFD0EDBCFE6FF040E83
:10134000E66EFC0EDBCFE6FFFD0EDBCFE6FF6CECBE
:1013500002F0146E0B0EE15E1450E552E552E7CF39
:10136000D9FF1200D9CFE6FFE1CFD9FF050EE12664
:10137000D950FC0FE96EFF0EDA20EA6EEE50ED1048
:1013800008E0100EF36EFB0EDBCFF4FFF350F45CBD
:1013900002E2060E41D0DE52A00EDD6EFE0EDB50E4
:1013A000E76E020EE7CFDBFFE66AE66ED950010F6B
:1013B000E66E000EDA20E66E43DBE552E552E552BA
:1013C000E552DF6EDF5004E0F80E146E540E15D0B7
:1013D000E66AFB0EDBCFE6FFFC0EDBCFE6FFFD0E81
:1013E000DBCFE6FF2DDBE552E552E552E552DF6E3D
:1013F000DF5011E0DC0E146E540E156E166A14C028
:10140000E6FFE66E16C0E6FF9AEC2CF0E552E552D8
:10141000E552DF5001D0000E146E050EE15C02E2D1
:10142000E16AE552E16E1450E552E7CFD9FF1200B0
:10143000D9CFE6FFE1CFD9FF070EE126D950FC0F47
:10144000E96EFF0EDA20EA6EEE50ED1008E0040EB1
:10145000F36EFB0EDBCFF4FFF350F45C02E2060EFA
:1014600032D0DE52A20EDD6EFE0EDB50E76E020EB3
:10147000E7CFDBFF040EE66EE66AFC0EDBCFE6FF8D
:10148000FD0EDBCFE6FFD950030FE66E000EDA202B
:10149000E66EEDEC2BF0146E060EE15E1450E66A7B
:1014A000060EE66ED950010FE66E000EDA20E66EEB
:1014B000C7DAE552E552E552E552DF6EDF5002E051
:1014C000DF5001D0000E146E070EE15C02E2E16A0B
:1014D000E552E16E1450E552E7CFD9FF1200D9CFA3
:1014E000E6FFE1CFD9FFE150FA0FE96EFF0EDA20F7
:1014F000EA6EEECFE6FFEECFE6FFEECFE6FFEFCFF0
:10150000E6FFFE0EDBCFE6FFC00EE66E3ED8146EA1
:10151000060EE15E1450E552E7CFD9FF1200D9CF95
:10152000E6FFE1CFD9FFE150FA0FE96EFF0EDA20B6
:10153000EA6EEECFE6FFEECFE6FFEECFE6FFEFCFAF
:10154000E6FFFE0EDBCFE6FFC10EE66E1ED8146E80
:10155000060EE15E1450E552E7CFD9FF1200D9CF55
:10156000E6FFE1CFD9FFE66AE66AE66AE66AFE0EC2
:10157000DBCFE6FFC20EE66E08D8146E060EE15E03
:101580001450E552E7CFD9FF1200D9CFE6FFE1CFE3
:10159000D9FF030EE126FE0EDB50E76E010EE7CF0A
:1015A000DBFFFD0EDB50E76E020EE7CFDBFFE66AE6
:1015B000E66ED950010FE66E000EDA20E66E40DAD4
:1015C000E552E552E552E552DF6EDF5012E1010EC1
:1015D000E66E040EE66ED950F90FE66EFF0EDA20C5
:1015E000E66E2EDAE552E552E552E552DF6EDF5047
:1015F00002E0DF5001D0000E146E030EE15C02E247
:10160000E16AE552E16E1450E552E7CFD9FF1200CE
:10161000D9CFE6FFE1CFD9FF030EE126DE52B00EAF
:10162000DD6EFE0EDB50E76E020EE7CFDBFFE66AF3
:10163000E66ED950010FE66E000EDA20E66E00DA93
:10164000E552E552E552E552DF6EDF5002E0DF5031
:1016500001D0000E146E030EE15C02E2E16AE55275
:10166000E16E1450E552E7CFD9FF1200D9CFE6FF63
:10167000E1CFD9FF140EE126120EF36E130EF3CF55
:10168000DBFFD950130FE66E000EDA20E66ED9505C
:10169000010FE66E000EDA20E66EFE0EDBCFE6FFEF
:1016A000E7DD146E050EE15E1450DF6EDF505CE185
:1016B000040EDBCF14F0156A166A176A180E1F0B9A
:1016C00007E0D8901436153616361736E806F9E1D5
:1016D000030EDBCF18F0196A1A6A1B6A100E1F0B73
:1016E00007E0D890183619361A361B36E806F9E1A5
:1016F00018501412195015121A5016121B501712A6
:10170000020EDBCF1CF01D6A1E6A1F6A080E1F0B3B
:1017100007E0D8901C361D361E361F36E806F9E164
:101720001C5014121D5015121E5016121F50171265
:10173000010EDBCF20F0216A226A236A20501412A6
:10174000215015122250161223501712FC0EDBCF17
:10175000E9FFFD0EDBCFEAFF14C0EEFF15C0EEFF80
:1017600016C0EEFF17C0EEFFDF50146E140EE15CE2
:1017700002E2E16AE552E16E1450E552E7CFD9FF8B
:101780001200D9CFE6FFE1CFD9FF120EE126FA0E03
:10179000DBCF14F01450E76E080EE7CFDBFFDB5011
:1017A000DF6E146A1568166A176AD950FA0FE96E67
:1017B000FF0EDA20EA6EEE501416EE501516EE50BB
:1017C0001616EE501716080ED8901732163215322C
:1017D0001432E806F9E1090E14C0DBFF010E14C053
:1017E000DBFF146A156A1668176AD950FA0FE96E9A
:1017F000FF0EDA20EA6EEE501416EE501516EE507B
:101800001616EE501716100ED890173216321532E3
:101810001432E806F9E10A0E14C0DBFF020E14C010
:10182000DBFF146A156A166A1768D950FA0FE96E59
:10183000FF0EDA20EA6EEE501416EE501516EE503A
:101840001616EE501716180ED8901732163215329B
:101850001432E806F9E10B0E14C0DBFF030E14C0CE
:10186000DBFFDF1CE76E040EE7CFDBFF010EDB1CA6
:10187000E76E050EE7CFDBFF020EDB1CE76E060E00
:10188000E7CFDBFF030EDB1CE76E070EE7CFDBFFC6
:10189000FE0EDB50E76E0E0EE7CFDBFFDB50E76E90
:1018A0000C0EE7CFDBFFFE0EDB1CE76E0F0EE7CF63
:1018B000DBFFDB50E76E0D0EE7CFDBFF100EE66EB1
:1018C000D9CFE6FFDACFE6FFFE0EDBCFE6FF4ADD3B
:1018D000E552E552E552E552146E120EE15C02E269
:1018E000E16AE552E16E1450E552E7CFD9FF1200EC
:1018F000D9CFE6FFE1CFD9FF170EE126300EF36E08
:10190000130EF3CFDBFF140EDB6A050EF36E150E1C
:10191000F3CFDBFFDE521B0EDD6E160EDB6A040E0C
:10192000F36E160EDBCFF4FFF350F45C22E2160EDA
:10193000DB50E76EFD0EDBCFE9FFFE0EDBCFEAFFEB
:10194000E750E926000EEA22EF50E66ED950010F6B
:10195000146EDACF15F0160EDB280F011424E96E91
:10196000000EDA20EA6EE552E750EF6E160EDB2A23
:10197000D6D7D950060FE66E000EDA20E66E050EB9
:10198000E66ED950010FE66E000EDA20E66E32ECFC
:1019900001F0146E050EE15E1450DF6EDF5041E180
:1019A000E66AE66AD950140FE66E000EDA20E66E9B
:1019B000D950150FE66E000EDA20E66ED950010FF1
:1019C000E66E000EDA20E66E070EE66ED950010FC5
:1019D000E66E000EDA20E66E130EDBCFE6FF0C0E8D
:1019E000E66EA2EC02F0146E0D0EE15E1450DF6E96
:1019F000FB0EDBCFE9FFFC0EDBCFEAFF010EDBCFF6
:101A0000EFFFE76EFB0EDBCFE9FFFC0EDBCFEAFF5B
:101A1000E750E926000EEA22020EDBCFEFFFDF508F
:101A200002E0DF5001D0000E146E170EE15C02E2FE
:101A3000E16AE552E16E1450E552E7CFD9FF12009A
:101A4000D9CFE6FFE1CFD9FF160EE126300EF36EB7
:101A5000130EF3CFDBFF120EF36E140EF3CFDBFF8A
:101A6000150EDB6AD950FD0FE96EFF0EDA20EA6E23
:101A7000EE50ED1004E0FC0EDB50100802E2060E02
:101A800087D0FC0EDBCFE6FFE66AFD0EDBCFE6FF7C
:101A9000FE0EDBCFE6FFD950010FE66E000EDA2016
:101AA000E66EEDEC2BF0146E060EE15E1450D9508C
:101AB000010F166EDACF17F0FC0EDB500001162472
:101AC000146E000EDA20156E14C0E6FFE66EFC0EF2
:101AD000DBCFE6FFD950010FE66E000EDA20E66E8E
:101AE00032EC01F0186E050EE15E1850DF6EDF502B
:101AF0003DE1020E146EFC0EDBCFE7FF1450E7262B
:101B0000FC0EE7CFDBFFE66AE66AD950150FE66EFA
:101B1000000EDA20E66ED950140FE66E000EDA20C1
:101B2000E66ED950010FE66E000EDA20E66EFC0E6E
:101B3000DBCFE6FFD950010FE66E000EDA20E66E2D
:101B4000130EDBCFE6FF0C0EE66EA2EC02F0146E75
:101B50000D0EE15E1450DF6EFB0EDB5005E0030E50
:101B6000DF5C02E1000E14D0DF5002E0DF5010D045
:101B7000140EDB0404E1150EDB50040802E0010E34
:101B800007D0010EDB500A0802E0FF0E01D0000E64
:101B9000146E160EE15C02E2E16AE552E16E145049
:101BA000E552E7CFD9FF1200D9CFE6FFE1CFD9FF49
:101BB000FE0EDB9EDB50400A22E0600A1EE0210A96
:101BC0001AE0110A16E0010A14E0110A10E0180ADE
:101BD0000CE0100A08E0010A04E00D0A12E1FF0E11
:101BE00011D0030E0FD0040E0DD0050E0BD0060E33
:101BF00009D0070E07D0090E05D0010E03D0020E42
:101C000001D0000EE552E7CFD9FF1200D9CFE6FF91
:101C1000E1CFD9FFFE0EDB50FF0A30E0F80A2AE0E0
:101C2000010A24E0030A1EE0010A18E0070A12E094
:101C3000010A0CE0030A06E0010A24E1D30E146E47
:101C4000540E23D0BB0E146E540E1FD0A60E146E6D
:101C5000540E1BD08C0E146E540E17D0700E146ED2
:101C6000540E13D0410E146E540E0FD02F0E146E5E
:101C7000540E0BD0150E146E540E07D0F30E146EC6
:101C8000530E03D0E50E146E530E14C0F3FFF46E22
:101C9000E552E7CFD9FF1200D9CFE6FFE1CFD9FF58
:101CA000FE0EDB503CE0FF0A36E0F60A30E0010AA7
:101CB0002AE00F0A24E0010A1EE0030A18E0010AE4
:101CC00012E0070A0CE0010A06E0030A28E1C10E4F
:101CD000146E530E27D0990E146E530E23D0820E1D
:101CE000146E530E1FD0770E146E530E1BD06C0E55
:101CF000146E530E17D04A0E146E530E13D03E0EB0
:101D0000146E530E0FD02F0E146E530E0BD0200EE8
:101D1000146E530E07D0FD0E146E520E03D0F00E4B
:101D2000146E520E14C0F3FFF46EE552E7CFD9FFE4
:101D30001200D9CFE6FFE1CFD9FFE6526E0EE66E74
:101D4000A1EC00F0E552DF6EDFCFE6FFE66AD70ECA
:101D5000146E520E156E166A14C0E6FFE66E16C0BB
:101D6000E6FF9AEC2CF0176E050EE15E1750DF507F
:101D7000920A12E0030A0CE0010A06E0180A10E1D8
:101D8000CA0E146E520E0FD0C00E146E520E0BD02F
:101D9000B60E146E520E07D0AC0E146E520E03D057
:101DA0009D0E146E520E156E166A14C0E6FFE66E96
:101DB00016C0E6FF9AEC2CF0E552E552E552DF50F2
:101DC00003E0FF0EDF5C0FE15A0E146E520E156E2B
:101DD000166A14C0E6FFE66E16C0E6FF9AEC2CF019
:101DE000E552E552E552E552E552E7CFD9FF120040
:101DF000D9CFE6FFE1CFD9FF080EE126FD0EDBCFFC
:101E0000E6FFFE0EDBCFE6FF86D8E552E552FD0E7B
:101E1000DBCFE9FFFE0EDBCFEAFF0B0EE926000E5B
:101E2000EA22EF50E66EC0DEE552E76E070EE7CF1E
:101E3000DBFFDB5046E0FF0A44E0FE0A3EE0090A11
:101E40003CE00A0A3AE0050A38E00E0A36E00F0ADA
:101E500031E0050A04E0070A02E0010A32E1060E59
:101E6000DB6AF36EDBCFF4FFE850F45C10E2D9CF0D
:101E700014F0DACF15F0060EDB500F01D924E96E0D
:101E8000000EDA20EA6EEF68060EDB2AEAD7D9CF19
:101E9000E6FFDACFE6FF070EDBCFE6FFFD0EDBCF76
:101EA000E6FFFE0EDBCFE6FFE8D8146E050EE15E1E
:101EB000145016D03FEC14F013D01E0E146E520EB8
:101EC00003D0090E146E520E156E166A14C0E6FF8A
:101ED000E66E16C0E6FF9AEC2CF0E552E552E552AC
:101EE000060E146E520E156E166A14C0E6FFE66EEC
:101EF00016C0E6FF9AEC2CF0E552E552E55234ECC0
:101F000008F0080EE15C02E2E16AE552E16EE5529A
:101F1000E7CFD9FF1200D9CFE6FFE1CFD9FF020EFC
:101F2000E126FB0E146E510E156E166A14C0E6FF04
:101F3000E66E16C0E6FF9AEC2CF0E552E552E5524B
:101F4000DF6AFD0EDBCFE9FFFE0EDBCFEAFFEF50CD
:101F5000DF5C27E2FD0EDBCFE9FFFE0EDBCFEAFF01
:101F6000EE52E9CF14F0EACF15F0DF500F01E9246B
:101F7000E96E000EEA20EA6EEF50E66EE66AF50EB4
:101F8000166E510E176E186A16C0E6FFE66E18C080
:101F9000E6FF9AEC2CF0196E050EE15E1950DF2A6F
:101FA000D0D7060E146E520E156E166A14C0E6FFD8
:101FB000E66E16C0E6FF9AEC2CF0E552E552E552CB
:101FC000FD0EDBCFE9FFFE0EDBCFEAFF0B0EE926AD
:101FD000000EEA22EF50E66EE66AE20E146E510E33
:101FE000156E166A14C0E6FFE66E16C0E6FF9AECA0
:101FF0002CF0176E050EE15E1750FD0EDBCFE9FFEA
:10200000FE0EDBCFEAFF0B0EE926000EEA22EF50B0
:10201000E66ECADDE552E76E010EE7CFDBFFD60EB6
:10202000146E510E156E166A14C0E6FFE66E16C0E9
:10203000E6FF9AEC2CF0E552E552E552010EDBCFBB
:10204000E6FF2ADEE552F3CF14F0F4CF15F0166A5E
:10205000F3CFE6FFF4CFE6FF16C0E6FF9AEC2CF0D4
:10206000E552E552E552020EE15C02E2E16AE55218
:10207000E16EE552E7CFD9FF1200D9CFE6FFE1CFFD
:10208000D9FF020EE126DF6AFC0EDB50050A08E0EC
:10209000010A04E0070A06E1050E03D0100E01D084
:1020A000280EDF6EDF502FE08C0E146E510E156E71
:1020B000166A14C0E6FFE66E16C0E6FF9AEC2CF036
:1020C000E552E552E552DF04E76E010EE7CFDBFF94
:1020D000DBCF14F0143417E2010EDBCFE6FFFA0E6B
:1020E000DBCFE6FFFB0EDBCFE6FFFD0EDBCFE6FF2F
:1020F000FE0EDBCFE6FF15D8146E050EE15E145020
:10210000010EDB06E5D734EC08F02FEC09F0020EE7
:10211000E15C02E2E16AE552E16EE552E7CFD9FF08
:102120001200D9CFE6FFE1CFD9FF2B0EE126200E1A
:10213000F36EFA0EDBCFF4FFF350F45C0FE2040E03
:10214000F36E020EF3CFDBFFDBCFE6FFFA0EDB50C0
:10215000E552E702010EF3CFDBFF1BD0280EF36E32
:10216000FA0EDBCFF4FFF350F45C01E37ED3100EE4
:10217000F36E020EF3CFDBFFDBCFE6FFFA0EDB5090
:10218000E00FE552E702800EF324E76E010EE7CF81
:10219000DBFFF36E030EF3CFDBFF0A0EDB6A020EEA
:1021A000DB04E76E250EE7CFDBFFDBCF14F0143442
:1021B00001E35BD3250EDBCFE6FF010EDB50E552DA
:1021C000E724E76E240EE7CFDBFF030EDB5015E0BC
:1021D000FA0EDBCFE6FFE66AF50E146E510E156EB1
:1021E000166A14C0E6FFE66E16C0E6FF9AEC2CF005
:1021F000176E050EE15E17500FD0880E146E510E4B
:10220000156E166A14C0E6FFE66E16C0E6FF9AEC7D
:102210002CF0E552E552E552240EDBCFE6FFE66AEC
:102220007C0E146E510E156E166A14C0E6FFE66E33
:1022300016C0E6FF9AEC2CF0176E050EE15E175003
:10224000030EDB504DE0FD0EDBCFE6FFFE0EDBCFD5
:10225000E6FFFB0EDBCFE6FFFC0EDBCFE6FF010E59
:10226000DBCFE6FF600EE66E86EC08F0146E060E1D
:10227000E15E1450DF6EDF5033E0600E146E510EDD
:10228000156E166A14C0E6FFE66E16C0E6FF9AECFD
:102290002CF0E552E552E552DFCFE6FFB7DCE55220
:1022A000F3CF14F0F4CF15F0166AF3CFE6FFF4CFB6
:1022B000E6FF16C0E6FF9AEC2CF0E552E552E55237
:1022C000060E146E520E156E166A14C0E6FFE66E08
:1022D00016C0E6FF9AEC2CF0E552E552E552C5D265
:1022E000120EF36E110EF3CFDBFFD950110FE66E15
:1022F000000EDA20E66ED950120FE66E000EDA20DC
:10230000E66E240EDBCFE6FF38EC09F0146E050E06
:10231000E15E1450DF6EDF5024E0490E146E510E62
:10232000156E166A14C0E6FFE66E16C0E6FF9AEC5C
:102330002CF0E552E552E552DFCFE6FF67DCE552CF
:10234000F3CF14F0F4CF15F0166AF3CFE6FFF4CF15
:10235000E6FF16C0E6FF9AEC2CF0E552E552E55296
:1023600072D2260EDB6A100EF36E260EDBCFF4FF60
:10237000F350F45C27E2D950120F146EDACF15F047
:10238000260EDB500F011424E96E000EDA20EA6EEF
:10239000EF50E66EE66AF50E166E510E176E186A6D
:1023A00016C0E6FFE66E18C0E6FF9AEC2CF0196E38
:1023B000050EE15E1950260EDB50030B0308260EB6
:1023C000DB2AD1D7030EDB5001E1A3D0190EDB3895
:1023D0000F0BE76E040EE7CFDBFF1A0EDB500F0B7F
:1023E000E76E050EE7CFDBFF1A0EDB380F0BE76E4B
:1023F000060EE7CFDBFF180EDB500F0BE76E070E64
:10240000E7CFDBFF180EDB380F0BE76E080EE7CFC8
:10241000DBFF190EDB500F0BE76E090EE7CFDBFF7A
:10242000070EDB1C0F0BF36E040EDB50F35C12E1A6
:10243000080EDB1C0F0BF36E050EDB50F35C0AE19C
:10244000090EDB1C0F0BF36E060EDB50F35C02E192
:10245000000E01D0010EE76E0A0EE7CFDBFF060E7D
:10246000DB50010B156E050EDB50010BE824146EDA
:10247000040EDB50010B040DF35014101510E76E21
:102480000B0EE7CFDBFF060EDB50020BE8407F0BA5
:10249000156E050EDB50020B146E040EDB50020BA2
:1024A000E82414101510E76E0C0EE7CFDBFF060EC4
:1024B000DB50040BE840E8403F0B156E050EDB5087
:1024C000040BE8407F0B146E040EDB50040B141059
:1024D0001510E76E0D0EE7CFDBFF060EDB50080B85
:1024E000E840E840E8401F0B156E050EDB50080B76
:1024F000E840E8403F0B146E040EDB50080BE84048
:102500007F0B14101510E76E0E0EE7CFDBFF030EE6
:10251000DB6A020EDB5004080CE1250EDB50E76E8F
:102520000F0EE7CFDBFF010EF36E100EF3CFDBFFD4
:1025300025D0050E146E0E6E250EDBCF09F080EC53
:102540002BF00F0E09C0DBFFDB50030812E0250E55
:10255000DB28146E050E156E0E6E14C009F080ECAB
:102560002BF00950F36E0F0EDB50095C02E1000EF8
:1025700001D0010EE76E100EE7CFDBFFDB5001E16B
:10258000B5D0450E146E510E156E166A14C0E6FFD6
:10259000E66E16C0E6FF9AEC2CF0E552E552E552E5
:1025A000D9500B0F146EDACF15F00F0EDB500F0160
:1025B0001424E96E000EDA20EA6EEF50E840E8409D
:1025C0003F0B010BE66EE66A400E166E510E176E5B
:1025D000186A16C0E6FFE66E18C0E6FF9AEC2CF00B
:1025E000196E050EE15E19503E0E146E510E156EF9
:1025F000166A14C0E6FFE66E16C0E6FF9AEC2CF0F1
:10260000E552E552E552D9500B0F146EDACF15F0B2
:102610000F0EDB500F011424E96E000EDA20EA6E73
:10262000EF407F0B010BE66EE66A400E166E510E10
:10263000176E186A16C0E6FFE66E18C0E6FF9AEC41
:102640002CF0196E050EE15E19503E0E146E510EFF
:10265000156E166A14C0E6FFE66E16C0E6FF9AEC29
:102660002CF0E552E552E552D9500B0F146EDACF3B
:1026700015F00F0EDB500F011424E96E000EDA2066
:10268000EA6EEF50010BE66EE66A400E166E510ED2
:10269000176E186A16C0E6FFE66E18C0E6FF9AECE1
:1026A0002CF0196E050EE15E19503A0E146E510EA3
:1026B000156E166A14C0E6FFE66E16C0E6FF9AECC9
:1026C0002CF0E552E552E5520A0EDB500FE0120EF7
:1026D000146E510E156E166A14C0E6FFE66E16C033
:1026E000E6FF9AEC2CF0E552E552E5520F0EDB5076
:1026F000030801E1A8D0D9500B0F146E0F0EDB5068
:102700000F011424E96E000EDA20EA6EEF0410E0E7
:10271000D9500B0F166EDACF17F00F0EDB501624C0
:10272000E96E000EDA20EA6EEF50060801E08BD069
:10273000150EDBCF14F0156A166A176A180E1F0BF8
:1027400007E0D8901436153616361736E806F9E144
:10275000140EDBCF18F0196A1A6A1B6A100E1F0BD1
:1027600007E0D890183619361A361B36E806F9E114
:1027700018501412195015121A5016121B50171215
:10278000130EDBCF1CF01D6A1E6A1F6A080E1F0B9A
:1027900007E0D8901C361D361E361F36E806F9E1D4
:1027A0001C5014121D5015121E5016121F501712D5
:1027B000120EDBCF20F0216A226A236A2050141205
:1027C000215015122250161223501712270E14C032
:1027D000DBFF280E15C0DBFF290E16C0DBFF2A0E1B
:1027E00017C0DBFFD950270FE96EDACFEAFFEECF33
:1027F000E6FFEECFE6FFEECFE6FFEFCFE6FF040EFB
:10280000146E510E156E166A14C0E6FFE66E16C001
:10281000E6FF9AEC2CF0176E070EE15E17501E0EC5
:10282000DBCFE6FFE66AF80E146E500E156E166AE0
:1028300014C0E6FFE66E16C0E6FF9AEC2CF0176EA9
:10284000050EE15E1750060E146E520E156E166AD6
:1028500014C0E6FFE66E16C0E6FF9AEC2CF0E552D7
:10286000E552E552250EDB06A0D42B0EE15C02E218
:10287000E16AE552E16EE552E7CFD9FF1200D9CF08
:10288000E6FFE1CFD9FF180EE126E50E146E500EDB
:10289000156E166A14C0E6FFE66E16C0E6FF9AECE7
:1028A0002CF0E552E552E552150EDB6A100EF36E80
:1028B000150EDBCFF4FFF350F45C01E31FD1DE52C1
:1028C000120EDD6ED950010FE66E000EDA20E66EB4
:1028D000D950020FE66E000EDA20E66E150EDBCF41
:1028E000E6FF38EC09F0146E050EE15E1450DF6E61
:1028F000DF5034E0CE0E146E500E156E166A14C002
:10290000E6FFE66E16C0E6FF9AEC2CF0E552E552C3
:10291000E552DFCFE6FF06EC0EF0E552F3CF14F000
:10292000F4CF15F0166AF3CFE6FFF4CFE6FF16C03A
:10293000E6FF9AEC2CF0E552E552E552060E146ED5
:10294000520E156E166A14C0E6FFE66E16C0E6FF5C
:102950009AEC2CF0E552E552E552D0D0160EDB6A27
:10296000040EF36E160EDBCFF4FFF350F45C01E3BC
:10297000BAD0160EDBCFE6FF150EDB50E552E7248A
:10298000E76E140EE7CFDBFF0A0EF36E140EDBCFFB
:10299000F4FFF350F45C04E2CB0E146E500E03D03F
:1029A0003E0E146E510E156E166A14C0E6FFE66EEA
:1029B00016C0E6FF9AEC2CF0E552E552E552140EF3
:1029C000DBCFE6FFE66AC60E146E500E156E166A71
:1029D00014C0E6FFE66E16C0E6FF9AEC2CF0176E08
:1029E000050EE15E1750CB0E146E500E156E166A72
:1029F00014C0E6FFE66E16C0E6FF9AEC2CF0E55236
:102A0000E552E552170EDB6A040EF36E170EDBCFAC
:102A1000F4FFF350F45C55E2170EDBCFE6FF160E21
:102A2000DB50040DF350E552E724E76E140EE7CFB8
:102A3000DBFFD950020F156EDACF16F0140EDB5003
:102A40000F011524E96E000EDA20EA6EEFCF14F0C4
:102A5000100E145C04E2C30E146E500E03D03E0E32
:102A6000146E510E156E166A14C0E6FFE66E16C09F
:102A7000E6FF9AEC2CF0E552E552E552D950020FF0
:102A8000146EDACF15F0140EDB500F011424E96E2A
:102A9000000EDA20EA6EEF50E66EE66AC00E166EA1
:102AA000500E176E186A16C0E6FFE66E18C0E6FFF5
:102AB0009AEC2CF0196E050EE15E1950170EDB2A08
:102AC000A3D7060E146E520E156E166A14C0E6FFDA
:102AD000E66E16C0E6FF9AEC2CF0E552E552E552A0
:102AE000160EDB2A3DD7040E146E150EDBCFE7FF62
:102AF0001450E726150EE7CFDBFFD8D6180EE15CA1
:102B000002E2E16AE552E16EE552E7CFD9FF120039
:102B1000D9CFE6FFE1CFD9FF030EE126FC0EDB5053
:102B2000040BE840E8403F0B166EFB0EDB50040B35
:102B3000E8407F0B156EFA0EDB50040B146EF90E95
:102B4000DB50040BE824141015101610DF6EFC0E79
:102B5000DB50020BE8407F0B166EFB0EDB50020BC6
:102B6000156EFA0EDB50020BE824146EF90EDB50E2
:102B7000020B040DF350141015101610E76E010E21
:102B8000E7CFDBFFFC0EDB50010B166EFB0EDB50BC
:102B9000010BE824156EFA0EDB50010B040DF3CF88
:102BA00014F0F90EDB50010B080DF3501410151042
:102BB0001610E76E020EE7CFDBFFDF1C0F0B146E63
:102BC000010EDB1C0F0B100DF3501410E66EFD0E02
:102BD000DBCFE9FFFE0EDBCFEAFFE552E750EF6EF9
:102BE000020EDB1C0F0B146EDF38F00B1410E66EB8
:102BF000010EE76EFD0EDBCFE9FFFE0EDBCFEAFF35
:102C0000E750E926000EEA22E552E750EF6E010E8A
:102C1000DBCFE6FF020EDB38F00BE552E710E66E85
:102C2000020EE76EFD0EDBCFE9FFFE0EDBCFEAFF03
:102C3000E750E926000EEA22E552E750EF6E030E58
:102C4000E15C02E2E16AE552E16EE552E7CFD9FFCD
:102C50001200D9CFE6FFE1CFD9FF040EE126020E24
:102C6000F36EDB6EE66A240EE66E63EC00F0E5526E
:102C7000E552E66A260EE66E63EC00F0E552E55298
:102C8000260EE66E480EE66E63EC00F0E552E55265
:102C9000D950020FE66E000EDA20E66ED9CFE6FFBD
:102CA000DACFE6FF3DEC04F0E552E552E552E5529D
:102CB000E76E030EE7CFDBFFDB5006E0030EDB50D1
:102CC000020802E0000E01D0010E146E040EE15C59
:102CD00002E2E16AE552E16E1450E552E7CFD9FF16
:102CE0001200D9CFE6FFE1CFD9FFE652E66AFD0E2A
:102CF000DBCFE6FFFE0EDBCFE6FFDAEC04F0E552B9
:102D0000E552E552DF6EDF5002E0000E01D0010E09
:0A2D1000E552E552E7CFD9FF1200AB
:062D1A00D8CFE4FFE0CF7A
:102D2000E4FFE46EDACFE4FFE2CFDAFFE9CFE4FFBD
:102D3000EACFE4FFF6CFE4FFF7CFE4FFF5CFE4FFFF
:102D4000F3CFE4FFF4CFE4FFFACFE4FF00EE00F0AE
:102D5000140EE80403E3EECFE4FFFBD700EE14F01B
:102D6000100EE80403E3EECFE4FFFBD7E652D9CF21
:102D7000E6FFE1CFD9FF020EE126F2A49CD1F29446
:102D8000200EE66ED10EE66E6AEC2EF0E552E552AC
:102D90000001C629246E050E256E0E6E24C009F0B2
:102DA00050EC2FF005C0C6F00001055003E1C52925
:102DB000030BC56FC651D8806B5551E2C551030A4C
:102DC00038E0010A24E0030A11E0010A48E18C68B6
:102DD0008A868A848A828A90010E6A15E81C246E8B
:102DE000D20E6225F66E5E0E632133D08C688A8621
:102DF0008A848A928A80020E6A15E8407F0BE81C5A
:102E0000246ED20E6425F66E5E0E652122D08C688B
:102E10008A868A948A828A80040E6A15E840E8408D
:102E20003F0BE81C246ED20E6625F66E5E0E6721FF
:102E300010D08C688A968A848A828A80080E6A15E5
:102E4000E8380F0BE81C246ED20E6825F66E5E0E75
:102E50006921F76E0800F55024148C6E05D08C683B
:102E60008A868A848A828A80BD51BE1101E0A1D0FF
:102E7000870EE66ED5EC2EF0E55284EC2FF007ECD1
:102E800000F00009FCE172EC2FF0F3CF00F1F4CF79
:102E900001F18F0EE66ED5EC2EF0E55284EC2FF0AA
:102EA00007EC00F00009FCE172EC2FF0F3CF02F127
:102EB000F4CF03F100C1BAF001C1BBF0DF6A1E0E0E
:102EC000DF5C1DE2DF28E96EEA6AD890E936EA366F
:102ED0007E0EE926000EEA22EECF24F0EFCF25F099
:102EE000EA6ADF34FE0BEA36E96E7E0EE926000E52
:102EF000EA2224C0EEFF25C0EDFFDF2AE0D7000163
:102F0000BA6BBB6BDF6A1E0EDF5C11E2EA6ADF346C
:102F1000FE0BEA36E96E7E0EE926000EEA22BA5171
:102F2000EE24BA6FBB51EE20BB6FDF2AECD7BAC0DC
:102F30007AF0BBC07BF01E0E0D6E0E6ABAC008F0B0
:102F4000BBC009F09AEC2BF008C07AF009C07BF006
:102F50000101840ED8800255030E035504E20001DE
:102F6000010E6C6F25D0070ED8800255030E035555
:102F700003E20001020E1AD08A0ED8800255020E1A
:102F8000035503E20001030E11D0260ED88002552E
:102F9000020E035503E20001040E08D0C20ED880D1
:102FA0000255010E035505E20001050E6C6F010E7E
:102FB0006D6F010E0001BD25BD6F000EBE21BE6FFD
:102FC000140E0D6E0E6ABDC008F0BEC009F0ECEC28
:102FD0002EF004C0BDF005C0BEF00001BF51C0110D
:102FE000010EBF25BF6F000EC021C06F320E0D6EE7
:102FF0000E6ABFC008F0C0C009F0ECEC2EF004C0AF
:10300000BFF005C0C0F00001C151C211010EC125C1
:10301000C16F000EC221C26FC80E0D6E0E6AC1C014
:1030200008F0C2C009F0ECEC2EF004C0C1F005C0FD
:10303000C2F00001C351C411010EC325C36F000EBD
:10304000C421C46FE80E0D6E030E0E6EC3C008F0EF
:10305000C4C009F0ECEC2EF004C0C3F005C0C4F00D
:1030600000016F5102E06F0726D0606B6051266E41
:10307000276AFA0E086E096A60C00DF027C00EF0CC
:10308000C0EC2BF006C024F007C025F0190E0D6E21
:103090000E6A06C008F007C009F09AEC2BF008C0D1
:1030A00024F009C025F008C0E6FF09C0E6FFDCEC0B
:1030B0002DF0E552E552020EE15C02E2E16AE552D2
:1030C000E16EE552E7CFD9FFE55200EE23F0100E96
:1030D000E80403E3E5CFEDFFFBD700EE13F0140E99
:1030E000E80403E3E5CFEDFFFBD7E5CFFAFFE5CF3B
:1030F000F4FFE5CFF3FFE5CFF5FFE5CFF7FFE5CF31
:10310000F6FFE5CFEAFFE5CFE9FFE5CFDAFFE550CF
:10311000E5CFE0FFE5CFD8FF1000DACFE4FFE2CF44
:10312000DAFFE9CFE4FFEACFE4FFF6CFE4FFF7CF21
:10313000E4FFF5CFE4FFF3CFE4FFF4CFE4FFFACFF1
:10314000E4FF00EE00F0140EE80403E3EECFE4FF2A
:10315000FBD700EE14F0100EE80403E3EECFE4FF1B
:10316000FBD7E6529EAA17D02FEC2EF001010A6F72
:10317000E850E66EE66AFD0E286E560E296E2A6A43
:1031800028C0E6FFE66E2AC0E6FF9AEC2CF02B6E14
:10319000050EE15E2B509EA009D09E90900EE66E2B
:1031A000E80EE66E4EEC2EF0E552E552E55200EEEA
:1031B00023F0100EE80403E3E5CFEDFFFBD700EEAC
:1031C00013F0140EE80403E3E5CFEDFFFBD7E5CFE2
:1031D000FAFFE5CFF4FFE5CFF3FFE5CFF5FFE5CF4D
:1031E000F7FFE5CFF6FFE5CFEAFFE5CFE9FFE5CF53
:1031F000DAFF11008B9289948986110E0001686FA5
:10320000696B666F676B646F656B626F636B606B36
:103210006051166E176AFA0E086E096A60C00DF0EA
:1032200017C00EF0C0EC2BF006C014F007C015F06C
:10323000190E0D6E0E6A06C008F007C009F09AEC70
:103240002BF008C014F009C015F008C0E6FF09C053
:10325000E6FFDCEC2DF0E552E552E1DA000E00016C
:10326000626F636B646F656B666F676B686F696BCA
:10327000C20E606FE850166E176AFA0E086E096A81
:1032800016C00DF017C00EF0C0EC2BF006C014F005
:1032900007C015F0190E0D6E0E6A06C008F007C0C3
:1032A00009F09AEC2BF008C014F009C015F008C022
:1032B000E6FF09C0E6FFDCEC2DF0E552E552000127
:1032C000C80E6F6FE66EE66A76DAE552E552110EC9
:1032D0000001626F636B646F656B666F676B686F2D
:1032E000696BC80E6F6FE66EE66A65DAE552E55205
:1032F000000E0001626F636B646F656B666F676BD6
:10330000686F696BC20E606FE850166E176AFA0E2E
:10331000086E096A16C00DF017C00EF0C0EC2BF055
:1033200006C014F007C015F0190E0D6E0E6A06C027
:1033300008F007C009F09AEC2BF008C014F009C09F
:1033400015F008C0E6FF09C0E6FFDCEC2DF0E55201
:10335000E5520001C80E6F6FE66EE66A2CDAE552A0
:10336000E5528B8289848986090E0001626F636B46
:10337000646F656B666F676B686F696B960EE66E60
:10338000E66A19DAE552E552080E0001626F636BD6
:10339000646F656B666F676B686F696B960EE66E40
:1033A000E66A09DAE552E552070E0001626F636BC7
:1033B000646F656B666F676B686F696B960EE66E20
:1033C000E66AF9D9E552E552060E0001626F636BB9
:1033D000646F656B666F676B686F696B960EE66E00
:1033E000E66AE9D9E552E552050E0001626F636BAA
:1033F000646F656B666F676B686F696B960EE66EE0
:10340000E66AD9D9E552E552040E0001626F636B9A
:10341000646F656B666F676B686F696B960EE66EBF
:10342000E66AC9D9E552E552030E0001626F636B8B
:10343000646F656B666F676B686F696B960EE66E9F
:10344000E66AB9D9E552E552020E0001626F636B7C
:10345000646F656B666F676B686F696B960EE66E7F
:10346000E66AA9D9E552E552010E0001626F636B6D
:10347000646F656B666F676B686F696B960EE66E5F
:10348000E66A99D9E552E552000E0001626F636B5E
:10349000646F656B666F676B686F696BC20E606F98
:1034A000E850166E176AFA0E086E096A16C00DF01B
:1034B00017C00EF0C0EC2BF006C014F007C015F0DA
:1034C000190E0D6E0E6A06C008F007C009F09AECDE
:1034D0002BF008C014F009C015F008C0E6FF09C0C1
:1034E000E6FFDCEC2DF0E552E5520001C80E6F6FEF
:1034F000E66EE66A60D9E552E552110E0001626F90
:10350000636B646F656B666F676B686F696BC80E22
:103510006F6FE66EE66A4FD9E552E552000E000184
:10352000626F636B646F656B666F676B686F696B07
:10353000C20E606FE850166E176AFA0E086E096ABE
:1035400016C00DF017C00EF0C0EC2BF006C014F042
:1035500007C015F0190E0D6E0E6A06C008F007C000
:1035600009F09AEC2BF008C014F009C015F008C05F
:10357000E6FF09C0E6FFDCEC2DF0E552E552000164
:10358000C80E6F6FE66EE66A16D9E552E5528B9269
:1035900089948986110E0001686F696B666F676B8D
:1035A000646F656B626F636B606B6051166E176A58
:1035B000FA0E086E096A60C00DF017C00EF0C0EC7C
:1035C0002BF006C014F007C015F0190E0D6E0E6A30
:1035D00006C008F007C009F09AEC2BF008C014F000
:1035E00009C015F008C0E6FF09C0E6FFDCEC2DF0CD
:1035F000E552E552E6D900016D056AE16D6B6C514B
:10360000050A34E0010A23E0070A0DE0010A06E09A
:10361000030A5EE18B928994898603D08B92898418
:103620008996110E1AD08B9289848986000E626F5A
:10363000636B646F656B666F676B686F696B6E6BEE
:10364000010E776F7AC078F07BC079F01BD08B8247
:1036500089948996716B726B000E626F636B646FF5
:10366000656B666F676B686F696B0CD08B82899432
:10367000898671C0E6FF72C0E6FFCBEC21F0E5520F
:10368000E5520001606B6051166E176AFA0E086E03
:10369000096A60C00DF017C00EF0C0EC2BF006C038
:1036A00014F007C015F0190E0D6E0E6A06C008F072
:1036B00007C009F09AEC2BF008C014F009C015F00F
:1036C00008C0E6FF09C0E6FFDCEC2DF0E552E5524C
:1036D000030E00016C5D8EE16E0508E16E6B010E5C
:1036E000776F7AC078F07BC079F084D7770527E1CF
:1036F000320E156A7825146E795115227B511518F2
:10370000E8AE02D0153404D014507A5D15507B59C0
:1037100014E278C016F079C017F0320E165E000E73
:10372000175A17507B19E8AE02D07B3504D07A5176
:10373000165C7B51175801E25DD7776B5BD77751E9
:1037400001E058D77AC07CF07BC07DF0D8907D51E5
:1037500004E6E80E7C5D030E7D5904E3E80E7C6F01
:10376000030E7D6F050E0D6E0E6A7CC008F07DC0E5
:1037700009F09AEC2BF008C07CF009C07DF0050E32
:10378000086E096A7CC00DF07DC00EF0C0EC2BF015
:1037900006C07CF007C07DF006C0E6FF07C0E6FF6C
:1037A000CBEC21F0E552E552320EE66EE66A03D824
:1037B000E552E5521FD7D9CFE6FFE1CFD9FFFD0E85
:1037C000DBCF14F0DB06FE0EDBCF15F001E2DB06EB
:1037D0001450151006E00C0EE66E14EC2FF0E552B6
:1037E000EED7E552E7CFD9FF1200D9CFE6FFE1CF00
:1037F000D9FFFD0EDBCF14F0DB06FE0EDBCF15F09C
:1038000001E2DB061450151006E00C0EE66E5EECCD
:103810002FF0E552EED7E552E7CFD9FF1200D9CF0E
:10382000E6FFE1CFD9FFE6520D0EE66E070EE66E1B
:10383000EF0EE66EA5EC2DF0E552E552E5520D0EC9
:10384000C16ED30E926E8968D00E936E8A68B90EDF
:10385000946E8B68956A8C68040E966E070E8D6E5A
:103860008B92899489960001606B616B9F0EE66E66
:1038700086EC2EF0E552F194F294200EE66ED10E15
:10388000E66E6AEC2EF0E552E5523E0EE66EA2ECD4
:103890002EF0E552F90EE66EBDEC2EF0E552000179
:1038A000606B616B6051166E176AFA0E086E096ADA
:1038B00060C00DF017C00EF0C0EC2BF006C014F085
:1038C00007C015F0190E0D6E0E6A06C008F007C08D
:1038D00009F09AEC2BF008C014F009C015F008C0EC
:1038E000E6FF09C0E6FFDCEC2DF0E552E5524D0E97
:1038F000E66EE66A7C0EE66EE6EC2CF0E552E552EA
:10390000E552D08EF28EF28CB6EC01F099EC0EF00E
:10391000DF6A060EDF5C09E2DF50EA6A570FE96EE4
:10392000010EEA22EF68DF2AF4D7C10E146E560E9C
:10393000156E166A14C0E6FFE66E16C0E6FF9AEC36
:103940002CF0E552E552E552A70E146E560E156E98
:10395000166A14C0E6FFE66E16C0E6FF9AEC2CF07D
:10396000E552E552E552060EE66E570EE66E010E82
:10397000E66E9BEC21F0E552E552E552A40E146E82
:10398000560E156E166A14C0E6FFE66E16C0E6FF08
:103990009AEC2CF0E552E552E5526B0E146E560E81
:1039A000156E166A14C0E6FFE66E16C0E6FF9AECC6
:1039B0002CF0E552E552E552E552E552E7CFD9FF4A
:1039C0001200D9CFE6FFE1CFD9FF2A0EE126DE5261
:1039D000010EDD6E040EF36E020EF3CFDBFF300E30
:1039E000F36E030EF3CFDBFF300EF36E040EF3CF56
:1039F000DBFF300EF36E050EF3CFDBFF300EF36E00
:103A0000060EF3CFDBFF300EF36E070EF3CFDBFFB6
:103A1000080EDB6A090EDB6A0A0EDB6A0B0EDB6A34
:103A20000C0EDB6A0D0EDB6A0E0EDB6A0F0EDB6A14
:103A3000100EDB6A110EDB6A120EDB6A070EF36EE4
:103A4000130EF3CFDBFF120EF36E270EF3CFDBFF67
:103A500029EC16F0000902E191EF21F04B0EE66E21
:103A6000010EE66E71EC16F0E552E552000902E136
:103A700091EF21F0600E146E560E156E166A14C08A
:103A8000E6FFE66E16C0E6FF9AEC2CF0E552E55232
:103A9000E5524BC1E6FF4C0EE66E010EE66E9BEC66
:103AA00021F0E552E552E552A40E146E560E156E45
:103AB000166A14C0E6FFE66E16C0E6FF9AEC2CF01C
:103AC000E552E552E552540E146E560E156E166A06
:103AD00014C0E6FFE66E16C0E6FF9AEC2CF0E55245
:103AE000E552E55256C1E6FFD4EC0DF0E552DF6E2B
:103AF000DFCFE6FF4CEC0EF0E552F3CF14F0F4CF3D
:103B000015F0166AF3CFE6FFF4CFE6FF16C0E6FF26
:103B10009AEC2CF0E552E552E552A40E146E560EC6
:103B2000156E166A14C0E6FFE66E16C0E6FF9AEC44
:103B30002CF0E552E552E552030EDF5C0AE0040E7C
:103B4000DF5C07E0050EDF5C04E0200E146E560E0D
:103B500050D0000E146E560E156E166A14C0E6FF95
:103B6000E66E16C0E6FF9AEC2CF0E552E552E552FF
:103B70004B0EE66E010EE66E570EE66E010EE66E19
:103B8000130EDBCFE6FF600EE66E86EC08F0146ED7
:103B9000060EE15E1450E76E140EE7CFDBFFDB503C
:103BA00035E0E40E146E550E156E166A14C0E6FF6D
:103BB000E66E16C0E6FF9AEC2CF0E552E552E552AF
:103BC000140EDBCFE6FF06EC0EF0E552F3CF14F057
:103BD000F4CF15F0166AF3CFE6FFF4CFE6FF16C078
:103BE000E6FF9AEC2CF0E552E552E552A40E146E75
:103BF000560E156E166A14C0E6FFE66E16C0E6FF96
:103C00009AEC2CF0E552E552E5528BD3CA0E146EB5
:103C1000550E156E166A14C0E6FFE66E16C0E6FF76
:103C20009AEC2CF0E552E552E552010EDBCFE6FFAF
:103C3000570EE66E010EE66E4B0EE66E010EE66E58
:103C400091EC10F0146E050EE15E1450A40E146E8B
:103C5000560E156E166A14C0E6FFE66E16C0E6FF35
:103C60009AEC2CF0E552E552E552020EDBCFE6FF6E
:103C7000E66AA70E146E550E156E166A14C0E6FF9E
:103C8000E66E16C0E6FF9AEC2CF0176E050EE15EAC
:103C90001750D950270FE66E000EDA20E66ED95085
:103CA000150FE66E000EDA20E66E020EDBCFE6FFA1
:103CB00038EC09F0146E050EE15E1450E76E140E38
:103CC000E7CFDBFFDB5034E0900E146E550E156E1F
:103CD000166A14C0E6FFE66E16C0E6FF9AEC2CF0FA
:103CE000E552E552E552140EDBCFE6FF06EC0EF08E
:103CF000E552F3CF14F0F4CF15F0166AF3CFE6FFD8
:103D0000F4CFE6FF16C0E6FF9AEC2CF0E552E55240
:103D1000E552A40E146E560E156E166A14C0E6FF18
:103D2000E66E16C0E6FF9AEC2CF0E552E552E5523D
:103D3000020EDBCFE6FFE66A7A0E146E550E156EA4
:103D4000166A14C0E6FFE66E16C0E6FF9AEC2CF089
:103D5000176E050EE15E1750100EE66ED950150F66
:103D6000E66E000EDA20E66EE6DAE552E552E5523E
:103D7000750E146E550E156E166A14C0E6FFE66ECB
:103D800016C0E6FF9AEC2CF0E552E552E552150E0E
:103D9000DBCF70F0160EDB50D00F186E196AE80EEC
:103DA0001902F3CF19F0030E1802F3501926E80E8A
:103DB0001802F3CF18F0F4501926170EDB50D00F6D
:103DC000640D1850F324166E1950F420176E180E57
:103DD000DB50D00F0A0D1650F324146E1750F42048
:103DE000156E190EDB50D00F00011424736F000EF6
:103DF0001520746F010E6E6F6C51050A01E102D13E
:103E0000010A01E1F0D0070A0EE0010A07E0030A07
:103E100001E023D2490E705D0CE0FDD0450E705DCF
:103E200001E0F9D006D0490E705D01E1F4D07705CC
:103E300005E173C0E6FF74C0E6FFE2D073517C2554
:103E4000736F74517D21746F73C0E6FFE66EA3DA61
:103E5000E552E552450EF36E030EF3CFDBFF73C060
:103E600014F074C015F0E80E0D6E030E0E6E73C0E4
:103E700008F074C009F0ECEC2EF008C014F009C092
:103E800015F0300E1426000E1522040E14C0DBFFB0
:103E900073C014F074C015F0E80E0D6E030E0E6EB4
:103EA00073C008F074C009F0ECEC2EF004C014F0FC
:103EB00005C015F0640E0D6E0E6A04C008F005C052
:103EC00009F0ECEC2EF008C014F009C015F0300E2B
:103ED0001426000E1522050E14C0DBFF73C014F06B
:103EE00074C015F0640E0D6E0E6A73C008F074C0D5
:103EF00009F0ECEC2EF004C014F005C015F00A0E29
:103F00000D6E0E6A04C008F005C009F0ECEC2EF04E
:103F100008C014F009C015F0300E1426000E15224A
:103F2000060E14C0DBFF73C014F074C015F00A0E47
:103F30000D6E0E6A73C008F074C009F0ECEC2EF040
:103F400004C014F005C015F0300E1426000E152222
:103F5000070E14C0DBFF020EDBCFE6FFE66A520E4F
:103F6000146E550E156E166A14C0E6FFE66E16C086
:103F7000E6FF9AEC2CF0176E050EE15E1750100E5E
:103F8000E66ED950030FE66E000EDA20E66ED3D946
:103F9000E552E552E552A40E146E560E156E166AE1
:103FA00014C0E6FFE66E16C0E6FF9AEC2CF0E55270
:103FB000E552E552100EE66ED950030FE66E000E84
:103FC000DA20E66E020EDBCFE6FFB2EC09F0E55236
:103FD000E552E552E552E76E140EE7CFDBFFDB500A
:103FE00001E12CD1F7D0490E705D01E036D171515D
:103FF0007325716F72517421726F71C0E6FFE66EA6
:10400000CAD929D1450E705D01E027D17151735D88
:10401000725174590AE2110E626F636B646F656BC3
:10402000666F676B686F696B18D17151735D736FE1
:1040300072517459746F716B726B73C0E6FFE66EE8
:10404000AAD9E552E552450EF36E030EF3CFDBFF1E
:1040500073C014F074C015F0E80E0D6E030E0E6EF2
:1040600073C008F074C009F0ECEC2EF008C014F036
:1040700009C015F0300E1426000E1522040E14C0CF
:10408000DBFF73C014F074C015F0E80E0D6E030E64
:104090000E6E73C008F074C009F0ECEC2EF004C092
:1040A00014F005C015F0640E0D6E0E6A04C008F021
:1040B00005C009F0ECEC2EF008C014F009C015F0B2
:1040C000300E1426000E1522050E14C0DBFF73C03F
:1040D00014F074C015F0640E0D6E0E6A73C008F013
:1040E00074C009F0ECEC2EF004C014F005C015F01B
:1040F0000A0E0D6E0E6A04C008F005C009F0ECEC63
:104100002EF008C014F009C015F0300E1426000E71
:104110001522060E14C0DBFF73C014F074C015F036
:104120000A0E0D6E0E6A73C008F074C009F0ECEC54
:104130002EF004C014F005C015F0300E1426000E49
:104140001522070E14C0DBFF020EDBCFE6FFE66A86
:10415000520E146E550E156E166A14C0E6FFE66E0A
:1041600016C0E6FF9AEC2CF0176E050EE15E1750B4
:10417000100EE66ED950030FE66E000EDA20E66EE2
:10418000DAD8E552E552E552A40E146E560E156EBD
:10419000166A14C0E6FFE66E16C0E6FF9AEC2CF035
:1041A000E552E552E552100EE66ED950030FE66E69
:1041B000000EDA20E66E020EDBCFE6FFB2EC09F06D
:1041C000E552E552E552E552E76E140EE7CFDBFF0C
:1041D000DB5034E03A0E146E550E156E166A14C09C
:1041E000E6FFE66E16C0E6FF9AEC2CF0E552E552CB
:1041F000E552140EDBCFE6FF06EC0EF0E552F3CFEE
:1042000014F0F4CF15F0166AF3CFE6FFF4CFE6FF13
:1042100016C0E6FF9AEC2CF0E552E552E552A40EEA
:10422000146E560E156E166A14C0E6FFE66E16C0C2
:10423000E6FF9AEC2CF0E552E552E552A40E146E1E
:10424000560E156E166A14C0E6FFE66E16C0E6FF3F
:104250009AEC2CF0E552E552E552030E00016C5D3C
:1042600004E1450E705D01E17751C80E6F6FC20E1B
:10427000606FE850166E176AFA0E086E096A16C06B
:104280000DF017C00EF0C0EC2BF006C014F007C004
:1042900015F0190E0D6E0E6A06C008F007C009F081
:1042A0009AEC2BF008C014F009C015F008C0E6FF26
:1042B00009C0E6FFDCEC2DF0E552E552CA0E146EA3
:1042C000550E156E166A14C0E6FFE66E16C0E6FFC0
:1042D0009AEC2CF0E552E552E552010EDBCFE6FFF9
:1042E000570EE66E010EE66E4B0EE66E010EE66EA2
:1042F00091EC10F0146E050EE15E1450A40E146ED5
:10430000560E156E166A14C0E6FFE66E16C0E6FF7E
:104310009AEC2CF0E552E552E55234EC08F02FEC23
:1043200009F02A0EE15C02E2E16AE552E16EE55233
:10433000E7CFD9FF1200D9CFE6FFE1CFD9FFE65290
:10434000DF6AFC0EDB50DF5C21E2DF50E76EFD0E22
:10435000DBCFE9FFFE0EDBCFEAFFE750E926000ED8
:10436000EA22EF50E66EE66A340E146E550E156EB4
:10437000166A14C0E6FFE66E16C0E6FF9AEC2CF053
:10438000176E050EE15E1750DF2ADBD7E552E552C6
:10439000E7CFD9FF1200D9CFE6FFE1CFD9FFE15037
:1043A000FD0FE96EFF0EDA20EA6E100E0D6E270E7D
:1043B0000E6EEECF08F0EDCF09F0ECEC2EF004C05D
:1043C000EEFF05C0EDFFFD0EDBCF68F0FE0EDBCF8C
:1043D00069F0E80E0D6E030E0E6E68C008F069C03D
:1043E00009F0ECEC2EF008C068F009C069F0FD0E91
:1043F000DBCF66F0FE0EDBCF67F0E80E0D6E030E2E
:104400000E6E66C008F067C009F0ECEC2EF004C038
:1044100066F005C067F0640E0D6E0E6A04C008F009
:1044200005C009F0ECEC2EF008C066F009C067F09A
:10443000FD0EDBCF64F0FE0EDBCF65F0640E0D6E7B
:104440000E6A64C008F065C009F0ECEC2EF004C000
:1044500064F005C065F00A0E0D6E0E6A04C008F027
:1044600005C009F0ECEC2EF008C064F009C065F05E
:10447000FD0EDBCF62F0FE0EDBCF63F00A0E0D6E99
:104480000E6A62C008F063C009F0ECEC2EF004C0C4
:0E44900062F005C063F0E552E7CFD9FF1200DD
:02449E008BECA5
:1044A00027F0FB0EDBCFF3FFDB06F35000090AE039
:1044B000D9EC27F0FA0E44EC28F0F3E1151CF1E1F9
:1044C000010E01D0000EBAEF27F08BEC27F03B0E67
:1044D000E12402E3E168E652E16E010EDB6A020EBE
:1044E000DB6AF90EDBCFF6FFFA0EDBCFF7FFFB0E30
:1044F000DBCFF8FF0800F550DF6EDF5002E1DEEFA2
:1045000026F0250EDF5C02E0D1EF26F0030EDB6A19
:10451000040EDB6A050EDB6A060EDB6A070EDB6A39
:10452000F3EC26F02D0EDF5C0CE02B0EDF5C09E0D7
:10453000200EDF5C06E0230EDF5C03E0300EDF5C64
:104540001AE1DF50300A14E0130A0FE0030A0AE010
:104550000B0A05E0060AE4E1030EDB80E1D7030E57
:10456000DB82DED7030EDB84DBD7030EDB86D8D7F6
:10457000030EDB88D5D72A0EDF5C1BE1EFEC26F0BB
:104580003DEC27F010E0030EDB8008680968130E8D
:10459000DBCF0DF0140EDBCF0EF0C0EC2BF0040ED1
:1045A00006C0DBFF03D0130E26EC27F0F3EC26F059
:1045B0000BD0090EDB6A94EC27F003E008EC28F03E
:1045C000FAD7090E26EC27F0030EDBB0DB982E0E8F
:1045D000DF5C1BE1F3EC26F02A0EDF5C0BE1EFEC75
:1045E00026F03DEC27F003E1130E78EC27F0F3EC16
:1045F00026F00BD0090EDB6A94EC27F003E008EC00
:1046000028F0FAD7090E78EC27F0680EDF5C07E196
:10461000F3EC26F0680EDF5C1DE1030E18D0740E7B
:10462000DF5C17E07A0EDF5C14E0480EDF5C06E02A
:10463000540EDF5C03E05A0EDF5C02E1020E07D08D
:104640006C0EDF5C03E06A0EDF5C04E1010ECBEC74
:1046500027F0C9DBDF506E0A01E17FD31E0A01E1BA
:1046600092D1200A01E18FD13F0A01E149D11A0A12
:1046700001E146D10D0A01E143D1200A01E140D117
:104680003A0A01E13DD1200A01E13AD1260A01E1CD
:1046900035D10D0A01E132D11A0A01E1D9D0200A3F
:1046A0004AE0300A1FE0460A0EE0250A01E083D303
:1046B000D950F90FE96EFF0EDA20EA6E010EEE5EB8
:1046C000000EEE5AEE5AD9EC27F0250EE66E95DB79
:1046D00003E1151C01E169D3D5EC27F001E26BD3AE
:1046E000DB2A69D3080EDB6A040EDB50010806E200
:1046F000040EDB049DEC27F0DB508BDB080EDB5057
:1047000009E0030EDB50010B05E172DB01E04DD344
:10471000080EDB6A64DBEFCFDFFF4DEC28F003E12E
:10472000151C01E142D3D5EC27F001E3DB2A60DB65
:1047300001E141D33AD3070EDB5002080FE119EC37
:1047400028F0030EE0EC27F00E0EEECFDBFF0F0E8D
:10475000EECFDBFF100EEECFDBFF20D0F70EDBCF6E
:1047600017F0F80EDBCF18F0020E175E000E185A85
:10477000F70E17C0DBFFF80E18C0DBFF17C0E9FF0C
:1047800018C0EAFFD0EC27F0166A0E0E14C0DBFF4B
:104790000F0E15C0DBFF100E16C0DBFF0E0EDBCFB9
:1047A000E6FF0F0EDBCFE6FF100EDBCFE6FF26ECB9
:1047B0002CF0E552E552E552130E07C0DBFF140E54
:1047C00008C0DBFF060EDB5005E0130E14EC28F0EA
:1047D00001E26ADB38EC28F002E2130E37DBFBEC77
:1047E00027F006E0040E14EC28F002E2050E2EDBA2
:1047F000030EDBB005D0FCDA01E0D7D2080EDB6A8D
:10480000090EDB6A0E0EDBCFF6FF0F0EDBCFF7FFD4
:10481000100EDBCFF8FF0800F550DF6EDF5014E01C
:104820003EEC28F011E24DEC28F003E1151C01E10B
:10483000BCD2BBDB01E3DB2A090EDB2AD9500E0F09
:10484000E96E000ECBDBE7D7D3DA01E1B4D2ADD20B
:10485000C6DA110EEECFDBFF120EEDCFDBFF110E2D
:10486000DBCFE6FF120EDBCFE6FF18EC2CF0E552B3
:10487000E552130EF3CFDBFF140EF4CFDBFF060E71
:10488000DB5004E0130ED0DB01E20EDB38EC28F045
:1048900002E2130EDBDAAFDB05E0040EC5DB02E259
:1048A000050ED4DA030EDBB005D0A2DA01E07DD22A
:1048B000080EDB6A090EDB6A110EDBCFE9FF120E70
:1048C000DBCFEAFFEFCFDFFFDF5014E0D7DB12E2F0
:1048D000E4DB03E1151C01E168D267DB01E3DB2ABD
:1048E000090EDB2A110EDB2ADBCFE9FF120EE8E30B
:1048F000DB2AE6D77DDA01E15ED257D2030EDB8EEA
:10490000070EDB0410E195DB040E5ADB0A0EEECF36
:10491000DBFF0B0EEECFDBFF0C0EEECFDBFF0D0E41
:10492000EECFDBFF6CD0070EDB5003082CE1030E4B
:10493000DBAE0DD0B2DA020E76DAEFCF14F0156AE4
:10494000166A176A14AE39D01568166835D0F70E96
:10495000DBCF15F0F80EDBCF16F0020E155E000E61
:10496000165AF70E15C0DBFFF80E16C0DBFF15C098
:10497000E9FF16C0EAFFEFCF14F00A0E14C0DBFF08
:104980000B0EDB6A38D0070EDB50020809E1030E7C
:10499000DBAE04D059DB16AE10D00ED055DB0DD0F7
:1049A000030EDBAE12D079DA020E3DDAF9DA166ABE
:1049B000176A15AE02D016681768E2DA0C0E16C038
:1049C000DBFF0D0E17C0DBFF1AD0F70EDBCF16F0A2
:1049D000F80EDBCF17F0020E165E000E175AF70E18
:1049E00016C0DBFFF80E17C0DBFF16C0E9FF17C0CB
:1049F000EAFFD6DAC5DA0C0EDB6A0D0EDB6A060EAC
:104A0000DB5005E1010EF36E050EF3CFDBFF150E53
:104A1000DB6A160EDB6AD950370F146E000EDA20EF
:104A2000156E390E14C0DBFF3A0E15C0DBFF380ED1
:104A3000DB6A080EDB6A0A0EAEDADF50780A12E093
:104A4000200A10E0280A0CE0200A0AE03F0A06E0EB
:104A50000D0A02E0200A08E1020E05D0080E03D07C
:104A6000080EDF26100E97DA030EDBBE02D0DB92B3
:104A7000DB94DB50800B24E08ADAD890030EEB50F5
:104A8000000A08E6000EEE5C000EEE58000EEE582E
:104A9000000EEE5815E213DA0B680C680D680E680C
:104AA0006DEC2DF00A0E02C0DBFF0B0E03C0DBFF26
:104AB0000C0E04C0DBFF0D0E05C0DBFF2D0E08D071
:104AC000030EDBA202D02B0E03D0DBA408D0200EF5
:104AD000F36E170EF3CFDBFF150EDB2A02D0170E95
:104AE000DB6A050EDB5003E1B7D901E189D0F60E90
:104AF000146E5E0E156E000E166E070EDBCF17F0ED
:104B0000186A196A1A6A17C00BF018C00CF019C09D
:104B10000DF01AC00EF0D3D90BEC2EF01450022475
:104B2000F36E15500320F46E16500420F86EF4CF87
:104B3000F7FFF3CFF6FF0800090EF5CFDBFF580EA5
:104B4000DF5C0FE1610EF36E090E7BD90AE3200EE4
:104B5000146E090EDBCFE7FF1450E75E090EE7CFB6
:104B6000DBFF070EDBCF14F0156A166A176A0FDA3F
:104B700014C00BF015C00CF016C00DF017C00EF0ED
:104B8000EECF06F0EECF07F0EECF08F0EFCF09F052
:104B90000BEC2EF009C0EDFF08C0EDFF07C0EDFFE4
:104BA00006C0EFFF390EDBCFE9FFDB063A0EDBCFA5
:104BB000EAFF01E2DB06090EDBCFEFFF150EDB2A71
:104BC0004BD995E1030EDBA61DD06F0EDF5C06E12D
:104BD000C1D918E3150EDB285BDA14D0780EDF5C40
:104BE00009E0580EDF5C06E0620EDF5C03E0420E77
:104BF000DF5C08E1020EF36E160EF3CFDBFF02D08E
:104C0000150EDB6A030EDB50100B0EE0040EDBCF3B
:104C100014F0050EDB50D880145406E2060EDB506B
:104C200003E1040EDB5034DA95D90AE2050EDBCF3E
:104C3000E7FF150EDB50E75E050EE7CFDBFF02D086
:104C4000050EDB6A040EDBCF14F0160E45D9D880B2
:104C5000145414E2160EDBCFE6FF150EDBCFE6FF91
:104C6000040EDBCFE6FF050EDB50E552E75CE552B4
:104C7000D880E754E552D880E7545FD9030EDB5063
:104C8000010B0BE1080EDB5008E0B2D801E08DD03B
:104C9000080EDB50BED8080EDB6A170EDB5007E0AB
:104CA00088D9170EF1D903E1151C01E17ED0160E4B
:104CB000DB5016E07ED9300EE66E9FD802E1151C5F
:104CC00074E077D9DFCFE6FF2BEC2DF0E552E5520B
:104CD000E552F4CF15F00001F31C02E1151C65E06C
:104CE000050EDBCF14F0160EDB50D880145409E209
:104CF000050EDBCFE7FF160EDB50E75E050EE7CFB4
:104D0000DBFF300EE66E050ECBD94FE1390EDB2A04
:104D1000DBCFE9FF3A0E01E3DB2ADBCFEAFF090E26
:104D2000EFCFDBFFDB500EE044D9090EADD902E135
:104D3000151C3BE0390EDB2ADBCFE9FF3A0EEDE331
:104D4000DB2AEBD755D831E1160EDBCFE6FF080E94
:104D5000C3D8E552E7245DD82ED0070EDB50030AF6
:104D60001CE0010A14E0030A07E07BD9DBCFEEFF69
:104D7000020EDBCFEDFF1FD0F5D8196A17AE02D0B7
:104D8000186819682CD8BCD819C0EEFF14D0EAD81E
:104D900017BE186824D8B4D80ED063D9DBCFEFFF84
:104DA0000AD07BD905E1151C03E1F368F46810D043
:104DB000FCD801E3DB2A79D97AEF22F0010EDBCFB0
:104DC00014F0020EDBCF15F014C0F3FF15C0F4FF92
:104DD0003B0EE15C02E2E16AE552E16ECBD029D9FB
:104DE000020EE0EF27F061D90800F550DF6E1200E7
:104DF000200EE66E080E50EF28F02BEC2DF0E55259
:104E0000E552E552F3CF14F0F4CF15F00001F31C96
:104E10001200146E156AD950010F4DD91450EE26A8
:104E20001550ED221200185E000E195AF70E18C028
:104E3000DBFFF80E19C0DBFF18C0E9FF19C0EAFF5D
:104E40001200DBCFF4FFF350F45C1200DB50E76E8E
:104E5000040EE7CFDBFF12000A0EDBCF14F00B0EBF
:104E6000DBCF15F00C0EDBCF16F00D0EDBCF17F0FD
:104E700014501510161017101200130EEECFDBFF92
:104E8000140EEDCFDBFF130EDBCF14F0140EDBCFCF
:104E900015F00001800E15141200F70EDBCF18F08C
:104EA000F80EDBCF19F01200050EDB50E66ED9507C
:104EB000130F01D9E552E750EE6EED6A12000A0EAB
:104EC000DBCF06F00B0EDBCF07F00C0EDBCF08F0CC
:104ED0000D0EDBCF09F01200DBCFE6FF150EDBCFA6
:104EE000E6FF050EDB50E552E724E552E724120009
:104EF000DB50CED8010EF36E060EF3CFDBFF1200AF
:104F0000EE50EFCFEAFFE96E16C0EEFF17C0EEFFDE
:104F100018C0EEFF1200D9CFE6FFDACFE6FFE1CFEF
:104F2000D9FFE2CFDAFF1200DFCFE6FFE66A02EC3C
:104F30002FF0E552E552F3501200E76E080EE7CF6E
:104F4000DBFF1200EECF14F0EECF15F0EFCF16F02E
:104F5000176A1200050EDBCF14F0150EDB50D88057
:104F600014541200010EDBCF16F0020EDBCF17F047
:104F7000186A1200E552E5CFDAFFE7CFD9FF120039
:104F80000A0E14C0DBFF0B0E15C0DBFF1200D95058
:104F90000A0F5BEF28F0F36E070EF3CFDBFF120072
:104FA000EECF14F0EFCF15F01200010EDB2A020E47
:104FB0001200FC0EDBCFE6FFFD0EDBCFE6FF12009A
:104FC000145E000E155AF70E14C0DBFFF80E15C064
:104FD000DBFF14C0E9FF15C0EAFF1200DA20EA6E19
:104FE000EF2AEECFF6FF000EEF22EECFF7FFEF2213
:104FF000EECFF8FF1200040EDBCFE6FF130EDB50FE
:10500000E552E75C9ADFDB5004DF060EDB5012004E
:10501000090EDB500A0DF350DF24D00FE76E090EA6
:10502000E7CFDBFFF3EF26F0DB50F36E050E21EF49
:1050300027F0F70EDBCF14F0F80EDBCF15F01200DF
:10504000DFCFE6FFFDEF26F028DF030EECDEA2EF58
:1050500027F04FEC22F0E552E552E552E552000907
:105060001200BDDEEE50EFCFEAFFE96E010E120036
:10507000130EDB50F36E040E21EF27F0040EDB500D
:10508000F36E090E21EF27F0DBCFE6FFFDEF26F0F0
:10509000E76E050EE7CFDBFF12008BDF20EF28F075
:1050A000DBCFE6FF86DF29EF28F0D950F90FE96E54
:1050B000FF0EEEEF27F0E96E000EDA20EA6E120026
:1050C00025580020300025303264002020004D4952
:1050D000464152455F526561642829206661696CCA
:1050E00065643A200050616765202030202031201F
:1050F00020322020330D0A00204164723D30782593
:10510000303258002056616C75653D30782530325C
:10511000580020496E76657274656420616363652A
:105120007373206269747320646964206E6F7420E5
:105130006D6174636821200D0A00205D200020004D
:105140002530316400205B20004D49464152455FC7
:10515000526561642829206661696C65640D0A00E6
:105160005043445F41757468656E7469636174652A
:105170002829206661696C65640D0A002530336456
:105180002020202020202000202020005365637450
:105190006F7220426C6F636B2030302030312030D2
:1051A0003220303320303420303520303620303734
:1051B0002030382030392031302031312031322038
:1051C00031332031342031352041636365737342BC
:1051D0006974730D0A005049434320747970653A2D
:1051E0002000436172642053414B3A2030782530CF
:1051F00032580D0A00253032582000436172642075
:105200005549443A20000D0A004E6F206D656D6FC0
:1052100072792064756D7020686572652E00447522
:105220006D70696E67206D656D6F727920636F6E4A
:1052300074656E7473206E6F7420696D706C656D2B
:10524000656E74656420666F7220746861742050A6
:1052500049434320747970652E005741524E494EA0
:10526000473A20436F6D6D756E69636174696F6E47
:10527000206661696C7572652C206973207468659D
:10528000204D4652433532322070726F7065726C19
:105290007920636F6E6E65637465643F00203D2006
:1052A00028756E6B6E6F776E290D0A00203D207693
:1052B000322E300D0A00203D2076312E300D0A00AE
:1052C000203D2076302E300D0A00203D2028636CD2
:1052D0006F6E65290D0A004669726D7761726520EF
:1052E00056657273696F6E3A2030782530325800F7
:1052F000556E6B6E6F776E20747970650053414BFD
:1053000020696E646963617465732055494420693E
:1053100073206E6F7420636F6D706C6574652E0002
:105320004D494641524520544E5033585858004D2F
:1053300049464152452044455346697265004D49EE
:105340004641524520506C7573004D4946415245C7
:1053500020556C7472616C69676874206F72205597
:105360006C7472616C696768742043004D494641F2
:10537000524520344B42004D494641524520314B65
:1053800042004D4946415245204D696E692C2033FB
:105390003230206279746573005049434320636F53
:1053A0006D706C69616E7420776974682049534F21
:1053B0002F49454320313830393220284E46432981
:1053C000005049434320636F6D706C69616E7420B7
:1053D000776974682049534F2F494543203134344D
:1053E00034332D3400556E6B6E6F776E206572729C
:1053F0006F720041204D4946415245205049434378
:1054000020726573706F6E646564207769746820BC
:105410004E414B2E00546865204352435F41206447
:105420006F6573206E6F74206D617463682E004920
:105430006E76616C696420617267756D656E742E3D
:1054400000496E7465726E616C206572726F7220B5
:10545000696E2074686520636F64652E2053686FE1
:10546000756C64206E6F742068617070656E2E00BC
:105470004120627566666572206973206E6F7420C4
:1054800062696720656E6F7567682E0054696D6587
:105490006F757420696E20636F6D6D756E696361E1
:1054A00074696F6E2E00436F6C6C697373696F6EF5
:1054B0002064657465637465642E004572726F7252
:1054C00020696E20636F6D6D756E69636174696FBD
:1054D0006E2E00537563636573732E004572726F91
:1054E000723A205472616E7366657220746865202A
:1054F000646174612E0D0A004572726F723A205415
:10550000656C6C20746865205049434320776520A2
:1055100077616E7420746F20777269746520746F80
:1055200020626C6F636B20626C6F636B41646472AA
:105530002E0D0A002530325820004D494641524573
:105540005F57726974652829206661696C65643AE1
:10555000200057726974696E672064617461206904
:105560006E746F20626C6F636B2025303258202E72
:105570002E2E0D0A000D0A0D0A0044617461206987
:105580006E20626C6F636B20253032583A0D0A0032
:105590004D49464152455F52656164282920666144
:1055A000696C65643A200052656164696E672064C5
:1055B0006174612066726F6D20626C6F636B202571
:1055C000303258202E2E2E0D0A0043757272656EF1
:1055D00074206461746120696E20736563746F72F6
:1055E0003A0D0A005043445F41757468656E7469F2
:1055F000636174652829206661696C65643A2000DE
:1056000041757468656E7469636174696E6720754D
:1056100073696E67206B657920412E2E2E0D0A006E
:10562000546869732073616D706C65206F6E6C795E
:1056300020776F726B732077697468204D494641FB
:10564000524520436C6173736963206361726473B4
:105650002E0D0A005049434320747970653A2000AA
:1056600043617264205549443A20004245574152F3
:10567000453A20446174612077696C6C2062652032
:105680007772697474656E20746F20746865205039
:105690004943432C20696E20736563746F72202325
:1056A000310D0A000D0A005573696E67206B65792C
:1056B0002028666F72204120616E642042293A20C2
:1056C000005363616E2061204D494641524520439D
:1056D0006C6173736963205049434320746F206485
:1056E000656D6F6E7374726174652072656164209C
:1056F000616E642077726974652E0D0A002563005F
:10570000006A0EAE86EF2BF00E6C001E09AE8BEF1A
:105710002BF0096C001E50EC2FF009BE95EF2BF01A
:1057200000AE000C096C056C000C00BE92EF2BF073
:105730000188FF0C006A0EAEA3EF2BF00D6C0E1E5D
:10574000E86A0E22001E09AEABEF2BF0086C091EB2
:10575000E86A0922001EECEC2EF009BEBBEF2BF02C
:1057600000AE000C086C091EE86A0922046C051ED4
:10577000E86A0522000C00BEB2EF2BF00188FF0C96
:1057800009C013F008C012F008500D02F4CF07F062
:10579000F3CF06F009500E02F4CF09F0F3CF08F072
:1057A0000D02F3500726F4500822E86A092212502D
:1057B0000E02F3500726F4500822E86A09220EAEC2
:1057C000E6EF2BF01250085E1350095A13AE000C8E
:0A57D0000D50085E0E50095A000C3F
:0657DA00D9CFE6FFDACF93
:1057E000E6FFFA0EE3CFD9FFFB0EE3CFDAFFFC0EA4
:1057F000E3CFE9FFFD0EE3CFEAFFE9CFF3FFEACF06
:10580000F4FFF80EE35003E1F90EE35008E0F80E60
:10581000E30602E2F90EE306DECFEEFFF2D7FF0E5B
:10582000E3CFDAFFE552FF0EE3CFD9FFE5521200D6
:10583000FE0EE3CFE9FFFF0EE3CFEAFFF36AF46A5F
:10584000EE5203E0F34AF42AFBD71200FF0EE3CF37
:10585000F8FFE552FF0EE3CFF7FFE552FF0EE3CF6F
:10586000F6FFE552E66AE66AE66A0900F55209E0E3
:10587000FD0EE32A05E1FE0EE32A02E1FF0EE32A14
:10588000F4D7FD0EE3CF07F0FE0EE3CF08F0FF0ED6
:06589000E3CF09F0120055
:0A5896001E0EF66E000EF76E000EF7
:1058A000F86E00010900F550CC6F0900F550CD6F7E
:1058B00003E1CC6701D03DD00900F550C76F090066
:1058C000F550C86F0900F550C96F09000900F5507F
:1058D000E96E0900F550EA6E090009000900F5506B
:1058E000CA6F0900F550CB6F09000900F6CFCEF062
:1058F000F7CFCFF0F8CFD0F0C7C0F6FFC8C0F7FFA2
:10590000C9C0F8FF0001CA5302E1CB5307E0090008
:10591000F550EE6ECA07F8E2CB07F9D7CEC0F6FF16
:10592000CFC0F7FFD0C0F8FF0001CC07000ECD5B61
:04593000BFD71200CB
:0C593400D9CFE6FFDACFE6FFE1CFD9FFC4
:10594000E2CFDAFFE652E652E652E652D950FB0FBA
:10595000146EFF0EDA20156E14C0DEFFDD6EDECF92
:10596000E6FFDDCFE6FFFB0EDBCFE6FFFC0EDBCF75
:10597000E6FFFD0EDBCFE6FFD1C0E6FFD2C0E6FFBB
:1059800065EC22F0146E070EE15C02E2E16AE5527A
:10599000E16E1450020EF3CFDBFF030EF4CFDBFFFA
:1059A000020EDBCF14F0030EDBCF15F014C0F3FFB3
:1059B00015C0F4FF040EE15C02E2E16AE552E16E1B
:0C59C000E552E5CFDAFFE7CFD9FF120077
:0459CC00D9CFE6FF4A
:1059D000DACFE6FFE1CFD9FFE2CFDAFFAC6AAB6AFC
:1059E000FD0EDBB0AC88DBA202D0AC8CAB8CDBB4A0
:1059F000AC8EDBA602D0AB8801D0AB8ADBB8AC841E
:105A00009E98DBBAAB86DBAC02D09D8A01D09D9A12
:105A10009E9ADBAE02D09D8801D09D98FB0EDB5094
:105A2000AF6EFB0EFC0EDBCF15F015C014F0156A3F
:105A30001450B06EAC8AAB8E949C948EAC50100B0C
:105A400004E0AC50800B01E1948CE552E5CFDAFF25
:065A5000E7CFD9FF1200B0
:0A5A5600D9CFE6FFDACFE6FFE1CF7B
:105A6000D9FFE2CFDAFFFB0EDBCF14F0FC0EDBCF69
:105A700015F00001800E15141AE1FB0EDBCFE9FFD3
:105A8000FC0EDBCFEAFFEECFF3FFEDCFF4FFEE2A03
:105A9000000EEF22F3CFE9FFF4CFEAFFFD0EDBCFDC
