:020000040000FA
:0600000066EF2CF0120077
:020006001200E6
:06000800A0EF18F0120049
:02000E00C250DE
:08001000020B01E0010E1200D9
:060018008DEF16F012004E
:02001E000200DE
:1000200072590000BD00000012000000705900006D
:08003000D900000002000000ED
:08003800D9CFE6FFE1CFD9FFAB
:10004000020EE126DF6A010EDB6ADF6A080EDF5C62
:100050002CE28D90180EE66E90EC2CF0E552FE0E20
:10006000DB50800B02E0010E01D0000EE8B08D8263
:10007000E8A08D92FE0EDB50020DFE0EF3CFDBFFEB
:100080008D80180EE66E90EC2CF0E5528450040B37
:1000900001E0010E146E010EDB50E8241424E76E1B
:1000A000010EE7CFDBFFDF2AD1D7010EDB50146E44
:1000B000020EE15C02E2E16AE552E16E1450E552A3
:1000C000E7CFD9FF1200D9CFE6FFE1CFD9FF899A58
:1000D000FE0EDB507F0BE66EAFDFE552FD0EDBCF91
:1000E000E6FFAADFE552898AE552E7CFD9FF120081
:1000F000D9CFE6FFE1CFD9FFE652899AFE0EDB5059
:100100007F0BE66E99DFE552DF6AFD0EDB50DF5CA8
:1001100012E2DF50E76EFB0EDBCFE9FFFC0EDBCF18
:10012000EAFFE750E926000EEA22EF50E66E84DF90
:10013000E552DF2AEAD7898AE552E552E7CFD9FFAF
:100140001200D9CFE6FFE1CFD9FFE652899AFE0E21
:10015000DB508009E66E70DFE552E66A6DDFE5523E
:10016000DF6E898ADF50E552E552E7CFD9FF1200F2
:10017000D9CFE6FFE1CFD9FFE652FD0EDB5039E0E3
:10018000DF6A899AFE0EDB508009E66E55DFE55284
:10019000DF6AFD0EDB04DF5C18E2FE0EDB50800937
:1001A000E66E4ADFE552E66EDF50E76EFB0EDBCF10
:1001B000E9FFFC0EDBCFEAFFE750E926000EEA225A
:1001C000E552E750EF6EDF2AE4D7E66A35DFE55205
:1001D000E66EDF50E76EFB0EDBCFE9FFFC0EDBCFF8
:1001E000EAFFE750E926000EEA22E552E750EF6EFB
:1001F000898AE552E552E7CFD9FF1200D9CFE6FF51
:10020000E1CFD9FFE652FE0EDBCFE6FF9ADFE552E3
:10021000DF6EFD0EDB50DF10E66EFE0EDBCFE6FF7D
:1002200052DFE552E552E552E552E7CFD9FF120021
:10023000D9CFE6FFE1CFD9FFE652FE0EDBCFE6FFD6
:1002400080DFE552DF6EFD0EDB1CDF14E66EFE0E76
:10025000DBCFE6FF38DFE552E552E552E552E7CF66
:10026000D9FF1200D9CFE6FFE1CFD9FF030EE12677
:10027000E66A020EE66E27DFE552E552040EE66EF0
:100280000A0EE66E20DFE552E552800EE66E140E91
:10029000E66E19DFE552E552FD0EDBCFE6FFFE0EFE
:1002A000DBCFE6FFFC0EDBCFE6FF120EE66E20DFB3
:1002B000E552E552E552E552030EE66E020EE66E99
:1002C00002DFE552E552880EDE6E130EDD6ED9CFE9
:1002D000E9FFDACFEAFF000ED880EE54000EED54AD
:1002E00038E20A0EE66E2DDFE552E76E020EE7CF2A
:1002F000DBFFDBA429D0E66AE66EE5DEE552E552D7
:10030000440EE66E1EDFE552E66EFA0EDBCFE9FF25
:10031000FB0EDBCFEAFFE552E750EF6E420EE66ED2
:1003200010DFE552E66E010EE76EFA0EDBCFE9FF55
:10033000FB0EDBCFEAFFE750E926000EEA22E5528A
:10034000E750EF6E000E06D0DF06010EC0E2DB06BE
:10035000BED7030E146E030EE15C02E2E16AE552C1
:10036000E16E1450E552E7CFD9FF12008A9AF00EE1
:10037000E66E46EC2CF0E552F00EE66E46EC2CF004
:10038000E552780EE66E46EC2CF0E5528A8A898AB0
:100390003FD8E66A240EE66E96DEE552E552E66A3E
:1003A000260EE66E90DEE552E552260EE66E480E0B
:1003B000E66E89DEE552E552800EE66E540EE66E7C
:1003C00082DEE552E552A90EE66E560EE66E7BDE43
:1003D000E552E552030EE66E580EE66E74DEE55207
:1003E000E552E80EE66E5A0EE66E6DDEE552E55217
:1003F000400EE66E2A0EE66E66DEE552E5523D0ED2
:10040000E66E220EE66E5FDEE552E55225EF02F063
:100410000F0EE66E020EE66E56DEE552E552F00E67
:10042000E66E46EC2CF0E552F00EE66E46EC2CF053
:10043000E552780EE66E46EC2CF0E552020EE66EC2
:1004400080DEE552100BFAE11200D9CFE6FFE1CFD2
:10045000D9FFE652280EE66E74DEE552DF6E030E1B
:10046000DF14030808E0030EDF10E66E280EE66EC8
:100470002ADEE552E552E552E552E7CFD9FF1200F8
:10048000030EE66E280EE66ED3DEE552E55212004C
:100490004C0EE66E56DEE552700B1200D9CFE6FF29
:1004A000E1CFD9FFF5DF146EFE0EDB50145C10E0D7
:1004B000700EE66E4C0EE66EBBDEE552E552FE0EA9
:1004C000DB50700BE66E4C0EE66E98DEE552E552A0
:1004D000E552E7CFD9FF1200D9CFE6FFE1CFD9FF30
:1004E000E652300EDF6EF40EDBCFE6FFF50EDBCF0B
:1004F000E6FFF60EDBCFE6FFF70EDBCFE6FFF80EEA
:10050000DBCFE6FFF90EDBCFE6FFFA0EDBCFE6FF2F
:10051000FB0EDBCFE6FFFC0EDBCFE6FFFD0EDBCFF5
:10052000E6FFFE0EDBCFE6FFDFCFE6FF0C0EE66E4A
:1005300009D8146E0D0EE15E1450E552E552E7CF76
:10054000D9FF1200D9CFE6FFE1CFD9FF0B0EE1268C
:10055000030EDB6AD950F40FE96EFF0EDA20EA6E63
:10056000EE50ED1008E0F40EDBCFE9FFF50EDBCF27
:10057000EAFFEF5001D0000EE76E080EE7CFDBFF79
:10058000DBCFE6FFF30EDB38F00BE552E724E76E36
:10059000090EE7CFDBFFE66A020EE66E94DDE55258
:1005A000E5527F0EE66E080EE66E8DDDE552E552F1
:1005B000800EE66E140EE66E86DDE552E552FB0E09
:1005C000DBCFE6FFFC0EDBCFE6FFFA0EDBCFE6FF6C
:1005D000120EE66E8DDDE552E552E552E552090E4A
:1005E000DBCFE6FF1A0EE66E6EDDE552E552FE0E3B
:1005F000DBCFE6FF020EE66E66DDE552E552FE0E4B
:10060000DB500C0807E1800EE66E1A0EE66EF6DD92
:10061000E552E552D00EDE6E070EDD6ED9CFE9FF52
:10062000DACFEAFF000ED880EE54000EED5418E247
:10063000080EE66E86DDE552E76E0A0EE7CFDBFFB9
:10064000FD0EDBCFE6FF0A0EDB50E552E71408E1B2
:100650000A0EDBB00CD0DF06010EE0E2DB06DED7CF
:10066000D9CFE9FFDACFEAFFEE50ED1002E1030E39
:10067000F8D00C0EE66E65DDE552E76E020EE7CFB0
:10068000DBFFDB50130B02E0010EEBD0D950F80F6B
:10069000E96EFF0EDA20EA6EEE50ED1056E0D9500A
:1006A000F60FE96EFF0EDA20EA6EEE50ED104DE027
:1006B000140EE66E46DDE552E76E040EE7CFDBFF73
:1006C000DBCF14F0F60EDBCFE9FFF70EDBCFEAFF4E
:1006D000EF50D880145402E2040EC3D0F60EDBCFE4
:1006E000E9FFF70EDBCFEAFF040EDBCFEFFFF30EDF
:1006F000DBCFE6FFF80EDBCFE6FFF90EDBCFE6FF40
:10070000040EDBCFE6FF120EE66E32DD146E050E30
:10071000E15E1450180EE66E14DDE552070BE76E2D
:10072000030EE7CFDBFFD950F40FE96EFF0EDA209E
:10073000EA6EEE50ED1009E0F40EDBCFE9FFF50EA6
:10074000DBCFEAFF030EDBCFEFFF020EDBB689D073
:10075000D950F80FE96EFF0EDA20EA6EEE50ED1078
:1007600001E17ED0D950F60FE96EFF0EDA20EA6E75
:10077000EE50ED1075E0F20EDB5072E0F60EDBCFBE
:10078000E9FFF70EDBCFEAFFEF0406E1030EDB50D3
:10079000040802E1FF0E65D0F60EDBCFE9FFF70E8D
:1007A000DBCFEAFFEFCF14F0020E145C57E3030E29
:1007B000DB5054E1D950060FE66E000EDA20E66EEB
:1007C000F60EDBCFE9FFF70EDBCFEAFFEF50FE0FAF
:1007D000E66EF80EDBCFE6FFF90EDBCFE6FF42DD7B
:1007E000146E050EE15E1450E76E050EE7CFDBFFD9
:1007F000DB5003E0050EDB5034D0F60EDBCFE9FF13
:10080000F70EDBCFEAFFEF50FE0FE76EF80EDBCFFF
:10081000E9FFF90EDBCFEAFFE750E926000EEA22F6
:10082000EFCF14F0060EDB50145C18E1F60EDBCFB0
:10083000E9FFF70EDBCFEAFFEF04E76EF80EDBCF40
:10084000E9FFF90EDBCFEAFFE750E926000EEA22C6
:10085000EFCF15F0070EDB50155C02E0070E01D05C
:10086000000E146E0B0EE15C02E2E16AE552E16EED
:100870001450E552E7CFD9FF1200D9CFE6FFE1CF00
:10088000D9FFFB0EDBCFE6FFFC0EDBCFE6FFFD0E54
:10089000DBCFE6FFFE0EDBCFE6FF260EE66E23D8AB
:1008A000146E050EE15E1450E552E7CFD9FF120039
:1008B000D9CFE6FFE1CFD9FFFB0EDBCFE6FFFC0E81
:1008C000DBCFE6FFFD0EDBCFE6FFFE0EDBCFE6FF64
:1008D000520EE66E08D8146E050EE15E1450E55215
:1008E000E7CFD9FF1200D9CFE6FFE1CFD9FF020E43
:1008F000E126D950FC0FE96EFF0EDA20EA6EEE50C9
:10090000ED100BE0FA0EDBCFE9FFFB0EDBCFEAFFC9
:10091000EFCF14F0020E145C02E2040E3FD0800E02
:10092000E66E1C0EE66E84DCE552E552070EDF6EC5
:10093000E66AE66AD9CFE6FFDACFE6FFFA0EDBCF4A
:10094000E6FFFB0EDBCFE6FFFC0EDBCFE6FFFD0E86
:10095000DBCFE6FF010EE66ED950FE0FE66EFF0E0E
:10096000DA20E66EB9DD146E0B0EE15E1450E76E10
:10097000010EE7CFDBFFDB5003E0010EDB500ED0B2
:10098000FA0EDBCFE9FFFB0EDBCFEAFFEF500208E8
:1009900002E1DF5002E0010E01D0000E146E020EE3
:1009A000E15C02E2E16AE552E16E1450E552E7CF04
:1009B000D9FF1200D9CFE6FFE1CFD9FF1C0EE12607
:1009C000010EF36E030EF3CFDBFFFC0EDB5050087D
:1009D00002E2060E3DD3800EE66E1C0EE66E28DCAB
:1009E000E552E552DF6ADF5001E023D3030EDB500E
:1009F000030A38E0010A18E0030A01E0FFD1930E70
:100A0000F36E090EF3CFDBFF070EDB6AFC0EDB5043
:100A100021E0FD0EDBCFE9FFFE0EDBCFEAFFEF505A
:100A2000040818E2010E19D0950EF36E090EF3CFEB
:100A3000DBFF030EF36E070EF3CFDBFFFC0EDB5084
:100A400009E0FD0EDBCFE9FFFE0EDBCFEAFFEF5042
:100A5000070802E3000E01D0010EE76E020EE7CF99
:100A6000DBFF0CD0970EF36E090EF3CFDBFF060E03
:100A7000F36E070EF3CFDBFF020EDB6AFC0EDBCF5B
:100A8000E6FF070EDB50080DF350E552E75CE76E1A
:100A9000080EE7CFDBFFDBCF14F0143402E3080EBF
:100AA000DB6A020EF36E060EF3CFDBFF020EDB50A5
:100AB00012E0D950090F146EDACF15F0060EDBCF15
:100AC000F3FFDB2AF3500F011424E96E000EDA2045
:100AD000EA6E880EEF6E080EDBCF16F016C009F036
:100AE0000E6E91EC28F0055002E0010E01D0000ED0
:100AF000156E080E146E0E6EDBCF09F091EC28F027
:100B000009501524E76E180EE7CFDBFFDB5052E0EB
:100B1000020EDB5002E0030E01D0040EE76E1B0E46
:100B2000E7CFDBFF180EDBCF14F01B0EDB50D880B5
:100B3000145406E21B0EDB50E76E180EE7CFDBFF06
:100B4000050EDB6A180EDB50F36E050EDBCFF4FFEB
:100B5000F350F45C2FE2FD0EDBCFE9FFFE0EDBCF9E
:100B6000EAFFEE52E9CF16F0EACF17F0050EDBCF21
:100B7000E6FF070EDB50E552E7240F01E924E96E9A
:100B8000000EEA20EA6EEF50E66ED950090F146E9F
:100B9000DACF15F0060EDBCFF3FFDB2AF350142477
:100BA000E96E000EDA20EA6EE552E750EF6E050EB0
:100BB000DB2AC8D7020EDB5009E0080E146EDBCF2B
:100BC000E7FFE850E726080EE7CFDBFF010EDB6A00
:100BD000010EDB5001E06DD1080EDBCF14F0200ECA
:100BE000E76E1418E8AE02D0E73402D0E750145C88
:100BF0004DE3700EF36E0A0EF3CFDBFF0E0EDBCF6C
:100C0000E6FF0D0EDBCFE6FF0C0EDBCFE6FF0B0E93
:100C1000DB50E552E718E552E718E552E718E76EB2
:100C20000F0EE7CFDBFFD950100FE66E000EDA2073
:100C3000E66E070EE66ED950090FE66E000EDA205A
:100C4000E66E32EC01F0146E050EE15E1450E76EB4
:100C5000040EE7CFDBFFDB5001E09ED1140EDB6A10
:100C6000090EF36E120EF3CFDBFFD9500F0F146E87
:100C7000DACF15F0150E14C0DBFF160EDACFDBFF4E
:100C8000030EF36E170EF3CFDBFF55D0080EDBCF4C
:100C900014F014C009F00E6E91EC28F0140E05C08B
:100CA000DBFF080E146E0E6EDBCF09F091EC28F01E
:100CB000050E09C0DBFFDB50020FE76E060EE7CF23
:100CC000DBFF140EDBCFE6FF060EDB38F00BE55240
:100CD000E724E76E0A0EE7CFDBFF060EDBCFE6FF69
:100CE000140EDB5002E0010E01D0000EE552E724A5
:100CF000E76E120EE7CFDBFFD950090F166EDACF81
:100D000017F0060EDB5000011624146E000EDA20D8
:100D1000156E150E14C0DBFF160E15C0DBFF060E98
:100D2000DB50146E156A090ED8801456000E155645
:100D3000170E14C0DBFF140EDB50E76E130EE7CF67
:100D4000DBFF140EDBCFE6FF130EDB38F00BE552B2
:100D5000E724E66E1A0EE66E63EC00F0E552E5520B
:100D6000E66A130EDBCFE6FFD950140FE66E000ED5
:100D7000DA20E66ED950170FE66E000EDA20E66E26
:100D8000150EDBCFE6FF160EDBCFE6FF120EDBCF34
:100D9000E6FFD950090FE66E000EDA20E66E6CEC25
:100DA00002F0146E0B0EE15E1450E76E040EE7CFF6
:100DB000DBFFDB50020862E11C0EE66EA1EC00F0E6
:100DC000E552E76E190EE7CFDBFFDBAA02D0020E79
:100DD0003FD1DB501F0BE76E1A0EE7CFDBFFDB5076
:100DE00005E1200EF36E1A0EF3CFDBFF1A0EDBCFF8
:100DF00014F0080EDB50D880145402E3050E28D1FD
:100E00001A0EDB50E76E080EE7CFDBFFDB04146E33
:100E1000096E080E0E6E91EC28F0050E05C0DBFF82
:100E2000DB5002E0010E01D0000E156E080E146EAC
:100E30000E6EDBCF09F091EC28F009281524E76E3F
:100E4000060EE7CFDBFF010EF36E050EDB5004E06C
:100E5000D890F336E806FCE1F350166ED950090F2E
:100E6000146EDACF15F0060EDB500F011424E96E74
:100E7000000EDA20EA6EF350EF12AAD6040EDB5011
:100E800001E08AD0080EDBCF14F0200EE76E1418B4
:100E9000E8AE02D0E73402D0E750145C04E3DE523F
:100EA000010EDD6E95D6200EF36E080EF3CFDBFF3C
:100EB0008FD60B0EDB50880802E1030E01D0020E24
:100EC000E76E060EE7CFDBFF0B0EDB50880802E172
:100ED000030E01D0040EE76E180EE7CFDBFF050E00
:100EE000DB6A180EDB50F36E050EDBCFF4FFF35018
:100EF000F45C2FE2D950090F166EDACF17F0060E08
:100F0000DBCFF3FFDB2AF3500F011624E96E000E4E
:100F1000DA20EA6EEF50E66EFD0EDBCFE9FFFE0E43
:100F2000DBCFEAFFEE52E9CF14F0EACF15F0050E61
:100F3000DBCFE6FF070EDB50E552E724E924E96E3C
:100F4000000EEA20EA6EE552E750EF6E050EDB2A4E
:100F5000C8D7170EDB50030803E1140EDB5002E084
:100F6000010E76D0D9500B0FE66E000EDA20E66E39
:100F7000010EE66E150EDBCFE6FF160EDBCFE6FFA9
:100F800032EC01F0146E050EE15E1450E76E040EB3
:100F9000E7CFDBFFDB5003E0040EDB5059D0010E3E
:100FA000E76E150EDBCFE9FF160EDBCFEAFFE75049
:100FB000E926000EEA22EF50F36E0B0EDB50F35CD5
:100FC00012E1020EE76E150EDBCFE9FF160EDBCF46
:100FD000EAFFE750E926000EEA22EF50F36E0C0E0E
:100FE000DB50F35C02E0070E33D0150EDBCFE9FFD8
:100FF000160EDBCFEAFFEF50040B03E0030EDB2AF3
:10100000F2D4010EDF6E150EDBCFE9FF160EDBCF3B
:10101000EAFFEF50E66EFD0EDBCFE9FFFE0EDBCF01
:10102000EAFF0B0EE926000EEA22E552E750EF6ECA
:10103000DAD4030EDB50030DF328E66EFD0EDBCF92
:10104000E9FFFE0EDBCFEAFFE552E750EF6E000E40
:10105000146E1C0EE15C02E2E16AE552E16E14508E
:10106000E552E7CFD9FF1200D9CFE6FFE1CFD9FF94
:10107000050EE126DE52500EDD6E020EDB6AD950FF
:10108000030FE66E000EDA20E66E020EE66ED95011
:10109000010FE66E000EDA20E66E32EC01F0146EFF
:1010A000050EE15E1450DF6EDF5002E0DF5022D00B
:1010B000E66AE66A000EE66EE66AE66EE66AE66EE6
:1010C000E66A040EE66ED950010FE66E000EDA20D5
:1010D000E66E6CEC02F0146E0B0EE15E1450DF6EE7
:1010E000030EDF5C02E1000E05D0DF5002E1010ECD
:1010F00001D0DF50146E050EE15C02E2E16AE552B8
:10110000E16E1450E552E7CFD9FF1200D9CFE6FFC8
:10111000E1CFD9FF0E0EE126100EDF6EFE0EDB5082
:10112000E76E020EE7CFDBFFFD0EDB50E76E030E2E
:10113000E7CFDBFF010EDB6A060EF36E010EDBCF9D
:10114000F4FFF350F45C27E2FB0EDBCFE9FFFC0E6B
:10115000DBCFEAFFE9CF16F0EACF17F0010EDB5044
:101160000F01E924E96E000EEA20EA6EEF50E66E08
:10117000D950020F146EDACF15F0010EDB50020FBA
:101180001424E96E000EDA20EA6EE552E750EF6EA5
:10119000010EDB2AD1D7010EDB6A040EF36E010EBD
:1011A000DBCFF4FFF350F45C33E2F90EDBCFE9FF61
:1011B000FA0EDBCFEAFFEE52E9CF16F0EACF17F0D6
:1011C000010EDBCFE6FFF90EDBCFE9FFFA0EDBCF36
:1011D000EAFFEF50E552E724FC0F0F011624E96EF9
:1011E000000E1720EA6EEF50E66ED950020F146E13
:1011F000DACF15F0010EDB50080F1424E96E000E53
:10120000DA20EA6EE552E750EF6E010EDB2AC5D711
:10121000E66AE66A000EE66EE66AE66EE66AE66E84
:10122000E66A0C0EE66ED950020FE66E000EDA206A
:10123000E66EDFCFE6FF0E0EE66EA2EC02F0146E55
:101240000D0EE15E1450146E0E0EE15C02E2E16AD6
:10125000E552E16E1450E552E7CFD9FF1200080EB7
:10126000E66E100EE66E18EC01F0E552E552120043
:10127000D9CFE6FFE1CFD9FFE652D950FC0FE96E96
:10128000FF0EDA20EA6EEE50ED100BE0FA0EDBCF27
:10129000E9FFFB0EDBCFEAFFEFCF14F0120E145C78
:1012A00002E2040E5AD0FC0EDBCFE9FFFD0EDBCFCD
:1012B000EAFF300EEF6E010EE76EFC0EDBCFE9FFAA
:1012C000FD0EDBCFEAFFE750E926000EEA22FE0E14
:1012D000DBCFEFFF020EE76EFC0EDBCF14F0FD0E4E
:1012E000DBCF15F0E7501426000E152214C0E6FFE0
:1012F00015C0E6FF020EE66EFC0EDBCFE6FFFD0E2C
:10130000DBCFE6FF32EC01F0166E050EE15E165003
:10131000DF6EDF5002E0DF5020D0010EE66EE66A9D
:10132000000EE66EE66AFA0EDBCFE6FFFB0EDBCFC1
:10133000E6FFFC0EDBCFE6FFFD0EDBCFE6FF040E83
:10134000E66EFC0EDBCFE6FFFD0EDBCFE6FF6CECBE
:1013500002F0146E0B0EE15E1450E552E552E7CF39
:10136000D9FF1200D9CFE6FFE1CFD9FF050EE12664
:10137000D950FC0FE96EFF0EDA20EA6EEE50ED1048
:1013800008E0100EF36EFB0EDBCFF4FFF350F45CBD
:1013900002E2060E41D0DE52A00EDD6EFE0EDB50E4
:1013A000E76E020EE7CFDBFFE66AE66ED950010F6B
:1013B000E66E000EDA20E66E43DBE552E552E552BA
:1013C000E552DF6EDF5004E08E0E146E4E0E15D027
:1013D000E66AFB0EDBCFE6FFFC0EDBCFE6FFFD0E81
:1013E000DBCFE6FF2DDBE552E552E552E552DF6E3D
:1013F000DF5011E0720E146E4E0E156E166A14C098
:10140000E6FFE66E16C0E6FFABEC29F0E552E552CA
:10141000E552DF5001D0000E146E050EE15C02E2D1
:10142000E16AE552E16E1450E552E7CFD9FF1200B0
:10143000D9CFE6FFE1CFD9FF070EE126D950FC0F47
:10144000E96EFF0EDA20EA6EEE50ED1008E0040EB1
:10145000F36EFB0EDBCFF4FFF350F45C02E2060EFA
:1014600032D0DE52A20EDD6EFE0EDB50E76E020EB3
:10147000E7CFDBFF040EE66EE66AFC0EDBCFE6FF8D
:10148000FD0EDBCFE6FFD950030FE66E000EDA202B
:10149000E66EFEEC28F0146E060EE15E1450E66A6D
:1014A000060EE66ED950010FE66E000EDA20E66EEB
:1014B000C7DAE552E552E552E552DF6EDF5002E051
:1014C000DF5001D0000E146E070EE15C02E2E16A0B
:1014D000E552E16E1450E552E7CFD9FF1200D9CFA3
:1014E000E6FFE1CFD9FFE150FA0FE96EFF0EDA20F7
:1014F000EA6EEECFE6FFEECFE6FFEECFE6FFEFCFF0
:10150000E6FFFE0EDBCFE6FFC00EE66E3ED8146EA1
:10151000060EE15E1450E552E7CFD9FF1200D9CF95
:10152000E6FFE1CFD9FFE150FA0FE96EFF0EDA20B6
:10153000EA6EEECFE6FFEECFE6FFEECFE6FFEFCFAF
:10154000E6FFFE0EDBCFE6FFC10EE66E1ED8146E80
:10155000060EE15E1450E552E7CFD9FF1200D9CF55
:10156000E6FFE1CFD9FFE66AE66AE66AE66AFE0EC2
:10157000DBCFE6FFC20EE66E08D8146E060EE15E03
:101580001450E552E7CFD9FF1200D9CFE6FFE1CFE3
:10159000D9FF030EE126FE0EDB50E76E010EE7CF0A
:1015A000DBFFFD0EDB50E76E020EE7CFDBFFE66AE6
:1015B000E66ED950010FE66E000EDA20E66E40DAD4
:1015C000E552E552E552E552DF6EDF5012E1010EC1
:1015D000E66E040EE66ED950F90FE66EFF0EDA20C5
:1015E000E66E2EDAE552E552E552E552DF6EDF5047
:1015F00002E0DF5001D0000E146E030EE15C02E247
:10160000E16AE552E16E1450E552E7CFD9FF1200CE
:10161000D9CFE6FFE1CFD9FF030EE126DE52B00EAF
:10162000DD6EFE0EDB50E76E020EE7CFDBFFE66AF3
:10163000E66ED950010FE66E000EDA20E66E00DA93
:10164000E552E552E552E552DF6EDF5002E0DF5031
:1016500001D0000E146E030EE15C02E2E16AE55275
:10166000E16E1450E552E7CFD9FF1200D9CFE6FF63
:10167000E1CFD9FF140EE126120EF36E130EF3CF55
:10168000DBFFD950130FE66E000EDA20E66ED9505C
:10169000010FE66E000EDA20E66EFE0EDBCFE6FFEF
:1016A000E7DD146E050EE15E1450DF6EDF505CE185
:1016B000040EDBCF14F0156A166A176A180E1F0B9A
:1016C00007E0D8901436153616361736E806F9E1D5
:1016D000030EDBCF18F0196A1A6A1B6A100E1F0B73
:1016E00007E0D890183619361A361B36E806F9E1A5
:1016F00018501412195015121A5016121B501712A6
:10170000020EDBCF1CF01D6A1E6A1F6A080E1F0B3B
:1017100007E0D8901C361D361E361F36E806F9E164
:101720001C5014121D5015121E5016121F50171265
:10173000010EDBCF20F0216A226A236A20501412A6
:10174000215015122250161223501712FC0EDBCF17
:10175000E9FFFD0EDBCFEAFF14C0EEFF15C0EEFF80
:1017600016C0EEFF17C0EEFFDF50146E140EE15CE2
:1017700002E2E16AE552E16E1450E552E7CFD9FF8B
:101780001200D9CFE6FFE1CFD9FF120EE126FA0E03
:10179000DBCF14F01450E76E080EE7CFDBFFDB5011
:1017A000DF6E146A1568166A176AD950FA0FE96E67
:1017B000FF0EDA20EA6EEE501416EE501516EE50BB
:1017C0001616EE501716080ED8901732163215322C
:1017D0001432E806F9E1090E14C0DBFF010E14C053
:1017E000DBFF146A156A1668176AD950FA0FE96E9A
:1017F000FF0EDA20EA6EEE501416EE501516EE507B
:101800001616EE501716100ED890173216321532E3
:101810001432E806F9E10A0E14C0DBFF020E14C010
:10182000DBFF146A156A166A1768D950FA0FE96E59
:10183000FF0EDA20EA6EEE501416EE501516EE503A
:101840001616EE501716180ED8901732163215329B
:101850001432E806F9E10B0E14C0DBFF030E14C0CE
:10186000DBFFDF1CE76E040EE7CFDBFF010EDB1CA6
:10187000E76E050EE7CFDBFF020EDB1CE76E060E00
:10188000E7CFDBFF030EDB1CE76E070EE7CFDBFFC6
:10189000FE0EDB50E76E0E0EE7CFDBFFDB50E76E90
:1018A0000C0EE7CFDBFFFE0EDB1CE76E0F0EE7CF63
:1018B000DBFFDB50E76E0D0EE7CFDBFF100EE66EB1
:1018C000D9CFE6FFDACFE6FFFE0EDBCFE6FF4ADD3B
:1018D000E552E552E552E552146E120EE15C02E269
:1018E000E16AE552E16E1450E552E7CFD9FF1200EC
:1018F000D9CFE6FFE1CFD9FF170EE126300EF36E08
:10190000130EF3CFDBFF140EDB6A050EF36E150E1C
:10191000F3CFDBFFDE521B0EDD6E160EDB6A040E0C
:10192000F36E160EDBCFF4FFF350F45C22E2160EDA
:10193000DB50E76EFD0EDBCFE9FFFE0EDBCFEAFFEB
:10194000E750E926000EEA22EF50E66ED950010F6B
:10195000146EDACF15F0160EDB280F011424E96E91
:10196000000EDA20EA6EE552E750EF6E160EDB2A23
:10197000D6D7D950060FE66E000EDA20E66E050EB9
:10198000E66ED950010FE66E000EDA20E66E32ECFC
:1019900001F0146E050EE15E1450DF6EDF5041E180
:1019A000E66AE66AD950140FE66E000EDA20E66E9B
:1019B000D950150FE66E000EDA20E66ED950010FF1
:1019C000E66E000EDA20E66E070EE66ED950010FC5
:1019D000E66E000EDA20E66E130EDBCFE6FF0C0E8D
:1019E000E66EA2EC02F0146E0D0EE15E1450DF6E96
:1019F000FB0EDBCFE9FFFC0EDBCFEAFF010EDBCFF6
:101A0000EFFFE76EFB0EDBCFE9FFFC0EDBCFEAFF5B
:101A1000E750E926000EEA22020EDBCFEFFFDF508F
:101A200002E0DF5001D0000E146E170EE15C02E2FE
:101A3000E16AE552E16E1450E552E7CFD9FF12009A
:101A4000D9CFE6FFE1CFD9FF160EE126300EF36EB7
:101A5000130EF3CFDBFF120EF36E140EF3CFDBFF8A
:101A6000150EDB6AD950FD0FE96EFF0EDA20EA6E23
:101A7000EE50ED1004E0FC0EDB50100802E2060E02
:101A800087D0FC0EDBCFE6FFE66AFD0EDBCFE6FF7C
:101A9000FE0EDBCFE6FFD950010FE66E000EDA2016
:101AA000E66EFEEC28F0146E060EE15E1450D9507E
:101AB000010F166EDACF17F0FC0EDB500001162472
:101AC000146E000EDA20156E14C0E6FFE66EFC0EF2
:101AD000DBCFE6FFD950010FE66E000EDA20E66E8E
:101AE00032EC01F0186E050EE15E1850DF6EDF502B
:101AF0003DE1020E146EFC0EDBCFE7FF1450E7262B
:101B0000FC0EE7CFDBFFE66AE66AD950150FE66EFA
:101B1000000EDA20E66ED950140FE66E000EDA20C1
:101B2000E66ED950010FE66E000EDA20E66EFC0E6E
:101B3000DBCFE6FFD950010FE66E000EDA20E66E2D
:101B4000130EDBCFE6FF0C0EE66EA2EC02F0146E75
:101B50000D0EE15E1450DF6EFB0EDB5005E0030E50
:101B6000DF5C02E1000E14D0DF5002E0DF5010D045
:101B7000140EDB0404E1150EDB50040802E0010E34
:101B800007D0010EDB500A0802E0FF0E01D0000E64
:101B9000146E160EE15C02E2E16AE552E16E145049
:101BA000E552E7CFD9FF1200D9CFE6FFE1CFD9FF49
:101BB000FE0EDB9EDB50400A22E0600A1EE0210A96
:101BC0001AE0110A16E0010A14E0110A10E0180ADE
:101BD0000CE0100A08E0010A04E00D0A12E1FF0E11
:101BE00011D0030E0FD0040E0DD0050E0BD0060E33
:101BF00009D0070E07D0090E05D0010E03D0020E42
:101C000001D0000EE552E7CFD9FF1200D9CFE6FF91
:101C1000E1CFD9FFFE0EDB50FF0A30E0F80A2AE0E0
:101C2000010A24E0030A1EE0010A18E0070A12E094
:101C3000010A0CE0030A06E0010A24E1690E146EB1
:101C40004E0E23D0510E146E4E0E1FD03C0E146E4D
:101C50004E0E1BD0220E146E4E0E17D0060E146EB2
:101C60004E0E13D0D70E146E4D0E0FD0C50E146E3F
:101C70004D0E0BD0AB0E146E4D0E07D0890E146EA8
:101C80004D0E03D07B0E146E4D0E14C0F3FFF46E98
:101C9000E552E7CFD9FF1200D9CFE6FFE1CFD9FF58
:101CA000FE0EDB503CE0FF0A36E0F60A30E0010AA7
:101CB0002AE00F0A24E0010A1EE0030A18E0010AE4
:101CC00012E0070A0CE0010A06E0030A28E1570EB9
:101CD000146E4D0E27D02F0E146E4D0E23D0180EFD
:101CE000146E4D0E1FD00D0E146E4D0E1BD0020E35
:101CF000146E4D0E17D0E00E146E4C0E13D0D40E91
:101D0000146E4C0E0FD0C50E146E4C0E0BD0B60ECA
:101D1000146E4C0E07D0930E146E4C0E03D0860E2C
:101D2000146E4C0E14C0F3FFF46EE552E7CFD9FFEA
:101D30001200D9CFE6FFE1CFD9FFE6526E0EE66E74
:101D4000A1EC00F0E552DF6EDFCFE6FFE66A6D0E34
:101D5000146E4C0E156E166A14C0E6FFE66E16C0C1
:101D6000E6FFABEC29F0176E050EE15E1750DF5071
:101D7000920A12E0030A0CE0010A06E0180A10E1D8
:101D8000600E146E4C0E0FD0560E146E4C0E0BD00F
:101D90004C0E146E4C0E07D0420E146E4C0E03D037
:101DA000330E146E4C0E156E166A14C0E6FFE66E06
:101DB00016C0E6FFABEC29F0E552E552E552DF50E4
:101DC00003E0FF0EDF5C0FE1F00E146E4B0E156E9C
:101DD000166A14C0E6FFE66E16C0E6FFABEC29F00B
:101DE000E552E552E552E552E552E7CFD9FF120040
:101DF000D9CFE6FFE1CFD9FF080EE126FD0EDBCFFC
:101E0000E6FFFE0EDBCFE6FF86D8E552E552FD0E7B
:101E1000DBCFE9FFFE0EDBCFEAFF0B0EE926000E5B
:101E2000EA22EF50E66EC0DEE552E76E070EE7CF1E
:101E3000DBFFDB5046E0FF0A44E0FE0A3EE0090A11
:101E40003CE00A0A3AE0050A38E00E0A36E00F0ADA
:101E500031E0050A04E0070A02E0010A32E1060E59
:101E6000DB6AF36EDBCFF4FFE850F45C10E2D9CF0D
:101E700014F0DACF15F0060EDB500F01D924E96E0D
:101E8000000EDA20EA6EEF68060EDB2AEAD7D9CF19
:101E9000E6FFDACFE6FF070EDBCFE6FFFD0EDBCF76
:101EA000E6FFFE0EDBCFE6FFE8D8146E050EE15E1E
:101EB000145016D03FEC14F013D0B40E146E4B0E29
:101EC00003D09F0E146E4B0E156E166A14C0E6FFFB
:101ED000E66E16C0E6FFABEC29F0E552E552E5529E
:101EE0009C0E146E4B0E156E166A14C0E6FFE66E5D
:101EF00016C0E6FFABEC29F0E552E552E55234ECB2
:101F000008F0080EE15C02E2E16AE552E16EE5529A
:101F1000E7CFD9FF1200D9CFE6FFE1CFD9FF020EFC
:101F2000E126910E146E4B0E156E166A14C0E6FF74
:101F3000E66E16C0E6FFABEC29F0E552E552E5523D
:101F4000DF6AFD0EDBCFE9FFFE0EDBCFEAFFEF50CD
:101F5000DF5C27E2FD0EDBCFE9FFFE0EDBCFEAFF01
:101F6000EE52E9CF14F0EACF15F0DF500F01E9246B
:101F7000E96E000EEA20EA6EEF50E66EE66A8B0E1E
:101F8000166E4B0E176E186A16C0E6FFE66E18C086
:101F9000E6FFABEC29F0196E050EE15E1950DF2A61
:101FA000D0D79C0E146E4B0E156E166A14C0E6FF49
:101FB000E66E16C0E6FFABEC29F0E552E552E552BD
:101FC000FD0EDBCFE9FFFE0EDBCFEAFF0B0EE926AD
:101FD000000EEA22EF50E66EE66A780E146E4B0EA3
:101FE000156E166A14C0E6FFE66E16C0E6FFABEC8F
:101FF00029F0176E050EE15E1750FD0EDBCFE9FFED
:10200000FE0EDBCFEAFF0B0EE926000EEA22EF50B0
:10201000E66ECADDE552E76E010EE7CFDBFF6C0E20
:10202000146E4B0E156E166A14C0E6FFE66E16C0EF
:10203000E6FFABEC29F0E552E552E552010EDBCFAD
:10204000E6FF2ADEE552F3CF14F0F4CF15F0166A5E
:10205000F3CFE6FFF4CFE6FF16C0E6FFABEC29F0C6
:10206000E552E552E552020EE15C02E2E16AE55218
:10207000E16EE552E7CFD9FF1200D9CFE6FFE1CFFD
:10208000D9FF020EE126DF6AFC0EDB50050A08E0EC
:10209000010A04E0070A06E1050E03D0100E01D084
:1020A000280EDF6EDF502FE0220E146E4B0E156EE1
:1020B000166A14C0E6FFE66E16C0E6FFABEC29F028
:1020C000E552E552E552DF04E76E010EE7CFDBFF94
:1020D000DBCF14F0143417E2010EDBCFE6FFFA0E6B
:1020E000DBCFE6FFFB0EDBCFE6FFFD0EDBCFE6FF2F
:1020F000FE0EDBCFE6FF15D8146E050EE15E145020
:10210000010EDB06E5D734EC08F02FEC09F0020EE7
:10211000E15C02E2E16AE552E16EE552E7CFD9FF08
:102120001200D9CFE6FFE1CFD9FF2B0EE126200E1A
:10213000F36EFA0EDBCFF4FFF350F45C0FE2040E03
:10214000F36E020EF3CFDBFFDBCFE6FFFA0EDB50C0
:10215000E552E702010EF3CFDBFF1BD0280EF36E32
:10216000FA0EDBCFF4FFF350F45C01E37ED3100EE4
:10217000F36E020EF3CFDBFFDBCFE6FFFA0EDB5090
:10218000E00FE552E702800EF324E76E010EE7CF81
:10219000DBFFF36E030EF3CFDBFF0A0EDB6A020EEA
:1021A000DB04E76E250EE7CFDBFFDBCF14F0143442
:1021B00001E35BD3250EDBCFE6FF010EDB50E552DA
:1021C000E724E76E240EE7CFDBFF030EDB5015E0BC
:1021D000FA0EDBCFE6FFE66A8B0E146E4B0E156E21
:1021E000166A14C0E6FFE66E16C0E6FFABEC29F0F7
:1021F000176E050EE15E17500FD01E0E146E4B0EBB
:10220000156E166A14C0E6FFE66E16C0E6FFABEC6C
:1022100029F0E552E552E552240EDBCFE6FFE66AEF
:10222000120E146E4B0E156E166A14C0E6FFE66EA3
:1022300016C0E6FFABEC29F0176E050EE15E1750F5
:10224000030EDB504DE0FD0EDBCFE6FFFE0EDBCFD5
:10225000E6FFFB0EDBCFE6FFFC0EDBCFE6FF010E59
:10226000DBCFE6FF600EE66E86EC08F0146E060E1D
:10227000E15E1450DF6EDF5033E0F60E146E4A0E4E
:10228000156E166A14C0E6FFE66E16C0E6FFABECEC
:1022900029F0E552E552E552DFCFE6FFB7DCE55223
:1022A000F3CF14F0F4CF15F0166AF3CFE6FFF4CFB6
:1022B000E6FF16C0E6FFABEC29F0E552E552E55229
:1022C0009C0E146E4B0E156E166A14C0E6FFE66E79
:1022D00016C0E6FFABEC29F0E552E552E552C5D257
:1022E000120EF36E110EF3CFDBFFD950110FE66E15
:1022F000000EDA20E66ED950120FE66E000EDA20DC
:10230000E66E240EDBCFE6FF38EC09F0146E050E06
:10231000E15E1450DF6EDF5024E0DF0E146E4A0ED3
:10232000156E166A14C0E6FFE66E16C0E6FFABEC4B
:1023300029F0E552E552E552DFCFE6FF67DCE552D2
:10234000F3CF14F0F4CF15F0166AF3CFE6FFF4CF15
:10235000E6FF16C0E6FFABEC29F0E552E552E55288
:1023600072D2260EDB6A100EF36E260EDBCFF4FF60
:10237000F350F45C27E2D950120F146EDACF15F047
:10238000260EDB500F011424E96E000EDA20EA6EEF
:10239000EF50E66EE66A8B0E166E4B0E176E186ADD
:1023A00016C0E6FFE66E18C0E6FFABEC29F0196E2A
:1023B000050EE15E1950260EDB50030B0308260EB6
:1023C000DB2AD1D7030EDB5001E1A3D0190EDB3895
:1023D0000F0BE76E040EE7CFDBFF1A0EDB500F0B7F
:1023E000E76E050EE7CFDBFF1A0EDB380F0BE76E4B
:1023F000060EE7CFDBFF180EDB500F0BE76E070E64
:10240000E7CFDBFF180EDB380F0BE76E080EE7CFC8
:10241000DBFF190EDB500F0BE76E090EE7CFDBFF7A
:10242000070EDB1C0F0BF36E040EDB50F35C12E1A6
:10243000080EDB1C0F0BF36E050EDB50F35C0AE19C
:10244000090EDB1C0F0BF36E060EDB50F35C02E192
:10245000000E01D0010EE76E0A0EE7CFDBFF060E7D
:10246000DB50010B156E050EDB50010BE824146EDA
:10247000040EDB50010B040DF35014101510E76E21
:102480000B0EE7CFDBFF060EDB50020BE8407F0BA5
:10249000156E050EDB50020B146E040EDB50020BA2
:1024A000E82414101510E76E0C0EE7CFDBFF060EC4
:1024B000DB50040BE840E8403F0B156E050EDB5087
:1024C000040BE8407F0B146E040EDB50040B141059
:1024D0001510E76E0D0EE7CFDBFF060EDB50080B85
:1024E000E840E840E8401F0B156E050EDB50080B76
:1024F000E840E8403F0B146E040EDB50080BE84048
:102500007F0B14101510E76E0E0EE7CFDBFF030EE6
:10251000DB6A020EDB5004080CE1250EDB50E76E8F
:102520000F0EE7CFDBFF010EF36E100EF3CFDBFFD4
:1025300025D0050E146E0E6E250EDBCF09F091EC42
:1025400028F00F0E09C0DBFFDB50030812E0250E58
:10255000DB28146E050E156E0E6E14C009F091EC9A
:1025600028F00950F36E0F0EDB50095C02E1000EFB
:1025700001D0010EE76E100EE7CFDBFFDB5001E16B
:10258000B5D0DB0E146E4A0E156E166A14C0E6FF47
:10259000E66E16C0E6FFABEC29F0E552E552E552D7
:1025A000D9500B0F146EDACF15F00F0EDB500F0160
:1025B0001424E96E000EDA20EA6EEF50E840E8409D
:1025C0003F0B010BE66EE66AD60E166E4A0E176ECC
:1025D000186A16C0E6FFE66E18C0E6FFABEC29F0FD
:1025E000196E050EE15E1950D40E146E4A0E156E6A
:1025F000166A14C0E6FFE66E16C0E6FFABEC29F0E3
:10260000E552E552E552D9500B0F146EDACF15F0B2
:102610000F0EDB500F011424E96E000EDA20EA6E73
:10262000EF407F0B010BE66EE66AD60E166E4A0E81
:10263000176E186A16C0E6FFE66E18C0E6FFABEC30
:1026400029F0196E050EE15E1950D40E146E4A0E73
:10265000156E166A14C0E6FFE66E16C0E6FFABEC18
:1026600029F0E552E552E552D9500B0F146EDACF3E
:1026700015F00F0EDB500F011424E96E000EDA2066
:10268000EA6EEF50010BE66EE66AD60E166E4A0E43
:10269000176E186A16C0E6FFE66E18C0E6FFABECD0
:1026A00029F0196E050EE15E1950D00E146E4A0E17
:1026B000156E166A14C0E6FFE66E16C0E6FFABECB8
:1026C00029F0E552E552E5520A0EDB500FE0A80E64
:1026D000146E4A0E156E166A14C0E6FFE66E16C03A
:1026E000E6FFABEC29F0E552E552E5520F0EDB5068
:1026F000030801E1A8D0D9500B0F146E0F0EDB5068
:102700000F011424E96E000EDA20EA6EEF0410E0E7
:10271000D9500B0F166EDACF17F00F0EDB501624C0
:10272000E96E000EDA20EA6EEF50060801E08BD069
:10273000150EDBCF14F0156A166A176A180E1F0BF8
:1027400007E0D8901436153616361736E806F9E144
:10275000140EDBCF18F0196A1A6A1B6A100E1F0BD1
:1027600007E0D890183619361A361B36E806F9E114
:1027700018501412195015121A5016121B50171215
:10278000130EDBCF1CF01D6A1E6A1F6A080E1F0B9A
:1027900007E0D8901C361D361E361F36E806F9E1D4
:1027A0001C5014121D5015121E5016121F501712D5
:1027B000120EDBCF20F0216A226A236A2050141205
:1027C000215015122250161223501712270E14C032
:1027D000DBFF280E15C0DBFF290E16C0DBFF2A0E1B
:1027E00017C0DBFFD950270FE96EDACFEAFFEECF33
:1027F000E6FFEECFE6FFEECFE6FFEFCFE6FF9A0E65
:10280000146E4A0E156E166A14C0E6FFE66E16C008
:10281000E6FFABEC29F0176E070EE15E17501E0EB7
:10282000DBCFE6FFE66A8E0E146E4A0E156E166A50
:1028300014C0E6FFE66E16C0E6FFABEC29F0176E9B
:10284000050EE15E17509C0E146E4B0E156E166A47
:1028500014C0E6FFE66E16C0E6FFABEC29F0E552C9
:10286000E552E552250EDB06A0D42B0EE15C02E218
:10287000E16AE552E16EE552E7CFD9FF1200D9CF08
:10288000E6FFE1CFD9FF180EE1267B0E146E4A0E4B
:10289000156E166A14C0E6FFE66E16C0E6FFABECD6
:1028A00029F0E552E552E552150EDB6A100EF36E83
:1028B000150EDBCFF4FFF350F45C01E31FD1DE52C1
:1028C000120EDD6ED950010FE66E000EDA20E66EB4
:1028D000D950020FE66E000EDA20E66E150EDBCF41
:1028E000E6FF38EC09F0146E050EE15E1450DF6E61
:1028F000DF5034E0640E146E4A0E156E166A14C072
:10290000E6FFE66E16C0E6FFABEC29F0E552E552B5
:10291000E552DFCFE6FF06EC0EF0E552F3CF14F000
:10292000F4CF15F0166AF3CFE6FFF4CFE6FF16C03A
:10293000E6FFABEC29F0E552E552E5529C0E146E31
:102940004B0E156E166A14C0E6FFE66E16C0E6FF63
:10295000ABEC29F0E552E552E552D0D0160EDB6A19
:10296000040EF36E160EDBCFF4FFF350F45C01E3BC
:10297000BAD0160EDBCFE6FF150EDB50E552E7248A
:10298000E76E140EE7CFDBFF0A0EF36E140EDBCFFB
:10299000F4FFF350F45C04E2610E146E4A0E03D0AF
:1029A000D40E146E4A0E156E166A14C0E6FFE66E5B
:1029B00016C0E6FFABEC29F0E552E552E552140EE5
:1029C000DBCFE6FFE66A5C0E146E4A0E156E166AE1
:1029D00014C0E6FFE66E16C0E6FFABEC29F0176EFA
:1029E000050EE15E1750610E146E4A0E156E166AE2
:1029F00014C0E6FFE66E16C0E6FFABEC29F0E55228
:102A0000E552E552170EDB6A040EF36E170EDBCFAC
:102A1000F4FFF350F45C55E2170EDBCFE6FF160E21
:102A2000DB50040DF350E552E724E76E140EE7CFB8
:102A3000DBFFD950020F156EDACF16F0140EDB5003
:102A40000F011524E96E000EDA20EA6EEFCF14F0C4
:102A5000100E145C04E2590E146E4A0E03D0D40E0C
:102A6000146E4A0E156E166A14C0E6FFE66E16C0A6
:102A7000E6FFABEC29F0E552E552E552D950020FE2
:102A8000146EDACF15F0140EDB500F011424E96E2A
:102A9000000EDA20EA6EEF50E66EE66A560E166E0B
:102AA0004A0E176E186A16C0E6FFE66E18C0E6FFFB
:102AB000ABEC29F0196E050EE15E1950170EDB2AFA
:102AC000A3D79C0E146E4B0E156E166A14C0E6FF4B
:102AD000E66E16C0E6FFABEC29F0E552E552E55292
:102AE000160EDB2A3DD7040E146E150EDBCFE7FF62
:102AF0001450E726150EE7CFDBFFD8D6180EE15CA1
:102B000002E2E16AE552E16EE552E7CFD9FF120039
:102B1000D9CFE6FFE1CFD9FF030EE126FC0EDB5053
:102B2000040BE840E8403F0B166EFB0EDB50040B35
:102B3000E8407F0B156EFA0EDB50040B146EF90E95
:102B4000DB50040BE824141015101610DF6EFC0E79
:102B5000DB50020BE8407F0B166EFB0EDB50020BC6
:102B6000156EFA0EDB50020BE824146EF90EDB50E2
:102B7000020B040DF350141015101610E76E010E21
:102B8000E7CFDBFFFC0EDB50010B166EFB0EDB50BC
:102B9000010BE824156EFA0EDB50010B040DF3CF88
:102BA00014F0F90EDB50010B080DF3501410151042
:102BB0001610E76E020EE7CFDBFFDF1C0F0B146E63
:102BC000010EDB1C0F0B100DF3501410E66EFD0E02
:102BD000DBCFE9FFFE0EDBCFEAFFE552E750EF6EF9
:102BE000020EDB1C0F0B146EDF38F00B1410E66EB8
:102BF000010EE76EFD0EDBCFE9FFFE0EDBCFEAFF35
:102C0000E750E926000EEA22E552E750EF6E010E8A
:102C1000DBCFE6FF020EDB38F00BE552E710E66E85
:102C2000020EE76EFD0EDBCFE9FFFE0EDBCFEAFF03
:102C3000E750E926000EEA22E552E750EF6E030E58
:102C4000E15C02E2E16AE552E16EE552E7CFD9FFCD
:102C50001200D9CFE6FFE1CFD9FF040EE126020E24
:102C6000F36EDB6EE66A240EE66E63EC00F0E5526E
:102C7000E552E66A260EE66E63EC00F0E552E55298
:102C8000260EE66E480EE66E63EC00F0E552E55265
:102C9000D950020FE66E000EDA20E66ED9CFE6FFBD
:102CA000DACFE6FF3DEC04F0E552E552E552E5529D
:102CB000E76E030EE7CFDBFFDB5006E0030EDB50D1
:102CC000020802E0000E01D0010E146E040EE15C59
:102CD00002E2E16AE552E16E1450E552E7CFD9FF16
:102CE0001200D9CFE6FFE1CFD9FFE652E66AFD0E2A
:102CF000DBCFE6FFFE0EDBCFE6FFDAEC04F0E552B9
:102D0000E552E552DF6EDF5002E0000E01D0010E09
:0A2D1000E552E552E7CFD9FF1200AB
:062D1A00D8CFE4FFE0CF7A
:102D2000E4FFE46EDACFE4FFE2CFDAFFE9CFE4FFBD
:102D3000EACFE4FFF6CFE4FFF7CFE4FFF5CFE4FFFF
:102D4000F3CFE4FFF4CFE4FFFACFE4FF00EE00F0AE
:102D5000140EE80403E3EECFE4FFFBD700EE14F01B
:102D6000100EE80403E3EECFE4FFFBD7E652D9CF21
:102D7000E6FFE1CFD9FF020EE126F2A4AFD1F29433
:102D8000200EE66ED10EE66E9CEC2BF0E552E5527D
:102D90000001CE29246E050E256E0E6E24C009F0AA
:102DA00082EC2CF005C0CEF00001055003E1CD29E6
:102DB000030BCD6FCE51D880C35501E37DD0CD51EB
:102DC000030A39E0010A23E0030A10E0010A74E172
:102DD0008C688A868A848A828A90010EC215E81CD1
:102DE000246EBFC0F6FFC0C0F7FF46D08C688A864D
:102DF0008A848A928A80020EC215E8407F0BE81C02
:102E0000246EBFC0F6FFC0C0F7FF0A0E11D08C6859
:102E10008A868A948A828A80040EC215E840E84035
:102E20003F0BE81C246EBFC0F6FFC0C0F7FF640E66
:102E30000D6E0E6A17D08C688A968A848A828A8080
:102E4000C1512FE1080EC215E840E840E8401F0BD1
:102E5000E81C246EBFC0F6FFC0C0F7FFE80E0D6E81
:102E6000030E0E6EF6CF08F0F7CF09F01EEC2CF033
:102E700008C0F6FF09C0F7FF0A0E0D6E0E6AF6CF06
:102E800008F0F7CF09F01EEC2CF004C0F6FF05C0E7
:102E9000F7FF590EF626590EF7220800F5502414B4
:102EA00009D0C151F76A590FF66E590EF722080082
:102EB000F550FE0B8C6E05D08C688A868A848A82D7
:102EC0008A800001C551C61101E0B1D0870EE66EBF
:102ED00007EC2CF0E552B5EC2CF007EC00F0000903
:102EE000FCE19BEC2CF0F3CF60F0F4CF61F08F0E9F
:102EF000E66E07EC2CF0E552B5EC2CF007EC00F098
:102F00000009FCE19BEC2CF0F3CF62F0F4CF63F00E
:102F10000001FA0E605D000E615904E28B92899403
:102F2000899612D0F40E605D010E615903E28B9216
:102F3000899409D0EE0E605D020E615902E28B9217
:102F400001D08B8289848986900ED8806255010ECB
:102F5000635504E20001320EBD6F02D00001BD6B6B
:102F6000BD51266E276AFA0E086E096ABDC00DF0C3
:102F700027C00EF0D1EC28F006C024F007C025F0E1
:102F8000190E0D6E0E6A06C008F007C009F0ABEC12
:102F900028F008C024F009C025F008C0E6FF09C0E9
:102FA000E6FFEDEC2AF0E552E5520001840ED880F0
:102FB0006255030E635507E20001010EC16FED0E6D
:102FC000BF6F030E33D0070ED8806255030E6355D2
:102FD00007E20001020EC16FE90EBF6F070E26D097
:102FE0008A0ED8806255020E635507E20001030E77
:102FF000C16F1C0EBF6F0C0E19D0260ED880625503
:10300000020E635507E20001040EC16F940EBF6FFC
:10301000110E0CD0C20ED8806255010E635507E226
:103020000001050EC16F880EBF6F130EC06F010E39
:103030000001C525C56F000EC621C66F140E0D6EAA
:103040000E6AC5C008F0C6C009F01EEC2CF004C022
:10305000C5F005C0C6F00001C751C811010EC72553
:10306000C76F000EC821C86F320E0D6E0E6AC7C042
:1030700008F0C8C009F01EEC2CF004C0C7F005C071
:10308000C8F00001C951CA11010EC925C96F000E4F
:10309000CA21CA6FC80E0D6E0E6AC9C008F0CAC038
:1030A00009F01EEC2CF004C0C9F005C0CAF0000104
:1030B000CB51CC11010ECB25CB6F000ECC21CC6FA8
:1030C000E80E0D6E030E0E6ECBC008F0CCC009F0FA
:1030D0001EEC2CF004C0CBF005C0CCF0020EE15C7D
:1030E00002E2E16AE552E16EE552E7CFD9FFE5522F
:1030F00000EE23F0100EE80403E3E5CFEDFFFBD76D
:1031000000EE13F0140EE80403E3E5CFEDFFFBD768
:10311000E5CFFAFFE5CFF4FFE5CFF3FFE5CFF5FF0D
:10312000E5CFF7FFE5CFF6FFE5CFEAFFE5CFE9FF13
:10313000E5CFDAFFE550E5CFE0FFE5CFD8FF10009F
:10314000DACFE4FFE2CFDAFFE9CFE4FFEACFE4FF32
:10315000F6CFE4FFF7CFE4FFF5CFE4FFF3CFE4FFD2
:10316000F4CFE4FFFACFE4FF00EE00F0140EE80421
:1031700003E3EECFE4FFFBD700EE14F0100EE804FB
:1031800003E3EECFE4FFFBD7E6529EAA17D061EC33
:103190002BF000016A6FE850E66EE66A1E0E286E9C
:1031A000510E296E2A6A28C0E6FFE66E2AC0E6FFA5
:1031B000ABEC29F02B6E050EE15E2B509EA009D0E2
:1031C0009E90900EE66EE80EE66E80EC2BF0E552D7
:1031D000E552E55200EE23F0100EE80403E3E5CFDC
:1031E000EDFFFBD700EE13F0140EE80403E3E5CF88
:1031F000EDFFFBD7E5CFFAFFE5CFF4FFE5CFF3FF17
:10320000E5CFF5FFE5CFF7FFE5CFF6FFE5CFEAFF26
:10321000E5CFE9FFE5CFDAFF110036D813D9FED7A5
:10322000D9CFE6FFE1CFD9FFFD0EDBCF14F0DB06EF
:10323000FE0EDBCF15F001E2DB061450151006E0A0
:103240000C0EE66E46EC2CF0E552EED7E552E7CFD9
:10325000D9FF1200D9CFE6FFE1CFD9FFFD0EDBCFBA
:1032600014F0DB06FE0EDBCF15F001E2DB06145096
:10327000151006E00C0EE66E90EC2CF0E552EED741
:10328000E552E7CFD9FF1200D9CFE6FFE1CFD9FF52
:10329000E6520D0EE66E070EE66EEF0EE66EB6EC2B
:1032A0002AF0E552E552E5520D0EC16ED30E926E34
:1032B0008968D00E936E8A68B90E946E8B68956A91
:1032C0008C68040E966E070E8D6E0001BD6BBE6B92
:1032D0009F0EE66EB8EC2BF0E552F194F294200EBE
:1032E000E66ED10EE66E9CEC2BF0E552E552C50E73
:1032F000E66E40EC2BF0E5529F809E90900EE66EBD
:10330000E80EE66E80EC2BF0E552E5523E0EE66EDE
:10331000D4EC2BF0E552F90EE66EEFEC2BF0E55213
:103320000001BD6BBE6BBD51166E176AFA0E086EBA
:10333000096ABDC00DF017C00EF0D1EC28F006C030
:1033400014F007C015F0190E0D6E0E6A06C008F0D5
:1033500007C009F0ABEC28F008C014F009C015F064
:1033600008C0E6FF09C0E6FFEDEC2AF0E552E552A1
:103370004D0EE66EE66A7C0EE66EF7EC29F0E5523D
:10338000E552E552D08EF28EF28CB6EC01F099EC5B
:103390000EF0DF6A060EDF5C09E2DF50EA6AB70F63
:1033A000E96E000EEA22EF68DF2AF4D7E20E146E0F
:1033B000500E156E166A14C0E6FFE66E16C0E6FFE4
:1033C000ABEC29F0E552E552E552C80E146E500EF2
:1033D000156E166A14C0E6FFE66E16C0E6FFABEC8B
:1033E00029F0E552E552E552060EE66EB70EE66E9E
:1033F000000EE66EEAEC1EF0E552E552E552C50E0F
:10340000146E500E156E166A14C0E6FFE66E16C0F6
:10341000E6FFABEC29F0E552E552E5528C0E146E56
:10342000500E156E166A14C0E6FFE66E16C0E6FF73
:10343000ABEC29F0E552E552E552E552E552E7CF13
:10344000D9FF1200D9CFE6FFE1CFD9FF2C0EE1263C
:10345000DE52010EDD6E040EF36E020EF3CFDBFFC3
:10346000030EDB6A040EDB6A050EDB6A060EDB6AFE
:10347000070EDB6A080EDB6A090EDB6A0A0EDB6ADE
:103480000B0EDB6A0C0EDB6A0D0EDB6A0E0EDB6ABE
:103490000F0EDB6A100EDB6A110EDB6A120EDB6A9E
:1034A000070EF36E130EF3CFDBFF120EF36E270E33
:1034B000F3CFDBFF2A0EDB6A2B0EDB6A0001C105AE
:1034C00007E1490EF36E030EF3CFDBFF050E13D0B9
:1034D000020EC15D07E1490EF36E030EF3CFDBFF71
:1034E000190E09D0030EC15D0DE1490EF36E030EF6
:1034F000F3CFDBFF640EF36E2A0EF3CFDBFF2B0E50
:10350000DB6A21D0040EC15D0CE1490EF36E030E9F
:10351000F3CFDBFFF40EF36E2A0EF3CFDBFF010EC9
:103520000ED0050EC15D0FE1450EF36E030EF3CF15
:10353000DBFFE80EF36E2A0EF3CFDBFF030EF36E14
:103540002B0EF3CFDBFF2A0EDBCF14F02B0EDBCFDD
:1035500015F0E80E0D6E030E0E6E14C008F015C0C7
:1035600009F0ABEC28F008C014F009C015F0300EDB
:103570001426000E1522040E14C0DBFF2A0EDBCF2A
:1035800014F02B0EDBCF15F0E80E0D6E030E0E6E51
:1035900014C008F015C009F0ABEC28F004C014F01A
:1035A00005C015F0640E0D6E0E6A04C008F005C06B
:1035B00009F0ABEC28F008C014F009C015F0300E8B
:1035C0001426000E1522050E14C0DBFF2A0EDBCFD9
:1035D00014F02B0EDBCF15F0640E0D6E0E6A14C0C6
:1035E00008F015C009F0ABEC28F004C014F005C0D9
:1035F00015F00A0E0D6E0E6A04C008F005C009F041
:10360000ABEC28F008C014F009C015F0300E1426F9
:10361000000E1522060E14C0DBFF2A0EDBCF14F0BD
:103620002B0EDBCF15F00A0E0D6E0E6A14C008F0DB
:1036300015C009F0ABEC28F004C014F005C015F07B
:10364000300E1426000E1522070E14C0DBFF29ECE5
:1036500016F0000901E1B4D3AB0EE66E000EE66E83
:1036600071EC16F0E552E552000901E1A9D3810E93
:10367000146E500E156E166A14C0E6FFE66E16C084
:10368000E6FFABEC29F0E552E552E552ABC0E6FFB0
:10369000AC0EE66E000EE66E9DDBE552E552E5529D
:1036A000C50E146E500E156E166A14C0E6FFE66E57
:1036B00016C0E6FFABEC29F0E552E552E552750E77
:1036C000146E500E156E166A14C0E6FFE66E16C034
:1036D000E6FFABEC29F0E552E552E552B6C0E6FF55
:1036E000D4EC0DF0E552DF6EDFCFE6FF4CEC0EF0D0
:1036F000E552F3CF14F0F4CF15F0166AF3CFE6FFDE
:10370000F4CFE6FF16C0E6FFABEC29F0E552E55238
:10371000E552C50E146E500E156E166A14C0E6FF03
:10372000E66E16C0E6FFABEC29F0E552E552E55235
:10373000030EDF5C0AE0040EDF5C07E0050EDF5CD1
:1037400004E0410E146E500E50D0210E146E500E37
:10375000156E166A14C0E6FFE66E16C0E6FFABEC07
:1037600029F0E552E552E552AB0EE66E000EE66E2C
:10377000B70EE66E000EE66E130EDBCFE6FF600EB0
:10378000E66E86EC08F0146E060EE15E1450E76EED
:10379000140EE7CFDBFFDB5035E0050E146E500E44
:1037A000156E166A14C0E6FFE66E16C0E6FFABECB7
:1037B00029F0E552E552E552140EDBCFE6FF06ECA8
:1037C0000EF0E552F3CF14F0F4CF15F0166AF3CFF4
:1037D000E6FFF4CFE6FF16C0E6FFABEC29F0E552BA
:1037E000E552E552C50E146E500E156E166A14C0E1
:1037F000E6FFE66E16C0E6FFABEC29F0E552E552B7
:10380000E552DED2EB0E146E4F0E156E166A14C022
:10381000E6FFE66E16C0E6FFABEC29F0E552E55296
:10382000E552010EDBCFE6FFB70EE66E000EE66E48
:10383000AB0EE66E000EE66E91EC10F0146E050E07
:10384000E15E1450C50E146E500E156E166A14C04B
:10385000E6FFE66E16C0E6FFABEC29F0E552E55256
:10386000E552020EDBCFE6FFE66AC80E146E4F0E7D
:10387000156E166A14C0E6FFE66E16C0E6FFABECE6
:1038800029F0176E050EE15E1750D950270FE66E2E
:10389000000EDA20E66ED950150FE66E000EDA2023
:1038A000E66E020EDBCFE6FF38EC09F0146E050E73
:1038B000E15E1450E76E140EE7CFDBFFDB5034E01F
:1038C000B10E146E4F0E156E166A14C0E6FFE66E4A
:1038D00016C0E6FFABEC29F0E552E552E552140EB6
:1038E000DBCFE6FF06EC0EF0E552F3CF14F0F4CF99
:1038F00015F0166AF3CFE6FFF4CFE6FF16C0E6FF39
:10390000ABEC29F0E552E552E552C50E146E500EAF
:10391000156E166A14C0E6FFE66E16C0E6FFABEC45
:1039200029F0E552E552E552020EDBCFE6FFE66AEA
:103930009B0E146E4F0E156E166A14C0E6FFE66EEF
:1039400016C0E6FFABEC29F0176E050EE15E1750CE
:10395000100EE66ED950150FE66E000EDA20E66EF8
:1039600039DAE552E552E552960E146E4F0E156E99
:10397000166A14C0E6FFE66E16C0E6FFABEC29F04F
:10398000E552E552E5520001C15101E189D0020E34
:10399000DBCFE6FFE66A730E146E4F0E156E166AE5
:1039A00014C0E6FFE66E16C0E6FFABEC29F0176E1A
:1039B000050EE15E1750100EE66ED950030FE66E4D
:1039C000000EDA20E66E06DAE552E552E552C50E43
:1039D000146E500E156E166A14C0E6FFE66E16C021
:1039E000E6FFABEC29F0E552E552E552100EE66E2B
:1039F000D950030FE66E000EDA20E66E020EDBCF22
:103A0000E6FFB2EC09F0E552E552E552E552E76E09
:103A1000140EE7CFDBFFDB5034E05B0E146E4F0E6D
:103A2000156E166A14C0E6FFE66E16C0E6FFABEC34
:103A300029F0E552E552E552140EDBCFE6FF06EC25
:103A40000EF0E552F3CF14F0F4CF15F0166AF3CF71
:103A5000E6FFF4CFE6FF16C0E6FFABEC29F0E55237
:103A6000E552E552C50E146E500E156E166A14C05E
:103A7000E6FFE66E16C0E6FFABEC29F0E552E55234
:103A8000E552C50E146E500E156E166A14C0E6FF90
:103A9000E66E16C0E6FFABEC29F0E552E552E552C2
:103AA000020EDBCFE6FFE66AC80E146E4F0E156EEF
:103AB000166A14C0E6FFE66E16C0E6FFABEC29F00E
:103AC000176E050EE15E1750D950270FE66E000EF7
:103AD000DA20E66ED950150FE66E000EDA20E66E9B
:103AE000020EDBCFE6FF38EC09F0146E050EE15E46
:103AF0001450E76E140EE7CFDBFFDB5034E0B10E5D
:103B0000146E4F0E156E166A14C0E6FFE66E16C0F0
:103B1000E6FFABEC29F0E552E552E552140EDBCF9F
:103B2000E6FF06EC0EF0E552F3CF14F0F4CF15F0FB
:103B3000166AF3CFE6FFF4CFE6FF16C0E6FFABEC64
:103B400029F0E552E552E552C50E146E500E156E81
:103B5000166A14C0E6FFE66E16C0E6FFABEC29F06D
:103B6000E552E552E552020EDBCFE6FFE66A9B0E18
:103B7000146E4F0E156E166A14C0E6FFE66E16C080
:103B8000E6FFABEC29F0176E050EE15E1750100E44
:103B9000E66ED950150FE66E000EDA20E66E1AD9E1
:103BA000E552E552E552960E146E4F0E156E166AEA
:103BB00014C0E6FFE66E16C0E6FFABEC29F0E55256
:103BC000E552E5520001C1512FE1160EDB50D00F36
:103BD000186E196AE80E1902F3CF19F0030E1802D5
:103BE000F3501926E80E1802F3CF18F0F4501926F6
:103BF000170EDB50D00F640D1850F324166E1950B9
:103C0000F420176E180EDB50D00F0A0D1650F32457
:103C1000146E1750F420156E190EDB50D00F1424BB
:103C2000BF6F000E1520C06F460E146E4F0E156E3E
:103C3000166A14C0E6FFE66E16C0E6FFABEC29F08C
:103C4000E552E552E552290EDB6A280EDB6A100EBA
:103C5000F36E290EDBCFF4FFF350F45C21E2D95070
:103C6000150F156E290EDB500F011524E96E000E9D
:103C7000DA20EA6EEFCF14F0D950030F176EDACFC7
:103C800018F0290EDB501724E96E000EDA20EA6ED8
:103C9000EF50145C02E1280EDB2A290EDB2AD7D76D
:103CA000280EDBCFE6FFE66A220E146E4F0E156E6D
:103CB000166A14C0E6FFE66E16C0E6FFABEC29F00C
:103CC000176E050EE15E1750280EDB50100804E158
:103CD000140E146E4F0E12D0FC0E146E4E0E156E96
:103CE000166A14C0E6FFE66E16C0E6FFABEC29F0DC
:103CF000E552E552E552D00E146E4E0E156E166A60
:103D000014C0E6FFE66E16C0E6FFABEC29F0E55204
:103D1000E552E552C50E146E500E156E166A14C0AB
:103D2000E6FFE66E16C0E6FFABEC29F0E552E55281
:103D3000E552EB0E146E4F0E156E166A14C0E6FFB8
:103D4000E66E16C0E6FFABEC29F0E552E552E5520F
:103D5000010EDBCFE6FFB70EE66E000EE66EAB0E91
:103D6000E66E000EE66E91EC10F0146E050EE15E4C
:103D70001450C50E146E500E156E166A14C0E6FF70
:103D8000E66E16C0E6FFABEC29F0E552E552E552CF
:103D90008B8289848986320EE66EE66A10EC19F011
:103DA000E552E5528B9289948996320EE66EE66A68
:103DB00010EC19F0E552E55234EC08F02FEC09F064
:103DC0002C0EE15C02E2E16AE552E16EE552E7CFDA
:103DD000D9FF1200D9CFE6FFE1CFD9FFE652DF6A63
:103DE000FC0EDB50DF5C21E2DF50E76EFD0EDBCF27
:103DF000E9FFFE0EDBCFEAFFE750E926000EEA22DC
:103E0000EF50E66EE66ACA0E146E4E0E156E166A16
:103E100014C0E6FFE66E16C0E6FFABEC29F0176EA5
:103E2000050EE15E1750DF2ADBD7E552E552E7CFFA
:043E3000D9FF1200A4
:0C3E340056EC24F0FB0EDBCFF3FFDB06A6
:103E4000F35000090AE0A4EC24F0FA0E0FEC25F080
:103E5000F3E1151CF1E1010E01D0000E85EF24F015
:103E600056EC24F03B0EE12402E3E168E652E16EF9
:103E7000010EDB6A020EDB6AF90EDBCFF6FFFA0EEB
:103E8000DBCFF7FFFB0EDBCFF8FF0800F550DF6E4E
:103E9000DF5002E1A9EF23F0250EDF5C02E09CEF8A
:103EA00023F0030EDB6A040EDB6A050EDB6A060EE6
:103EB000DB6A070EDB6ABEEC23F02D0EDF5C0CE044
:103EC0002B0EDF5C09E0200EDF5C06E0230EDF5CDA
:103ED00003E0300EDF5C1AE1DF50300A14E0130A11
:103EE0000FE0030A0AE00B0A05E0060AE4E1030E0C
:103EF000DB80E1D7030EDB82DED7030EDB84DBD76A
:103F0000030EDB86D8D7030EDB88D5D72A0EDF5CFD
:103F10001BE1BAEC23F008EC24F010E0030EDB8088
:103F200008680968130EDBCF0DF0140EDBCF0EF01E
:103F3000D1EC28F0040E06C0DBFF03D0130EF1EC29
:103F400023F0BEEC23F00BD0090EDB6A5FEC24F00B
:103F500003E0D3EC24F0FAD7090EF1EC23F0030EC2
:103F6000DBB0DB982E0EDF5C1BE1BEEC23F02A0EEB
:103F7000DF5C0BE1BAEC23F008EC24F003E1130E54
:103F800043EC24F0BEEC23F00BD0090EDB6A5FECAF
:103F900024F003E0D3EC24F0FAD7090E43EC24F02C
:103FA000680EDF5C07E1BEEC23F0680EDF5C1DE10C
:103FB000030E18D0740EDF5C17E07A0EDF5C14E09D
:103FC000480EDF5C06E0540EDF5C03E05A0EDF5C57
:103FD00002E1020E07D06C0EDF5C03E06A0EDF5CCC
:103FE00004E1010E96EC24F0C9DBDF506E0A01E11A
:103FF0007FD31E0A01E192D1200A01E18FD13F0A4D
:1040000001E149D11A0A01E146D10D0A01E143D18A
:10401000200A01E140D13A0A01E13DD1200A01E143
:104020003AD1260A01E135D10D0A01E132D11A0A4D
:1040300001E1D9D0200A4AE0300A1FE0460A0EE02A
:10404000250A01E083D3D950F90FE96EFF0EDA207B
:10405000EA6E010EEE5E000EEE5AEE5AA4EC24F06B
:10406000250EE66E95DB03E1151C01E169D3A0EC9A
:1040700024F001E26BD3DB2A69D3080EDB6A040E5D
:10408000DB50010806E2040EDB0468EC24F0DB5090
:104090008BDB080EDB5009E0030EDB50010B05E162
:1040A00072DB01E04DD3080EDB6A64DBEFCFDFFF8C
:1040B00018EC25F003E1151C01E142D3A0EC24F03B
:1040C00001E3DB2A60DB01E141D33AD3070EDB5089
:1040D00002080FE1E4EC24F0030EABEC24F00E0E2A
:1040E000EECFDBFF0F0EEECFDBFF100EEECFDBFFD0
:1040F00020D0F70EDBCF17F0F80EDBCF18F0020E52
:10410000175E000E185AF70E17C0DBFFF80E18C026
:10411000DBFF17C0E9FF18C0EAFF9BEC24F0166A2A
:104120000E0E14C0DBFF0F0E15C0DBFF100E16C005
:10413000DBFF0E0EDBCFE6FF0F0EDBCFE6FF100E30
:10414000DBCFE6FF37EC29F0E552E552E552130EDE
:1041500007C0DBFF140E08C0DBFF060EDB5005E0D6
:10416000130EDFEC24F001E26ADB03EC25F002E23F
:10417000130E37DBC6EC24F006E0040EDFEC24F06F
:1041800002E2050E2EDB030EDBB005D0FCDA01E007
:10419000D7D2080EDB6A090EDB6A0E0EDBCFF6FF04
:1041A0000F0EDBCFF7FF100EDBCFF8FF0800F55046
:1041B000DF6EDF5014E009EC25F011E218EC25F079
:1041C00003E1151C01E1BCD2BBDB01E3DB2A090ED4
:1041D000DB2AD9500E0FE96E000ECBDBE7D7D3DA1E
:1041E00001E1B4D2ADD2C6DA110EEECFDBFF120E72
:1041F000EDCFDBFF110EDBCFE6FF120EDBCFE6FFCC
:1042000029EC29F0E552E552130EF3CFDBFF140E33
:10421000F4CFDBFF060EDB5004E0130ED0DB01E22F
:104220000EDB03EC25F002E2130EDBDAAFDB05E078
:10423000040EC5DB02E2050ED4DA030EDBB005D0B6
:10424000A2DA01E07DD2080EDB6A090EDB6A110EEC
:10425000DBCFE9FF120EDBCFEAFFEFCFDFFFDF504E
:1042600014E0D7DB12E2E4DB03E1151C01E168D2C4
:1042700067DB01E3DB2A090EDB2A110EDB2ADBCF29
:10428000E9FF120EE8E3DB2AE6D77DDA01E15ED230
:1042900057D2030EDB8E070EDB0410E195DB040E14
:1042A0005ADB0A0EEECFDBFF0B0EEECFDBFF0C0E60
:1042B000EECFDBFF0D0EEECFDBFF6CD0070EDB5039
:1042C00003082CE1030EDBAE0DD0B2DA020E76DA73
:1042D000EFCF14F0156A166A176A14AE39D0156854
:1042E000166835D0F70EDBCF15F0F80EDBCF16F0E1
:1042F000020E155E000E165AF70E15C0DBFFF80E03
:1043000016C0DBFF15C0E9FF16C0EAFFEFCF14F0BF
:104310000A0E14C0DBFF0B0EDB6A38D0070EDB5031
:10432000020809E1030EDBAE04D059DB16AE10D053
:104330000ED055DB0DD0030EDBAE12D079DA020EB3
:104340003DDAF9DA166A176A15AE02D016681768F0
:10435000E2DA0C0E16C0DBFF0D0E17C0DBFF1AD021
:10436000F70EDBCF16F0F80EDBCF17F0020E165E5D
:10437000000E175AF70E16C0DBFFF80E17C0DBFF52
:1043800016C0E9FF17C0EAFFD6DAC5DA0C0EDB6A01
:104390000D0EDB6A060EDB5005E1010EF36E050E15
:1043A000F3CFDBFF150EDB6A160EDB6AD950370F31
:1043B000146E000EDA20156E390E14C0DBFF3A0EB3
:1043C00015C0DBFF380EDB6A080EDB6A0A0EAEDAB8
:1043D000DF50780A12E0200A10E0280A0CE0200AD8
:1043E0000AE03F0A06E00D0A02E0200A08E1020E98
:1043F00005D0080E03D0080EDF26100E97DA030E44
:10440000DBBE02D0DB92DB94DB50800B24E08ADA47
:10441000D890030EEB50000A08E6000EEE5C000E8A
:10442000EE58000EEE58000EEE5815E213DA0B6847
:104430000C680D680E687EEC2AF00A0E02C0DBFFE5
:104440000B0E03C0DBFF0C0E04C0DBFF0D0E05C01E
:10445000DBFF2D0E08D0030EDBA202D02B0E03D003
:10446000DBA408D0200EF36E170EF3CFDBFF150E82
:10447000DB2A02D0170EDB6A050EDB5003E1B7D949
:1044800001E189D0480E146E590E156E000E166E9D
:10449000070EDBCF17F0186A196A1A6A17C00BF0FB
:1044A00018C00CF019C00DF01AC00EF0D3D91CECD6
:1044B0002BF014500224F36E15500320F46E1650A6
:1044C0000420F86EF4CFF7FFF3CFF6FF0800090ED3
:1044D000F5CFDBFF580EDF5C0FE1610EF36E090EC6
:1044E0007BD90AE3200E146E090EDBCFE7FF1450D0
:1044F000E75E090EE7CFDBFF070EDBCF14F0156A8E
:10450000166A176A0FDA14C00BF015C00CF016C04B
:104510000DF017C00EF0EECF06F0EECF07F0EECFA5
:1045200008F0EFCF09F01CEC2BF009C0EDFF08C03C
:10453000EDFF07C0EDFF06C0EFFF390EDBCFE9FF4F
:10454000DB063A0EDBCFEAFF01E2DB06090EDBCF2A
:10455000EFFF150EDB2A4BD995E1030EDBA61DD02C
:104560006F0EDF5C06E1C1D918E3150EDB285BDABC
:1045700014D0780EDF5C09E0580EDF5C06E0620EB6
:10458000DF5C03E0420EDF5C08E1020EF36E160E04
:10459000F3CFDBFF02D0150EDB6A030EDB50100BEE
:1045A0000EE0040EDBCF14F0050EDB50D88014545F
:1045B00006E2060EDB5003E1040EDB5034DA95D937
:1045C0000AE2050EDBCFE7FF150EDB50E75E050EB6
:1045D000E7CFDBFF02D0050EDB6A040EDBCF14F061
:1045E000160E45D9D880145414E2160EDBCFE6FF20
:1045F000150EDBCFE6FF040EDBCFE6FF050EDB502A
:10460000E552E75CE552D880E754E552D880E7549C
:104610005FD9030EDB50010B0BE1080EDB5008E005
:10462000B2D801E08DD0080EDB50BED8080EDB6A90
:10463000170EDB5007E088D9170EF1D903E1151CDE
:1046400001E17ED0160EDB5016E07ED9300EE66E0C
:104650009FD802E1151C74E077D9DFCFE6FF3CEC70
:104660002AF0E552E552E552F4CF15F00001F31CB3
:1046700002E1151C65E0050EDBCF14F0160EDB50D1
:10468000D880145409E2050EDBCFE7FF160EDB508D
:10469000E75E050EE7CFDBFF300EE66E050ECBD9E9
:1046A0004FE1390EDB2ADBCFE9FF3A0E01E3DB2ACB
:1046B000DBCFEAFF090EEFCFDBFFDB500EE044D982
:1046C000090EADD902E1151C3BE0390EDB2ADBCF28
:1046D000E9FF3A0EEDE3DB2AEBD755D831E1160EB0
:1046E000DBCFE6FF080EC3D8E552E7245DD82ED015
:1046F000070EDB50030A1CE0010A14E0030A07E07E
:104700007BD9DBCFEEFF020EDBCFEDFF1FD0F5D85C
:10471000196A17AE02D0186819682CD8BCD819C00D
:10472000EEFF14D0EAD817BE186824D8B4D80ED03B
:1047300063D9DBCFEFFF0AD07BD905E1151C03E17C
:10474000F368F46810D0FCD801E3DB2A79D945EF8F
:104750001FF0010EDBCF14F0020EDBCF15F014C0FA
:10476000F3FF15C0F4FF3B0EE15C02E2E16AE552A3
:10477000E16ECBD029D9020EABEF24F061D908004D
:10478000F550DF6E1200200EE66E080E1BEF25F0CE
:104790003CEC2AF0E552E552E552F3CF14F0F4CFA9
:1047A00015F00001F31C1200146E156AD950010FA8
:1047B0004DD91450EE261550ED221200185E000E51
:1047C000195AF70E18C0DBFFF80E19C0DBFF18C02E
:1047D000E9FF19C0EAFF1200DBCFF4FFF350F45CED
:1047E0001200DB50E76E040EE7CFDBFF12000A0E6B
:1047F000DBCF14F00B0EDBCF15F00C0EDBCF16F079
:104800000D0EDBCF17F014501510161017101200F4
:10481000130EEECFDBFF140EEDCFDBFF130EDBCF5D
:1048200014F0140EDBCF15F00001800E15141200E9
:10483000F70EDBCF18F0F80EDBCF19F01200050EE3
:10484000DB50E66ED950130F01D9E552E750EE6EFA
:10485000ED6A12000A0EDBCF06F00B0EDBCF07F07D
:104860000C0EDBCF08F00D0EDBCF09F01200DBCF12
:10487000E6FF150EDBCFE6FF050EDB50E552E72421
:10488000E552E7241200DB50CED8010EF36E060E7F
:10489000F3CFDBFF1200EE50EFCFEAFFE96E16C058
:1048A000EEFF17C0EEFF18C0EEFF1200D9CFE6FFF3
:1048B000DACFE6FFE1CFD9FFE2CFDAFF1200DFCF98
:1048C000E6FFE66A34EC2CF0E552E552F3501200B4
:1048D000E76E080EE7CFDBFF1200EECF14F0EECF4D
:1048E00015F0EFCF16F0176A1200050EDBCF14F0AB
:1048F000150EDB50D88014541200010EDBCF16F0D9
:10490000020EDBCF17F0186A1200E552E5CFDAFF8E
:10491000E7CFD9FF12000A0E14C0DBFF0B0E15C043
:10492000DBFF1200D9500A0F26EF25F0F36E070EB9
:10493000F3CFDBFF1200EECF14F0EFCF15F0120033
:10494000010EDB2A020E1200FC0EDBCFE6FFFD0E8D
:10495000DBCFE6FF1200145E000E155AF70E14C0EE
:10496000DBFFF80E15C0DBFF14C0E9FF15C0EAFF3E
:104970001200DA20EA6EEF2AEECFF6FF000EEF22E9
:10498000EECFF7FFEF22EECFF8FF1200040EDBCFE1
:10499000E6FF130EDB50E552E75C9ADFDB5004DFE5
:1049A000060EDB501200090EDB500A0DF350DF2417
:1049B000D00FE76E090EE7CFDBFFBEEF23F0DB5031
:1049C000F36E050EECEF23F0F70EDBCF14F0F80ECC
:1049D000DBCF15F01200DFCFE6FFC8EF23F028DFB2
:1049E000030EECDE6DEF24F01AEC1FF0E552E552F9
:1049F000E552E55200091200BDDEEE50EFCFEAFFAE
:104A0000E96E010E1200130EDB50F36E040EECEF94
:104A100023F0040EDB50F36E090EECEF23F0DBCF36
:104A2000E6FFC8EF23F0E76E050EE7CFDBFF1200CD
:104A30008BDFEBEF24F0DBCFE6FF86DFF4EF24F033
:104A4000D950F90FE96EFF0EB9EF24F0E96E000EB0
:064A5000DA20EA6E1200FC
:0A4A5600255800203000253032649E
:104A6000002020004D49464152455F52656164284F
:104A700029206661696C65643A2000506167652091
:104A800020302020312020322020330D0A00204108
:104A900064723D307825303258002056616C75655F
:104AA0003D3078253032580020496E766572746545
:104AB0006420616363657373206269747320646941
:104AC00064206E6F74206D6174636821200D0A008C
:104AD000205D200020002530316400205B20004D47
:104AE00049464152455F52656164282920666169E3
:104AF0006C65640D0A005043445F41757468656ECF
:104B00007469636174652829206661696C65640D48
:104B10000A0025303364202020202020200020207F
:104B20002000536563746F7220426C6F636B20309A
:104B300030203031203032203033203034203035B6
:104B400020303620303720303820303920313020A6
:104B50003131203132203133203134203135204180
:104B60006363657373426974730D0A00504943436C
:104B700020747970653A2000436172642053414B80
:104B80003A203078253032580D0A0025303258202E
:104B90000043617264205549443A20000D0A004EDA
:104BA0006F206D656D6F72792064756D702068651A
:104BB00072652E0044756D70696E67206D656D6F4E
:104BC000727920636F6E74656E7473206E6F7420DB
:104BD000696D706C656D656E74656420666F7220BA
:104BE00074686174205049434320747970652E00C5
:104BF0005741524E494E473A20436F6D6D756E696D
:104C0000636174696F6E206661696C7572652C20D2
:104C1000697320746865204D4652433532322070E6
:104C2000726F7065726C7920636F6E6E6563746508
:104C3000643F00203D2028756E6B6E6F776E290DE6
:104C40000A00203D2076322E300D0A00203D2076CD
:104C5000312E300D0A00203D2076302E300D0A0016
:104C6000203D2028636C6F6E65290D0A004669722D
:104C70006D776172652056657273696F6E3A203088
:104C8000782530325800556E6B6E6F776E207479D0
:104C900070650053414B20696E646963617465738C
:104CA00020554944206973206E6F7420636F6D70C6
:104CB0006C6574652E004D494641524520544E5056
:104CC00033585858004D49464152452044455346B3
:104CD000697265004D494641524520506C7573001C
:104CE0004D494641524520556C7472616C69676844
:104CF00074206F7220556C7472616C6967687420DF
:104D000043004D494641524520344B42004D4946EF
:104D100041524520314B42004D4946415245204DBC
:104D2000696E692C203332302062797465730050CB
:104D300049434320636F6D706C69616E74207769BD
:104D400074682049534F2F49454320313830393258
:104D500020284E464329005049434320636F6D701D
:104D60006C69616E7420776974682049534F2F49CC
:104D700045432031343434332D3400556E6B6E6F1F
:104D8000776E206572726F720041204D4946415224
:104D900045205049434320726573706F6E646564AB
:104DA0002077697468204E414B2E0054686520437B
:104DB00052435F4120646F6573206E6F74206D6194
:104DC0007463682E00496E76616C69642061726755
:104DD000756D656E742E00496E7465726E616C201F
:104DE0006572726F7220696E2074686520636F64EB
:104DF000652E2053686F756C64206E6F7420686137
:104E00007070656E2E00412062756666657220695D
:104E100073206E6F742062696720656E6F756768B6
:104E20002E0054696D656F757420696E20636F6D17
:104E30006D756E69636174696F6E2E00436F6C6C83
:104E4000697373696F6E2064657465637465642E3D
:104E5000004572726F7220696E20636F6D6D756EA2
:104E600069636174696F6E2E005375636365737354
:104E70002E004572726F723A205472616E736665CD
:104E8000722074686520646174612E0D0A00457299
:104E9000726F723A2054656C6C20746865205049BA
:104EA00043432077652077616E7420746F2077729A
:104EB00069746520746F20626C6F636B20626C6F25
:104EC000636B416464722E0D0A0025303258200055
:104ED00050657268617073207468652077726974B8
:104EE00065206469646E277420776F726B2070721E
:104EF0006F7065726C792E2E2E0D0A004661696CFA
:104F00007572652C206E6F206D61746368203A2D78
:104F1000280D0A0053756363657373203A2D290DBC
:104F20000A004E756D626572206F66206279746545
:104F3000732074686174206D61746368203D20255E
:104F40003032640D0A00436865636B696E672072D6
:104F50006573756C742E2E2E0D0A004D4946415214
:104F6000455F57726974652829206661696C6564BC
:104F70003A200057726974696E6720646174612019
:104F8000696E746F20626C6F636B2025303258201D
:104F90002E2E2E0D0A000D0A0D0A004461746120A8
:104FA000696E20626C6F636B20253032583A0D0AAF
:104FB000004D49464152455F52656164282920668B
:104FC00061696C65643A200052656164696E6720AE
:104FD000646174612066726F6D20626C6F636B2018
:104FE00025303258202E2E2E0D0A00437572726520
:104FF0006E74206461746120696E20736563746FE0
:10500000723A0D0A005043445F41757468656E74CE
:1050100069636174652829206661696C65643A205A
:105020000041757468656E7469636174696E6720A8
:105030007573696E67206B657920412E2E2E0D0ADF
:1050400000546869732073616D706C65206F6E6CBD
:105050007920776F726B732077697468204D4946A9
:1050600041524520436C61737369632063617264CC
:10507000732E0D0A005049434320747970653A201D
:105080000043617264205549443A2000424557412B
:1050900052453A20446174612077696C6C206265E6
:1050A000207772697474656E20746F20746865204F
:1050B000504943432C20696E20736563746F7220DE
:1050C00023310D0A000D0A005573696E67206B6568
:1050D000792028666F72204120616E642042293A4F
:1050E00020005363616E2061204D494641524520A6
:1050F000436C6173736963205049434320746F208C
:1051000064656D6F6E73747261746520726561643D
:1051100020616E642077726974652E0D0A00256324
:01512000008E
:0E512200006A0EAE97EF28F00E6C001E09AE6C
:105130009CEF28F0096C001E82EC2CF009BEA6EF53
:1051400028F000AE000C096C056C000C00BEA3EF4B
:1051500028F00188FF0C006A0EAEB4EF28F00D6C49
:105160000E1EE86A0E22001E09AEBCEF28F0086C85
:10517000091EE86A0922001E1EEC2CF009BECCEFC5
:1051800028F000AE000C086C091EE86A0922046CC5
:10519000051EE86A0522000C00BEC3EF28F0018856
:1051A000FF0C09C013F008C012F008500D02F4CF34
:1051B00007F0F3CF06F009500E02F4CF09F0F3CF59
:1051C00008F00D02F3500726F4500822E86A09227D
:1051D00012500E02F3500726F4500822E86A092202
:1051E0000EAEF7EF28F01250085E1350095A13AEB6
:0C51F000000C0D50085E0E50095A000C17
:0451FC00D9CFE6FF22
:10520000DACFE6FFFA0EE3CFD9FFFB0EE3CFDAFFEA
:10521000FC0EE3CFE9FFFD0EE3CFEAFFE9CFF3FF9A
:10522000EACFF4FFF80EE35003E1F90EE35008E093
:10523000F80EE30602E2F90EE306DECFEEFFF2D748
:10524000FF0EE3CFDAFFE552FF0EE3CFD9FFE552C1
:105250001200FE0EE3CFE9FFFF0EE3CFEAFFF36A91
:10526000F46AEE5203E0F34AF42AFBD71200FF0E71
:10527000E3CFF8FFE552FF0EE3CFF7FFE552FF0E55
:10528000E3CFF6FFE552E66AE66AE66A0900F55200
:1052900009E0FD0EE32A05E1FE0EE32A02E1FF0E1E
:1052A000E32AF4D7FD0EE3CF07F0FE0EE3CF08F0BC
:0852B000FF0EE3CF09F012002C
:0852B8001E0EF66E000EF76EEB
:1052C000000EF86E00010900F550D46F0900F5508A
:1052D000D56F03E1D46701D03DD00900F550CF6F01
:1052E0000900F550D06F0900F550D16F0900090091
:1052F000F550E96E0900F550EA6E09000900090051
:10530000F550D26F0900F550D36F09000900F6CFB0
:10531000D6F0F7CFD7F0F8CFD8F0CFC0F6FFD0C097
:10532000F7FFD1C0F8FF0001D25302E1D35307E0E9
:105330000900F550EE6ED207F8E2D307F9D7D6C0D0
:10534000F6FFD7C0F7FFD8C0F8FF0001D407000E62
:06535000D55BBFD712007F
:0A535600D9CFE6FFDACFE6FFE1CF82
:10536000D9FFE2CFDAFFE652E652E652E652D950D2
:10537000FB0F146EFF0EDA20156E14C0DEFFDD6E1B
:10538000DECFE6FFDDCFE6FFFB0EDBCFE6FFFC0E58
:10539000DBCFE6FFFD0EDBCFE6FFD9C0E6FFDAC0CC
:1053A000E6FF30EC1FF0146E070EE15C02E2E16AEA
:1053B000E552E16E1450020EF3CFDBFF030EF4CF83
:1053C000DBFF020EDBCF14F0030EDBCF15F014C0B1
:1053D000F3FF15C0F4FF040EE15C02E2E16AE5525E
:0E53E000E16EE552E5CFDAFFE7CFD9FF12000C
:0253EE00D9CF15
:1053F000E6FFDACFE6FFE1CFD9FFE2CFDAFFAC6A12
:10540000AB6AFD0EDBB0AC88DBA202D0AC8CAB8CFF
:10541000DBB4AC8EDBA602D0AB8801D0AB8ADBB8A4
:10542000AC849E98DBBAAB86DBAC02D09D8A01D0FF
:105430009D9A9E9ADBAE02D09D8801D09D98FB0E6E
:10544000DB50AF6EFB0EFC0EDBCF15F015C014F079
:10545000156A1450B06EAC8AAB8E949C948EAC508E
:10546000100B04E0AC50800B01E1948CE552E5CFC9
:08547000DAFFE7CFD9FF1200BB
:08547800D9CFE6FFDACFE6FF11
:10548000E1CFD9FFE2CFDAFFFB0EDBCF14F0FC0E49
:10549000DBCF15F00001800E15141AE1FB0EDBCFF7
:1054A000E9FFFC0EDBCFEAFFEECFF3FFEDCFF4FF19
:1054B000EE2A000EEF22F3CFE9FFF4CFEAFFFD0E54
:1054C000DBCFEFFFEF50156AF36E15C0F4FF10D07D
:1054D000FB0EDB50FE0806E1FD0EDBCFE6FF74ECB1
:1054E0002CF005D0FD0EDBCFE6FF03EC00F0E5521B
:0C54F000E552E5CFDAFFE7CFD9FF12004C
:0454FC0006500B0249
:10550000F3CF02F0F4CF03F00C02F3500326000EA9
:10551000F420046E06500D02F3500426000EF42011
:10552000056E06500E02F350052607500B02F3508D
:105530000326F4500422000E052207500C02F350FB
:105540000426F450052207500D02F350052608509A
:105550000B02F3500426F450052208500C02F350BD
:0C556000052609500B02F350052612002E
:04556C00D9CFE6FFAE
:10557000DACFE6FFE1CFD9FFE2CFDAFFC26AC06A35
:10558000FC0EDB407F0B3C0BC26EFC0EDB38F00BDD
:10559000300B146EFB0EDB500F0B1410C16EFD0EA2
:1055A000DB50040DF350380B156EFD0EDB380F0B7E
:1055B000070B146EFD0EDB50800B14101510C06E1F
:1055C000FC0EDBAE03D09E9C9D8CF28CC280E5521B
:0A55D000E5CFDAFFE7CFD9FF1200A4
:0655DA00D9CFE6FFDACF95
:1055E000E6FFE1CFD9FFE2CFDAFFE652E652FC0E4A
:1055F000DBCF14F0FD0EDBCF15F0060ED89014367D
:105600001536E804FBE114C0DEFF15C0DDFF010E16
:10561000DB50BE6EDF50E840E8403F0B300B146EAD
:10562000CF0EBD141410BD6EE552E552E552E5CF24
:08563000DAFFE7CFD9FF1200F9
:08563800056A046A036A026AB4
:10564000200EE76ED8900636073608360936023641
:105650000336043605360B50025C0C5003580D50CF
:1056600004580E50055809E30B50025E0C50035AC3
:105670000D50045A0E50055A062AE72EE4D71200A0
:10568000D9CFE6FFDACFE6FFE1CFD9FFE2CFDAFFED
:10569000FD0EDB507E0BCD6EFD0EDBAC02D0CD8E51
:1056A00001D0CD9ECF6ACE6A9E90DBAE02D09D80A7
:1056B00001D09D90CD80E552E5CFDAFFE7CFD9FF4D
:0256C0001200D6
:0E56C200D9CFE6FFDACFE6FFE1CFD9FFE2CF86
:1056D000DAFFE652F20E0001DB17ABAC03D0DB9130
:1056E000ABB0DB81ABB4DB85ABB2DB87AE50DF6E3A
:1056F000DF50E552E552E5CFDAFFE7CFD9FF1200E0
:10570000D9CFE6FFDACFE6FFE1CFD9FFE2CFDAFF6C
:10571000E652E652FC0EDBCFDEFFDBCFDDFF010EF3
:10572000DB50CF6EDF50CE6EE552E552E552E5CF4D
:08573000DAFFE7CFD9FF1200F8
:08573800D9CFE6FFDACFE6FF4E
:10574000E1CFD9FFE2CFDAFFE652E652FC0EDBCF23
:10575000DEFFDBCFDDFF010EDB50D76EDF50D66EF4
:10576000E552E552E552E5CFDAFFE7CFD9FF120067
:10577000D9CFE6FFDACFE6FFE1CFD9FFE2CFDAFFFC
:10578000FD0EDB507F0BD56ED76AD66AF294FD0E04
:10579000DBAE02D0F28A01D0F29AD58EE552E5CF87
:0857A000DAFFE7CFD9FF120088
:0857A800D9CFE6FFDACFE6FFDE
:1057B000E1CFD9FFE2CFDAFFFD0EDB50FB0BCA6E63
:1057C000CC6A9E92FD0EDBAE02D09D8201D09D92EE
:0E57D000CA84E552E5CFDAFFE7CFD9FF120019
:0257DE00D9CF21
:1057E000E6FFDACFE6FFE1CFD9FFE2CFDAFF0C0E1A
:1057F000BD129494CA94FD0EDB50CB6ECA84E55260
:0E580000E5CFDAFFE7CFD9FF12009494120033
:02580E00D9CFF0
:10581000E6FFDACFE6FFE1CFD9FFE2CFDAFFC30E32
:10582000C214146EFD0EDB407F0B3C0B1410C26ED5
:0C583000E552E5CFDAFFE7CFD9FF120008
:04583C00056A046A8B
:10584000100EE76ED89008360936043605360D502E
:10585000045C0E50055805E30D50045E0E50055AC9
:08586000082AE72EF0D7120020
:08586800F36AF46AFF0EE1246B
:10587000E96EFF0EE220EA6EED6607D02F0EEF64B0
:0C58800004D03A0EEF6001D0F32A1200B1
:04588C00FF0EE350D8
:105890002C6E480E01D04C0EE76EE72EFED7E76A5D
:0C58A000E72EFED72C2EF7D700001200D8
:0458AC00000EF36E89
:1058B00000EE00F0080E01D81200EA6002D0EE6A95
:0C58C000FCD7F350E9601200EE6AFCD740
:0458CC0013EE00F0E7
:1058D00023EE00F0F86A019C5CEC29F0B7EC2CF0A8
:0858E0000DEC19F0FBD71200DA
:0858E800FF0EE350ACBA04D03E
:1058F000AF6AAB8EAC8A949CACA2FED7AD6EF36E51
:04590000F46A120033
:0C590400056A080EE76ED89009360536DB
:105910000E50055C02E3056E092AE72EF7D7120048
:10592000FF0EE350E84E1200000000D000D000D07F
:06593000E82EFAD7120078
:0A593600C450176E166AC350161015
:08594000F36E17C0F4FF120022
:085948003031323334353637BB
:0959500038396162636465660088
:07595900039F250D99494150
:0A5960001B010911C163856171FF8D
:04596A00C2821200E3
:02596E00120025
:02597000FEFF38
:0E597200000000000000050000000000000022
:045980000000000023
:020000040030CA
:0100000023DC
:010001000EF0
:0100020019E4
:010003001EDE
:010005008377
:010006008079
:010008000FE8
:01000900C036
:01000A000FE6
:01000B00E014
:01000C000FE4
:01000D0040B2
:00000001FF
