:040000000CEF00F011
:10000800FACF05F0FBCF06F0E9CF07F01AED03F0C1
:1000180014EF04F0F00E936E000E956E000E966EBF
:1000280092840F0EC16E880ED56EB10ED76EE00E9B
:10003800D66ED08EF28AF294F184F28CF28E010E92
:1000480045EC04F0020E45EC04F0030E45EC04F018
:10005800020E2B6E260E2A6E020E276EBC0E266E20
:10006800020E2D6E9E0E2C6E030E296E200E286E2B
:1000780081BE8DD0000E7BEC04F0000EB3EC03F0D3
:1000880013C045F014C046F045C019F046C01AF038
:10009800000E1C6E640E1B6E8AEC03F019C02EF065
:1000A8001AC02FF045C013F046C014F0000E166EAB
:1000B800640E156ED5EC03F013C030F014C031F0A7
:1000C8002EC020F02FC021F030C022F031C023F024
:1000D80059EC03F02A50455C2B504658D8B00BD049
:1000E80076EC04F0010E2FEC04F0020E45EC04F05F
:1000F800030E45EC04F045502A5C46502B58D8B006
:1001080023D02C50455C2D504658D8B01DD026C061
:1001180019F027C01AF0000E1C6E0A0E1B6E8AEC2E
:1001280003F019C024F01AC025F024C020F025C01F
:1001380021F0F6EC03F0010E45EC04F0020E2FEC72
:1001480004F0030E45EC04F045502C5C46502D5845
:10015800D8B01DD028C019F029C01AF0000E1C6EA6
:100168000A0E1B6E8AEC03F019C024F01AC025F0A1
:1001780024C020F025C021F0F6EC03F0010E45EC78
:1001880004F0020E45EC04F0030E2FEC04F081BEDF
:1001980081BCBBD0010E45EC04F0020E45EC04F026
:1001A800030E45EC04F076EC04F081AA81B829D05E
:1001B8002AC019F02BC01AF0000E1C6E640E1B6EBC
:1001C8008AEC03F019C02EF01AC02FF02AC013F0E1
:1001D8002BC014F0000E166E640E156ED5EC03F0ED
:1001E80013C030F014C031F02EC020F02FC021F021
:1001F80030C022F031C023F059EC03F0000E7BEC44
:1002080004F081AA81A829D026C019F027C01AF0C5
:10021800000E1C6E640E1B6E8AEC03F019C02EF0E3
:100228001AC02FF026C013F027C014F0000E166E67
:10023800640E156ED5EC03F013C030F014C031F025
:100248002EC020F02FC021F030C022F031C023F0A2
:1002580059EC03F0020E7BEC04F081BA81B829D086
:100268002CC019F02DC01AF0000E1C6E640E1B6E07
:100278008AEC03F019C02EF01AC02FF02CC013F02E
:100288002DC014F0000E166E640E156ED5EC03F03A
:1002980013C030F014C031F02EC020F02FC021F070
:1002A80030C022F031C023F059EC03F0000E7BEC93
:1002B80004F081BA81A829D028C019F029C01AF001
:1002C800000E1C6E640E1B6E8AEC03F019C02EF033
:1002D8001AC02FF028C013F029C014F0000E166EB3
:1002E800640E156ED5EC03F013C030F014C031F075
:1002F8002EC020F02FC021F030C022F031C023F0F2
:1003080059EC03F0020E7BEC04F081BE81ACB0D650
:10031800010E2FEC04F0020E2FEC04F0030E2FEC6C
:1003280004F076EC04F081AA81B840D0010EB3EC59
:1003380003F013C045F014C046F0E90E455C030E07
:100348004658D8A004D0030E466EE80E456E45C048
:1003580019F046C01AF0000E1C6E640E1B6E8AEC73
:1003680003F019C02EF01AC02FF045C013F046C094
:1003780014F0000E166E640E156ED5EC03F013C063
:1003880030F014C031F02EC020F02FC021F030C062
:1003980022F031C023F059EC03F0000E7BEC04F09E
:1003A80080A404D045C02AF046C02BF081AA81A8B9
:1003B80040D0010EB3EC03F013C045F014C046F072
:1003C800E90E455C030E4658D8A004D0030E466ECD
:1003D800E80E456E45C019F046C01AF0000E1C6EB6
:1003E800640E1B6E8AEC03F019C02EF01AC02FF0B1
:1003F80045C013F046C014F0000E166E640E156E5C
:10040800D5EC03F013C030F014C031F02EC020F04A
:100418002FC021F030C022F031C023F059EC03F096
:10042800020E7BEC04F080A404D045C026F046C040
:1004380027F081BA81B840D0010EB3EC03F013C0A5
:1004480045F014C046F0E90E455C030E4658D8A0A6
:1004580004D0030E466EE80E456E45C019F046C03E
:100468001AF0000E1C6E640E1B6E8AEC03F019C0A5
:100478002EF01AC02FF045C013F046C014F0000E3D
:10048800166E640E156ED5EC03F013C030F014C070
:1004980031F02EC020F02FC021F030C022F031C042
:1004A80023F059EC03F0000E7BEC04F080A404D098
:1004B80045C02CF046C02DF081BA81A8D9D5010ECF
:1004C800B3EC03F013C045F014C046F0E90E455CE8
:1004D800030E4658D8A004D0030E466EE80E456EAB
:1004E80045C019F046C01AF0000E1C6E640E1B6E53
:1004F8008AEC03F019C02EF01AC02FF045C013F093
:1005080046C014F0000E166E640E156ED5EC03F09E
:1005180013C030F014C031F02EC020F02FC021F0ED
:1005280030C022F031C023F059EC03F0020E7BEC0E
:1005380004F080A49DD545C028F046C029F098D580
:10054800000E046E8A868A848A828A803AD08A96C5
:100558003C50010D320EF324D96E000EF420DA6EF1
:10056800DF508C6E4BA642D029D08A943D50010DA5
:10057800320EF324D96E000EF420DA6EDF508C6E42
:100588004BA434D01BD08A923E50010D320EF32476
:10059800D96E000EF420DA6EDF508C6E4BA226D096
:1005A8000DD08A903F50010D320EF324D96E000E03
:1005B800F420DA6EDF508C6E4BA018D0010E046E5A
:1005C80015D041C001F042C002F00250000AD8A480
:1005D8000DD00150000AD8B4BAD7010AD8B4C5D78B
:1005E800030AD8B4D0D7010AD8B4DBD70404D8B4E6
:1005F8008C9E4050120AD8B403D0414A422A04D0F3
:10060800000E426E120E416E4050016E026A025098
:10061800800A036E4150015C4250800A0358D8B0EA
:1006280004D0000E426E000E416E12000600EACFA2
:1006380008F0E1CF09F0E2CF0AF0D9CF0BF0DACF1A
:100648000CF0F3CF0DF0F4CF0EF0F6CF0FF0F7CF9C
:1006580010F0F8CF11F0F5CF12F0F294F00ED76E3B
:10066800600ED66EA4EC02F0494A4A2A474A482A44
:1006780012C0F5FF11C0F8FF10C0F7FF0FC0F6FF5A
:100688000EC0F4FF0DC0F3FF0CC0DAFF0BC0D9FF9A
:100698000AC0E2FF09C0E1FF08C0EAFF07C0E9FF9E
:1006A80006C0FBFF05C0FAFF110020C019F021C0E9
:1006B8001AF0000E1C6E0A0E1B6E8AEC03F019501D
:1006C8003C6E20C013F021C014F0000E166E0A0E06
:1006D800156ED5EC03F013503D6E22C019F023C0FF
:1006E8001AF0000E1C6E0A0E1B6E8AEC03F01950ED
:1006F8003E6E22C013F023C014F0000E166E0A0ED0
:10070800156ED5EC03F013503F6E1200000E1E6EEE
:10071800000E1D6E1C501B10D8B41CD0010E1F6E8D
:1007280004D0D8901B361C361F2A1CAEFAD7D89096
:100738001D361E361B50195C1C501A58D8A005D0FF
:100748001B50195E1C501A5A1D80D8901C321B323F
:100758001F2EEDD71DC019F01EC01AF01200156E1D
:100768000D0EC16EA50EC06E0DD00D0EC16EA50E7C
:10077800C06E010E05D00D0EC16EA50EC06E050E21
:10078800C26E07D01550000AD8B4EFD7010AD8B402
:10079800F2D7C282C2B2FED7C3CF13F0C4CF14F0CF
:1007A800120016501510D8B418D0010E176E04D0C8
:1007B800D89015361636172A16AEFAD71550135C88
:1007C80016501458D8A004D01550135E1650145A59
:1007D800D89016321532172EF1D713C013F014C063
:1007E80014F012009494070ECA6E0C0EBD6E20C051
:1007F80013F021C014F0000E166E2A0E156E5BEC75
:1008080004F013C019F014C01AF0000E1C6E640E28
:100818001B6E8AEC03F01950BE6E290ECB6E1200C7
:1008280000EE41F00B0EEE6AE806FDE1DC0EF66E16
:10083800080EF76E000EF86E00EE32F010EE0FF0B4
:100848000900F5CFEEFFE550E150FAE1000EF86E31
:1008580000010EEF00F0136E96909692969406D0D3
:100868008D840ED08D820CD08D800AD01350010A51
:10087800D8B4F6D7030AD8B4F5D7010AD8B4F4D750
:100888001200136E96909692969406D08D940ED080
:100898008D920CD08D900AD01350010AD8B4F6D797
:1008A800030AD8B4F5D7010AD8B4F4D71200135004
:1008B8001502F3CF17F0F4CF18F013501602F350C7
:1008C800182614501502F350182617C013F018C034
:1008D80014F01200C0F9A4B0999282D88090010255
:1008E8000304030094848B94000EBD6E1200136EF3
:0608F80013C04BF01200DA
:020000040020DA
:08000000FFFFFFFFFFFFFFFF00
:020000040030CA
:0E000000000C1F1EFF8181FF0FC00FE00F409C
:00000001FF
